{
	"variables_nativas.sol": {
		"variables_nativas": {
			"abi": [
				{
					"inputs": [
						{
							"internalType": "string",
							"name": "_lastName",
							"type": "string"
						}
					],
					"stateMutability": "nonpayable",
					"type": "constructor"
				},
				{
					"inputs": [],
					"name": "address_var",
					"outputs": [
						{
							"internalType": "address",
							"name": "",
							"type": "address"
						}
					],
					"stateMutability": "view",
					"type": "function"
				},
				{
					"inputs": [],
					"name": "getBytes",
					"outputs": [
						{
							"internalType": "bytes1",
							"name": "",
							"type": "bytes1"
						}
					],
					"stateMutability": "view",
					"type": "function"
				},
				{
					"inputs": [],
					"name": "getName",
					"outputs": [
						{
							"internalType": "string",
							"name": "",
							"type": "string"
						}
					],
					"stateMutability": "view",
					"type": "function"
				},
				{
					"inputs": [],
					"name": "int_256",
					"outputs": [
						{
							"internalType": "int256",
							"name": "",
							"type": "int256"
						}
					],
					"stateMutability": "view",
					"type": "function"
				},
				{
					"inputs": [],
					"name": "int_8",
					"outputs": [
						{
							"internalType": "int8",
							"name": "",
							"type": "int8"
						}
					],
					"stateMutability": "view",
					"type": "function"
				},
				{
					"inputs": [],
					"name": "uint_256",
					"outputs": [
						{
							"internalType": "uint256",
							"name": "",
							"type": "uint256"
						}
					],
					"stateMutability": "view",
					"type": "function"
				},
				{
					"inputs": [],
					"name": "uint_8",
					"outputs": [
						{
							"internalType": "uint8",
							"name": "",
							"type": "uint8"
						}
					],
					"stateMutability": "view",
					"type": "function"
				}
			],
			"devdoc": {
				"kind": "dev",
				"methods": {},
				"version": 1
			},
			"evm": {
				"assembly": "    /* \"variables_nativas.sol\":61:1170  contract variables_nativas{... */\n  mstore(0x40, 0x80)\n    /* \"variables_nativas.sol\":585:586  8 */\n  0x08\n    /* \"variables_nativas.sol\":563:586  uint8 public uint_8 = 8 */\n  0x01\n  exp(0x0100, 0x00)\n  dup2\n  sload\n  dup2\n  0xff\n  mul\n  not\n  and\n  swap1\n  dup4\n  0xff\n  and\n  mul\n  or\n  swap1\n  sstore\n  pop\n    /* \"variables_nativas.sol\":619:622  254 */\n  0xfe\n    /* \"variables_nativas.sol\":593:622  uint256 public uint_256 = 254 */\n  0x02\n  sstore\n    /* \"variables_nativas.sol\":727:729  -1 */\n  0xffffffffffffffffffffffffffffffffffffffffffffffffffffffffffffffff\n    /* \"variables_nativas.sol\":707:729  int8 public int_8 = -1 */\n  0x03\n  exp(0x0100, 0x00)\n  dup2\n  sload\n  dup2\n  0xff\n  mul\n  not\n  and\n  swap1\n  dup4\n  0x00\n  signextend\n  0xff\n  and\n  mul\n  or\n  swap1\n  sstore\n  pop\n    /* \"variables_nativas.sol\":760:763  456 */\n  0x01c8\n    /* \"variables_nativas.sol\":736:763  int256 public int_256 = 456 */\n  0x04\n  sstore\n    /* \"variables_nativas.sol\":892:934  0x1d870f1210e66cba98093682b84d4491Ec04141b */\n  0x1d870f1210e66cba98093682b84d4491ec04141b\n    /* \"variables_nativas.sol\":862:934  address public  address_var = 0x1d870f1210e66cba98093682b84d4491Ec04141b */\n  0x05\n  exp(0x0100, 0x00)\n  dup2\n  sload\n  dup2\n  0xffffffffffffffffffffffffffffffffffffffff\n  mul\n  not\n  and\n  swap1\n  dup4\n  0xffffffffffffffffffffffffffffffffffffffff\n  and\n  mul\n  or\n  swap1\n  sstore\n  pop\n    /* \"variables_nativas.sol\":1002:1006  0xb5 */\n  0xb5\n    /* \"variables_nativas.sol\":987:1006  bytes1 a_var = 0xb5 */\n  0xf8\n  shl\n  0x05\n  exp(0x0100, 0x14)\n  dup2\n  sload\n  dup2\n  0xff\n  mul\n  not\n  and\n  swap1\n  dup4\n  0xf8\n  shr\n  mul\n  or\n  swap1\n  sstore\n  pop\n    /* \"variables_nativas.sol\":1042:1046  0x56 */\n  0x56\n    /* \"variables_nativas.sol\":1027:1046  bytes1 b_var = 0x56 */\n  0xf8\n  shl\n  0x05\n  exp(0x0100, 0x15)\n  dup2\n  sload\n  dup2\n  0xff\n  mul\n  not\n  and\n  swap1\n  dup4\n  0xf8\n  shr\n  mul\n  or\n  swap1\n  sstore\n  pop\n    /* \"variables_nativas.sol\":125:260  constructor(string memory _lastName) {... */\n  callvalue\n  dup1\n  iszero\n  tag_1\n  jumpi\n  0x00\n  dup1\n  revert\ntag_1:\n  pop\n  mload(0x40)\n  sub(codesize, bytecodeSize)\n  dup1\n  bytecodeSize\n  dup4\n  codecopy\n  dup2\n  dup2\n  add\n  0x40\n  mstore\n  dup2\n  add\n  swap1\n  tag_2\n  swap2\n  swap1\n  tag_3\n  jump\t// in\ntag_2:\n    /* \"variables_nativas.sol\":212:221  _lastName */\n  dup1\n    /* \"variables_nativas.sol\":185:222  string.concat(\"Juan\", \" \", _lastName) */\n  add(0x20, mload(0x40))\n  tag_6\n  swap2\n  swap1\n  tag_7\n  jump\t// in\ntag_6:\n  mload(0x40)\n  0x20\n  dup2\n  dup4\n  sub\n  sub\n  dup2\n  mstore\n  swap1\n  0x40\n  mstore\n    /* \"variables_nativas.sol\":173:182  full_name */\n  0x00\n    /* \"variables_nativas.sol\":173:222  full_name = string.concat(\"Juan\", \" \", _lastName) */\n  swap1\n  dup2\n  tag_8\n  swap2\n  swap1\n  tag_9\n  jump\t// in\ntag_8:\n  pop\n    /* \"variables_nativas.sol\":125:260  constructor(string memory _lastName) {... */\n  pop\n    /* \"variables_nativas.sol\":61:1170  contract variables_nativas{... */\n  jump(tag_10)\n    /* \"#utility.yul\":7:82   */\ntag_11:\n    /* \"#utility.yul\":40:46   */\n  0x00\n    /* \"#utility.yul\":73:75   */\n  0x40\n    /* \"#utility.yul\":67:76   */\n  mload\n    /* \"#utility.yul\":57:76   */\n  swap1\n  pop\n    /* \"#utility.yul\":7:82   */\n  swap1\n  jump\t// out\n    /* \"#utility.yul\":88:205   */\ntag_12:\n    /* \"#utility.yul\":197:198   */\n  0x00\n    /* \"#utility.yul\":194:195   */\n  dup1\n    /* \"#utility.yul\":187:199   */\n  revert\n    /* \"#utility.yul\":211:328   */\ntag_13:\n    /* \"#utility.yul\":320:321   */\n  0x00\n    /* \"#utility.yul\":317:318   */\n  dup1\n    /* \"#utility.yul\":310:322   */\n  revert\n    /* \"#utility.yul\":334:451   */\ntag_14:\n    /* \"#utility.yul\":443:444   */\n  0x00\n    /* \"#utility.yul\":440:441   */\n  dup1\n    /* \"#utility.yul\":433:445   */\n  revert\n    /* \"#utility.yul\":457:574   */\ntag_15:\n    /* \"#utility.yul\":566:567   */\n  0x00\n    /* \"#utility.yul\":563:564   */\n  dup1\n    /* \"#utility.yul\":556:568   */\n  revert\n    /* \"#utility.yul\":580:682   */\ntag_16:\n    /* \"#utility.yul\":621:627   */\n  0x00\n    /* \"#utility.yul\":672:674   */\n  0x1f\n    /* \"#utility.yul\":668:675   */\n  not\n    /* \"#utility.yul\":663:665   */\n  0x1f\n    /* \"#utility.yul\":656:661   */\n  dup4\n    /* \"#utility.yul\":652:666   */\n  add\n    /* \"#utility.yul\":648:676   */\n  and\n    /* \"#utility.yul\":638:676   */\n  swap1\n  pop\n    /* \"#utility.yul\":580:682   */\n  swap2\n  swap1\n  pop\n  jump\t// out\n    /* \"#utility.yul\":688:868   */\ntag_17:\n    /* \"#utility.yul\":736:813   */\n  0x4e487b7100000000000000000000000000000000000000000000000000000000\n    /* \"#utility.yul\":733:734   */\n  0x00\n    /* \"#utility.yul\":726:814   */\n  mstore\n    /* \"#utility.yul\":833:837   */\n  0x41\n    /* \"#utility.yul\":830:831   */\n  0x04\n    /* \"#utility.yul\":823:838   */\n  mstore\n    /* \"#utility.yul\":857:861   */\n  0x24\n    /* \"#utility.yul\":854:855   */\n  0x00\n    /* \"#utility.yul\":847:862   */\n  revert\n    /* \"#utility.yul\":874:1155   */\ntag_18:\n    /* \"#utility.yul\":957:984   */\n  tag_56\n    /* \"#utility.yul\":979:983   */\n  dup3\n    /* \"#utility.yul\":957:984   */\n  tag_16\n  jump\t// in\ntag_56:\n    /* \"#utility.yul\":949:955   */\n  dup2\n    /* \"#utility.yul\":945:985   */\n  add\n    /* \"#utility.yul\":1087:1093   */\n  dup2\n    /* \"#utility.yul\":1075:1085   */\n  dup2\n    /* \"#utility.yul\":1072:1094   */\n  lt\n    /* \"#utility.yul\":1051:1069   */\n  0xffffffffffffffff\n    /* \"#utility.yul\":1039:1049   */\n  dup3\n    /* \"#utility.yul\":1036:1070   */\n  gt\n    /* \"#utility.yul\":1033:1095   */\n  or\n    /* \"#utility.yul\":1030:1118   */\n  iszero\n  tag_57\n  jumpi\n    /* \"#utility.yul\":1098:1116   */\n  tag_58\n  tag_17\n  jump\t// in\ntag_58:\n    /* \"#utility.yul\":1030:1118   */\ntag_57:\n    /* \"#utility.yul\":1138:1148   */\n  dup1\n    /* \"#utility.yul\":1134:1136   */\n  0x40\n    /* \"#utility.yul\":1127:1149   */\n  mstore\n    /* \"#utility.yul\":917:1155   */\n  pop\n    /* \"#utility.yul\":874:1155   */\n  pop\n  pop\n  jump\t// out\n    /* \"#utility.yul\":1161:1290   */\ntag_19:\n    /* \"#utility.yul\":1195:1201   */\n  0x00\n    /* \"#utility.yul\":1222:1242   */\n  tag_60\n  tag_11\n  jump\t// in\ntag_60:\n    /* \"#utility.yul\":1212:1242   */\n  swap1\n  pop\n    /* \"#utility.yul\":1251:1284   */\n  tag_61\n    /* \"#utility.yul\":1279:1283   */\n  dup3\n    /* \"#utility.yul\":1271:1277   */\n  dup3\n    /* \"#utility.yul\":1251:1284   */\n  tag_18\n  jump\t// in\ntag_61:\n    /* \"#utility.yul\":1161:1290   */\n  swap2\n  swap1\n  pop\n  jump\t// out\n    /* \"#utility.yul\":1296:1604   */\ntag_20:\n    /* \"#utility.yul\":1358:1362   */\n  0x00\n    /* \"#utility.yul\":1448:1466   */\n  0xffffffffffffffff\n    /* \"#utility.yul\":1440:1446   */\n  dup3\n    /* \"#utility.yul\":1437:1467   */\n  gt\n    /* \"#utility.yul\":1434:1490   */\n  iszero\n  tag_63\n  jumpi\n    /* \"#utility.yul\":1470:1488   */\n  tag_64\n  tag_17\n  jump\t// in\ntag_64:\n    /* \"#utility.yul\":1434:1490   */\ntag_63:\n    /* \"#utility.yul\":1508:1537   */\n  tag_65\n    /* \"#utility.yul\":1530:1536   */\n  dup3\n    /* \"#utility.yul\":1508:1537   */\n  tag_16\n  jump\t// in\ntag_65:\n    /* \"#utility.yul\":1500:1537   */\n  swap1\n  pop\n    /* \"#utility.yul\":1592:1596   */\n  0x20\n    /* \"#utility.yul\":1586:1590   */\n  dup2\n    /* \"#utility.yul\":1582:1597   */\n  add\n    /* \"#utility.yul\":1574:1597   */\n  swap1\n  pop\n    /* \"#utility.yul\":1296:1604   */\n  swap2\n  swap1\n  pop\n  jump\t// out\n    /* \"#utility.yul\":1610:1749   */\ntag_21:\n    /* \"#utility.yul\":1699:1705   */\n  dup3\n    /* \"#utility.yul\":1694:1697   */\n  dup2\n    /* \"#utility.yul\":1689:1692   */\n  dup4\n    /* \"#utility.yul\":1683:1706   */\n  mcopy\n    /* \"#utility.yul\":1740:1741   */\n  0x00\n    /* \"#utility.yul\":1731:1737   */\n  dup4\n    /* \"#utility.yul\":1726:1729   */\n  dup4\n    /* \"#utility.yul\":1722:1738   */\n  add\n    /* \"#utility.yul\":1715:1742   */\n  mstore\n    /* \"#utility.yul\":1610:1749   */\n  pop\n  pop\n  pop\n  jump\t// out\n    /* \"#utility.yul\":1755:2189   */\ntag_22:\n    /* \"#utility.yul\":1844:1849   */\n  0x00\n    /* \"#utility.yul\":1869:1935   */\n  tag_68\n    /* \"#utility.yul\":1885:1934   */\n  tag_69\n    /* \"#utility.yul\":1927:1933   */\n  dup5\n    /* \"#utility.yul\":1885:1934   */\n  tag_20\n  jump\t// in\ntag_69:\n    /* \"#utility.yul\":1869:1935   */\n  tag_19\n  jump\t// in\ntag_68:\n    /* \"#utility.yul\":1860:1935   */\n  swap1\n  pop\n    /* \"#utility.yul\":1958:1964   */\n  dup3\n    /* \"#utility.yul\":1951:1956   */\n  dup2\n    /* \"#utility.yul\":1944:1965   */\n  mstore\n    /* \"#utility.yul\":1996:2000   */\n  0x20\n    /* \"#utility.yul\":1989:1994   */\n  dup2\n    /* \"#utility.yul\":1985:2001   */\n  add\n    /* \"#utility.yul\":2034:2037   */\n  dup5\n    /* \"#utility.yul\":2025:2031   */\n  dup5\n    /* \"#utility.yul\":2020:2023   */\n  dup5\n    /* \"#utility.yul\":2016:2032   */\n  add\n    /* \"#utility.yul\":2013:2038   */\n  gt\n    /* \"#utility.yul\":2010:2122   */\n  iszero\n  tag_70\n  jumpi\n    /* \"#utility.yul\":2041:2120   */\n  tag_71\n  tag_15\n  jump\t// in\ntag_71:\n    /* \"#utility.yul\":2010:2122   */\ntag_70:\n    /* \"#utility.yul\":2131:2183   */\n  tag_72\n    /* \"#utility.yul\":2176:2182   */\n  dup5\n    /* \"#utility.yul\":2171:2174   */\n  dup3\n    /* \"#utility.yul\":2166:2169   */\n  dup6\n    /* \"#utility.yul\":2131:2183   */\n  tag_21\n  jump\t// in\ntag_72:\n    /* \"#utility.yul\":1850:2189   */\n  pop\n    /* \"#utility.yul\":1755:2189   */\n  swap4\n  swap3\n  pop\n  pop\n  pop\n  jump\t// out\n    /* \"#utility.yul\":2209:2564   */\ntag_23:\n    /* \"#utility.yul\":2276:2281   */\n  0x00\n    /* \"#utility.yul\":2325:2328   */\n  dup3\n    /* \"#utility.yul\":2318:2322   */\n  0x1f\n    /* \"#utility.yul\":2310:2316   */\n  dup4\n    /* \"#utility.yul\":2306:2323   */\n  add\n    /* \"#utility.yul\":2302:2329   */\n  slt\n    /* \"#utility.yul\":2292:2414   */\n  tag_74\n  jumpi\n    /* \"#utility.yul\":2333:2412   */\n  tag_75\n  tag_14\n  jump\t// in\ntag_75:\n    /* \"#utility.yul\":2292:2414   */\ntag_74:\n    /* \"#utility.yul\":2443:2449   */\n  dup2\n    /* \"#utility.yul\":2437:2450   */\n  mload\n    /* \"#utility.yul\":2468:2558   */\n  tag_76\n    /* \"#utility.yul\":2554:2557   */\n  dup5\n    /* \"#utility.yul\":2546:2552   */\n  dup3\n    /* \"#utility.yul\":2539:2543   */\n  0x20\n    /* \"#utility.yul\":2531:2537   */\n  dup7\n    /* \"#utility.yul\":2527:2544   */\n  add\n    /* \"#utility.yul\":2468:2558   */\n  tag_22\n  jump\t// in\ntag_76:\n    /* \"#utility.yul\":2459:2558   */\n  swap2\n  pop\n    /* \"#utility.yul\":2282:2564   */\n  pop\n    /* \"#utility.yul\":2209:2564   */\n  swap3\n  swap2\n  pop\n  pop\n  jump\t// out\n    /* \"#utility.yul\":2570:3094   */\ntag_3:\n    /* \"#utility.yul\":2650:2656   */\n  0x00\n    /* \"#utility.yul\":2699:2701   */\n  0x20\n    /* \"#utility.yul\":2687:2696   */\n  dup3\n    /* \"#utility.yul\":2678:2685   */\n  dup5\n    /* \"#utility.yul\":2674:2697   */\n  sub\n    /* \"#utility.yul\":2670:2702   */\n  slt\n    /* \"#utility.yul\":2667:2786   */\n  iszero\n  tag_78\n  jumpi\n    /* \"#utility.yul\":2705:2784   */\n  tag_79\n  tag_12\n  jump\t// in\ntag_79:\n    /* \"#utility.yul\":2667:2786   */\ntag_78:\n    /* \"#utility.yul\":2846:2847   */\n  0x00\n    /* \"#utility.yul\":2835:2844   */\n  dup3\n    /* \"#utility.yul\":2831:2848   */\n  add\n    /* \"#utility.yul\":2825:2849   */\n  mload\n    /* \"#utility.yul\":2876:2894   */\n  0xffffffffffffffff\n    /* \"#utility.yul\":2868:2874   */\n  dup2\n    /* \"#utility.yul\":2865:2895   */\n  gt\n    /* \"#utility.yul\":2862:2979   */\n  iszero\n  tag_80\n  jumpi\n    /* \"#utility.yul\":2898:2977   */\n  tag_81\n  tag_13\n  jump\t// in\ntag_81:\n    /* \"#utility.yul\":2862:2979   */\ntag_80:\n    /* \"#utility.yul\":3003:3077   */\n  tag_82\n    /* \"#utility.yul\":3069:3076   */\n  dup5\n    /* \"#utility.yul\":3060:3066   */\n  dup3\n    /* \"#utility.yul\":3049:3058   */\n  dup6\n    /* \"#utility.yul\":3045:3067   */\n  add\n    /* \"#utility.yul\":3003:3077   */\n  tag_23\n  jump\t// in\ntag_82:\n    /* \"#utility.yul\":2993:3077   */\n  swap2\n  pop\n    /* \"#utility.yul\":2796:3087   */\n  pop\n    /* \"#utility.yul\":2570:3094   */\n  swap3\n  swap2\n  pop\n  pop\n  jump\t// out\n    /* \"#utility.yul\":3100:3281   */\ntag_24:\n    /* \"#utility.yul\":3268:3274   */\n  0x4a75616e00000000000000000000000000000000000000000000000000000000\n    /* \"#utility.yul\":3263:3266   */\n  dup2\n    /* \"#utility.yul\":3256:3275   */\n  mstore\n    /* \"#utility.yul\":3100:3281   */\n  pop\n  jump\t// out\n    /* \"#utility.yul\":3287:3465   */\ntag_25:\n    /* \"#utility.yul\":3455:3458   */\n  0x2000000000000000000000000000000000000000000000000000000000000000\n    /* \"#utility.yul\":3450:3453   */\n  dup2\n    /* \"#utility.yul\":3443:3459   */\n  mstore\n    /* \"#utility.yul\":3287:3465   */\n  pop\n  jump\t// out\n    /* \"#utility.yul\":3471:3570   */\ntag_26:\n    /* \"#utility.yul\":3523:3529   */\n  0x00\n    /* \"#utility.yul\":3557:3562   */\n  dup2\n    /* \"#utility.yul\":3551:3563   */\n  mload\n    /* \"#utility.yul\":3541:3563   */\n  swap1\n  pop\n    /* \"#utility.yul\":3471:3570   */\n  swap2\n  swap1\n  pop\n  jump\t// out\n    /* \"#utility.yul\":3576:3724   */\ntag_27:\n    /* \"#utility.yul\":3678:3689   */\n  0x00\n    /* \"#utility.yul\":3715:3718   */\n  dup2\n    /* \"#utility.yul\":3700:3718   */\n  swap1\n  pop\n    /* \"#utility.yul\":3576:3724   */\n  swap3\n  swap2\n  pop\n  pop\n  jump\t// out\n    /* \"#utility.yul\":3730:4120   */\ntag_28:\n    /* \"#utility.yul\":3836:3839   */\n  0x00\n    /* \"#utility.yul\":3864:3903   */\n  tag_88\n    /* \"#utility.yul\":3897:3902   */\n  dup3\n    /* \"#utility.yul\":3864:3903   */\n  tag_26\n  jump\t// in\ntag_88:\n    /* \"#utility.yul\":3919:4008   */\n  tag_89\n    /* \"#utility.yul\":4001:4007   */\n  dup2\n    /* \"#utility.yul\":3996:3999   */\n  dup6\n    /* \"#utility.yul\":3919:4008   */\n  tag_27\n  jump\t// in\ntag_89:\n    /* \"#utility.yul\":3912:4008   */\n  swap4\n  pop\n    /* \"#utility.yul\":4017:4082   */\n  tag_90\n    /* \"#utility.yul\":4075:4081   */\n  dup2\n    /* \"#utility.yul\":4070:4073   */\n  dup6\n    /* \"#utility.yul\":4063:4067   */\n  0x20\n    /* \"#utility.yul\":4056:4061   */\n  dup7\n    /* \"#utility.yul\":4052:4068   */\n  add\n    /* \"#utility.yul\":4017:4082   */\n  tag_21\n  jump\t// in\ntag_90:\n    /* \"#utility.yul\":4107:4113   */\n  dup1\n    /* \"#utility.yul\":4102:4105   */\n  dup5\n    /* \"#utility.yul\":4098:4114   */\n  add\n    /* \"#utility.yul\":4091:4114   */\n  swap2\n  pop\n    /* \"#utility.yul\":3840:4120   */\n  pop\n    /* \"#utility.yul\":3730:4120   */\n  swap3\n  swap2\n  pop\n  pop\n  jump\t// out\n    /* \"#utility.yul\":4126:4929   */\ntag_7:\n    /* \"#utility.yul\":4438:4441   */\n  0x00\n    /* \"#utility.yul\":4453:4590   */\n  tag_92\n    /* \"#utility.yul\":4586:4589   */\n  dup3\n    /* \"#utility.yul\":4453:4590   */\n  tag_24\n  jump\t// in\ntag_92:\n    /* \"#utility.yul\":4615:4616   */\n  0x04\n    /* \"#utility.yul\":4610:4613   */\n  dup3\n    /* \"#utility.yul\":4606:4617   */\n  add\n    /* \"#utility.yul\":4599:4617   */\n  swap2\n  pop\n    /* \"#utility.yul\":4627:4764   */\n  tag_93\n    /* \"#utility.yul\":4760:4763   */\n  dup3\n    /* \"#utility.yul\":4627:4764   */\n  tag_25\n  jump\t// in\ntag_93:\n    /* \"#utility.yul\":4789:4790   */\n  0x01\n    /* \"#utility.yul\":4784:4787   */\n  dup3\n    /* \"#utility.yul\":4780:4791   */\n  add\n    /* \"#utility.yul\":4773:4791   */\n  swap2\n  pop\n    /* \"#utility.yul\":4808:4903   */\n  tag_94\n    /* \"#utility.yul\":4899:4902   */\n  dup3\n    /* \"#utility.yul\":4890:4896   */\n  dup5\n    /* \"#utility.yul\":4808:4903   */\n  tag_28\n  jump\t// in\ntag_94:\n    /* \"#utility.yul\":4801:4903   */\n  swap2\n  pop\n    /* \"#utility.yul\":4920:4923   */\n  dup2\n    /* \"#utility.yul\":4913:4923   */\n  swap1\n  pop\n    /* \"#utility.yul\":4126:4929   */\n  swap3\n  swap2\n  pop\n  pop\n  jump\t// out\n    /* \"#utility.yul\":4935:5115   */\ntag_29:\n    /* \"#utility.yul\":4983:5060   */\n  0x4e487b7100000000000000000000000000000000000000000000000000000000\n    /* \"#utility.yul\":4980:4981   */\n  0x00\n    /* \"#utility.yul\":4973:5061   */\n  mstore\n    /* \"#utility.yul\":5080:5084   */\n  0x22\n    /* \"#utility.yul\":5077:5078   */\n  0x04\n    /* \"#utility.yul\":5070:5085   */\n  mstore\n    /* \"#utility.yul\":5104:5108   */\n  0x24\n    /* \"#utility.yul\":5101:5102   */\n  0x00\n    /* \"#utility.yul\":5094:5109   */\n  revert\n    /* \"#utility.yul\":5121:5441   */\ntag_30:\n    /* \"#utility.yul\":5165:5171   */\n  0x00\n    /* \"#utility.yul\":5202:5203   */\n  0x02\n    /* \"#utility.yul\":5196:5200   */\n  dup3\n    /* \"#utility.yul\":5192:5204   */\n  div\n    /* \"#utility.yul\":5182:5204   */\n  swap1\n  pop\n    /* \"#utility.yul\":5249:5250   */\n  0x01\n    /* \"#utility.yul\":5243:5247   */\n  dup3\n    /* \"#utility.yul\":5239:5251   */\n  and\n    /* \"#utility.yul\":5270:5288   */\n  dup1\n    /* \"#utility.yul\":5260:5341   */\n  tag_97\n  jumpi\n    /* \"#utility.yul\":5326:5330   */\n  0x7f\n    /* \"#utility.yul\":5318:5324   */\n  dup3\n    /* \"#utility.yul\":5314:5331   */\n  and\n    /* \"#utility.yul\":5304:5331   */\n  swap2\n  pop\n    /* \"#utility.yul\":5260:5341   */\ntag_97:\n    /* \"#utility.yul\":5388:5390   */\n  0x20\n    /* \"#utility.yul\":5380:5386   */\n  dup3\n    /* \"#utility.yul\":5377:5391   */\n  lt\n    /* \"#utility.yul\":5357:5375   */\n  dup2\n    /* \"#utility.yul\":5354:5392   */\n  sub\n    /* \"#utility.yul\":5351:5435   */\n  tag_98\n  jumpi\n    /* \"#utility.yul\":5407:5425   */\n  tag_99\n  tag_29\n  jump\t// in\ntag_99:\n    /* \"#utility.yul\":5351:5435   */\ntag_98:\n    /* \"#utility.yul\":5172:5441   */\n  pop\n    /* \"#utility.yul\":5121:5441   */\n  swap2\n  swap1\n  pop\n  jump\t// out\n    /* \"#utility.yul\":5447:5588   */\ntag_31:\n    /* \"#utility.yul\":5496:5500   */\n  0x00\n    /* \"#utility.yul\":5519:5522   */\n  dup2\n    /* \"#utility.yul\":5511:5522   */\n  swap1\n  pop\n    /* \"#utility.yul\":5542:5545   */\n  dup2\n    /* \"#utility.yul\":5539:5540   */\n  0x00\n    /* \"#utility.yul\":5532:5546   */\n  mstore\n    /* \"#utility.yul\":5576:5580   */\n  0x20\n    /* \"#utility.yul\":5573:5574   */\n  0x00\n    /* \"#utility.yul\":5563:5581   */\n  keccak256\n    /* \"#utility.yul\":5555:5581   */\n  swap1\n  pop\n    /* \"#utility.yul\":5447:5588   */\n  swap2\n  swap1\n  pop\n  jump\t// out\n    /* \"#utility.yul\":5594:5687   */\ntag_32:\n    /* \"#utility.yul\":5631:5637   */\n  0x00\n    /* \"#utility.yul\":5678:5680   */\n  0x20\n    /* \"#utility.yul\":5673:5675   */\n  0x1f\n    /* \"#utility.yul\":5666:5671   */\n  dup4\n    /* \"#utility.yul\":5662:5676   */\n  add\n    /* \"#utility.yul\":5658:5681   */\n  div\n    /* \"#utility.yul\":5648:5681   */\n  swap1\n  pop\n    /* \"#utility.yul\":5594:5687   */\n  swap2\n  swap1\n  pop\n  jump\t// out\n    /* \"#utility.yul\":5693:5800   */\ntag_33:\n    /* \"#utility.yul\":5737:5745   */\n  0x00\n    /* \"#utility.yul\":5787:5792   */\n  dup3\n    /* \"#utility.yul\":5781:5785   */\n  dup3\n    /* \"#utility.yul\":5777:5793   */\n  shl\n    /* \"#utility.yul\":5756:5793   */\n  swap1\n  pop\n    /* \"#utility.yul\":5693:5800   */\n  swap3\n  swap2\n  pop\n  pop\n  jump\t// out\n    /* \"#utility.yul\":5806:6199   */\ntag_34:\n    /* \"#utility.yul\":5875:5881   */\n  0x00\n    /* \"#utility.yul\":5925:5926   */\n  0x08\n    /* \"#utility.yul\":5913:5923   */\n  dup4\n    /* \"#utility.yul\":5909:5927   */\n  mul\n    /* \"#utility.yul\":5948:6045   */\n  tag_104\n    /* \"#utility.yul\":5978:6044   */\n  0xffffffffffffffffffffffffffffffffffffffffffffffffffffffffffffffff\n    /* \"#utility.yul\":5967:5976   */\n  dup3\n    /* \"#utility.yul\":5948:6045   */\n  tag_33\n  jump\t// in\ntag_104:\n    /* \"#utility.yul\":6066:6105   */\n  tag_105\n    /* \"#utility.yul\":6096:6104   */\n  dup7\n    /* \"#utility.yul\":6085:6094   */\n  dup4\n    /* \"#utility.yul\":6066:6105   */\n  tag_33\n  jump\t// in\ntag_105:\n    /* \"#utility.yul\":6054:6105   */\n  swap6\n  pop\n    /* \"#utility.yul\":6138:6142   */\n  dup1\n    /* \"#utility.yul\":6134:6143   */\n  not\n    /* \"#utility.yul\":6127:6132   */\n  dup5\n    /* \"#utility.yul\":6123:6144   */\n  and\n    /* \"#utility.yul\":6114:6144   */\n  swap4\n  pop\n    /* \"#utility.yul\":6187:6191   */\n  dup1\n    /* \"#utility.yul\":6177:6185   */\n  dup7\n    /* \"#utility.yul\":6173:6192   */\n  and\n    /* \"#utility.yul\":6166:6171   */\n  dup5\n    /* \"#utility.yul\":6163:6193   */\n  or\n    /* \"#utility.yul\":6153:6193   */\n  swap3\n  pop\n    /* \"#utility.yul\":5882:6199   */\n  pop\n  pop\n    /* \"#utility.yul\":5806:6199   */\n  swap4\n  swap3\n  pop\n  pop\n  pop\n  jump\t// out\n    /* \"#utility.yul\":6205:6282   */\ntag_35:\n    /* \"#utility.yul\":6242:6249   */\n  0x00\n    /* \"#utility.yul\":6271:6276   */\n  dup2\n    /* \"#utility.yul\":6260:6276   */\n  swap1\n  pop\n    /* \"#utility.yul\":6205:6282   */\n  swap2\n  swap1\n  pop\n  jump\t// out\n    /* \"#utility.yul\":6288:6348   */\ntag_36:\n    /* \"#utility.yul\":6316:6319   */\n  0x00\n    /* \"#utility.yul\":6337:6342   */\n  dup2\n    /* \"#utility.yul\":6330:6342   */\n  swap1\n  pop\n    /* \"#utility.yul\":6288:6348   */\n  swap2\n  swap1\n  pop\n  jump\t// out\n    /* \"#utility.yul\":6354:6496   */\ntag_37:\n    /* \"#utility.yul\":6404:6413   */\n  0x00\n    /* \"#utility.yul\":6437:6490   */\n  tag_109\n    /* \"#utility.yul\":6455:6489   */\n  tag_110\n    /* \"#utility.yul\":6464:6488   */\n  tag_111\n    /* \"#utility.yul\":6482:6487   */\n  dup5\n    /* \"#utility.yul\":6464:6488   */\n  tag_35\n  jump\t// in\ntag_111:\n    /* \"#utility.yul\":6455:6489   */\n  tag_36\n  jump\t// in\ntag_110:\n    /* \"#utility.yul\":6437:6490   */\n  tag_35\n  jump\t// in\ntag_109:\n    /* \"#utility.yul\":6424:6490   */\n  swap1\n  pop\n    /* \"#utility.yul\":6354:6496   */\n  swap2\n  swap1\n  pop\n  jump\t// out\n    /* \"#utility.yul\":6502:6577   */\ntag_38:\n    /* \"#utility.yul\":6545:6548   */\n  0x00\n    /* \"#utility.yul\":6566:6571   */\n  dup2\n    /* \"#utility.yul\":6559:6571   */\n  swap1\n  pop\n    /* \"#utility.yul\":6502:6577   */\n  swap2\n  swap1\n  pop\n  jump\t// out\n    /* \"#utility.yul\":6583:6852   */\ntag_39:\n    /* \"#utility.yul\":6693:6732   */\n  tag_114\n    /* \"#utility.yul\":6724:6731   */\n  dup4\n    /* \"#utility.yul\":6693:6732   */\n  tag_37\n  jump\t// in\ntag_114:\n    /* \"#utility.yul\":6754:6845   */\n  tag_115\n    /* \"#utility.yul\":6803:6844   */\n  tag_116\n    /* \"#utility.yul\":6827:6843   */\n  dup3\n    /* \"#utility.yul\":6803:6844   */\n  tag_38\n  jump\t// in\ntag_116:\n    /* \"#utility.yul\":6795:6801   */\n  dup5\n    /* \"#utility.yul\":6788:6792   */\n  dup5\n    /* \"#utility.yul\":6782:6793   */\n  sload\n    /* \"#utility.yul\":6754:6845   */\n  tag_34\n  jump\t// in\ntag_115:\n    /* \"#utility.yul\":6748:6752   */\n  dup3\n    /* \"#utility.yul\":6741:6846   */\n  sstore\n    /* \"#utility.yul\":6659:6852   */\n  pop\n    /* \"#utility.yul\":6583:6852   */\n  pop\n  pop\n  pop\n  jump\t// out\n    /* \"#utility.yul\":6858:6931   */\ntag_40:\n    /* \"#utility.yul\":6903:6906   */\n  0x00\n    /* \"#utility.yul\":6858:6931   */\n  swap1\n  jump\t// out\n    /* \"#utility.yul\":6937:7126   */\ntag_41:\n    /* \"#utility.yul\":7014:7046   */\n  tag_119\n  tag_40\n  jump\t// in\ntag_119:\n    /* \"#utility.yul\":7055:7120   */\n  tag_120\n    /* \"#utility.yul\":7113:7119   */\n  dup2\n    /* \"#utility.yul\":7105:7111   */\n  dup5\n    /* \"#utility.yul\":7099:7103   */\n  dup5\n    /* \"#utility.yul\":7055:7120   */\n  tag_39\n  jump\t// in\ntag_120:\n    /* \"#utility.yul\":6990:7126   */\n  pop\n    /* \"#utility.yul\":6937:7126   */\n  pop\n  pop\n  jump\t// out\n    /* \"#utility.yul\":7132:7318   */\ntag_42:\n    /* \"#utility.yul\":7192:7312   */\ntag_122:\n    /* \"#utility.yul\":7209:7212   */\n  dup2\n    /* \"#utility.yul\":7202:7207   */\n  dup2\n    /* \"#utility.yul\":7199:7213   */\n  lt\n    /* \"#utility.yul\":7192:7312   */\n  iszero\n  tag_124\n  jumpi\n    /* \"#utility.yul\":7263:7302   */\n  tag_125\n    /* \"#utility.yul\":7300:7301   */\n  0x00\n    /* \"#utility.yul\":7293:7298   */\n  dup3\n    /* \"#utility.yul\":7263:7302   */\n  tag_41\n  jump\t// in\ntag_125:\n    /* \"#utility.yul\":7236:7237   */\n  0x01\n    /* \"#utility.yul\":7229:7234   */\n  dup2\n    /* \"#utility.yul\":7225:7238   */\n  add\n    /* \"#utility.yul\":7216:7238   */\n  swap1\n  pop\n    /* \"#utility.yul\":7192:7312   */\n  jump(tag_122)\ntag_124:\n    /* \"#utility.yul\":7132:7318   */\n  pop\n  pop\n  jump\t// out\n    /* \"#utility.yul\":7324:7867   */\ntag_43:\n    /* \"#utility.yul\":7425:7427   */\n  0x1f\n    /* \"#utility.yul\":7420:7423   */\n  dup3\n    /* \"#utility.yul\":7417:7428   */\n  gt\n    /* \"#utility.yul\":7414:7860   */\n  iszero\n  tag_127\n  jumpi\n    /* \"#utility.yul\":7459:7497   */\n  tag_128\n    /* \"#utility.yul\":7491:7496   */\n  dup2\n    /* \"#utility.yul\":7459:7497   */\n  tag_31\n  jump\t// in\ntag_128:\n    /* \"#utility.yul\":7543:7572   */\n  tag_129\n    /* \"#utility.yul\":7561:7571   */\n  dup5\n    /* \"#utility.yul\":7543:7572   */\n  tag_32\n  jump\t// in\ntag_129:\n    /* \"#utility.yul\":7533:7541   */\n  dup2\n    /* \"#utility.yul\":7529:7573   */\n  add\n    /* \"#utility.yul\":7726:7728   */\n  0x20\n    /* \"#utility.yul\":7714:7724   */\n  dup6\n    /* \"#utility.yul\":7711:7729   */\n  lt\n    /* \"#utility.yul\":7708:7757   */\n  iszero\n  tag_130\n  jumpi\n    /* \"#utility.yul\":7747:7755   */\n  dup2\n    /* \"#utility.yul\":7732:7755   */\n  swap1\n  pop\n    /* \"#utility.yul\":7708:7757   */\ntag_130:\n    /* \"#utility.yul\":7770:7850   */\n  tag_131\n    /* \"#utility.yul\":7826:7848   */\n  tag_132\n    /* \"#utility.yul\":7844:7847   */\n  dup6\n    /* \"#utility.yul\":7826:7848   */\n  tag_32\n  jump\t// in\ntag_132:\n    /* \"#utility.yul\":7816:7824   */\n  dup4\n    /* \"#utility.yul\":7812:7849   */\n  add\n    /* \"#utility.yul\":7799:7810   */\n  dup3\n    /* \"#utility.yul\":7770:7850   */\n  tag_42\n  jump\t// in\ntag_131:\n    /* \"#utility.yul\":7429:7860   */\n  pop\n  pop\n    /* \"#utility.yul\":7414:7860   */\ntag_127:\n    /* \"#utility.yul\":7324:7867   */\n  pop\n  pop\n  pop\n  jump\t// out\n    /* \"#utility.yul\":7873:7990   */\ntag_44:\n    /* \"#utility.yul\":7927:7935   */\n  0x00\n    /* \"#utility.yul\":7977:7982   */\n  dup3\n    /* \"#utility.yul\":7971:7975   */\n  dup3\n    /* \"#utility.yul\":7967:7983   */\n  shr\n    /* \"#utility.yul\":7946:7983   */\n  swap1\n  pop\n    /* \"#utility.yul\":7873:7990   */\n  swap3\n  swap2\n  pop\n  pop\n  jump\t// out\n    /* \"#utility.yul\":7996:8165   */\ntag_45:\n    /* \"#utility.yul\":8040:8046   */\n  0x00\n    /* \"#utility.yul\":8073:8124   */\n  tag_135\n    /* \"#utility.yul\":8121:8122   */\n  0x00\n    /* \"#utility.yul\":8117:8123   */\n  not\n    /* \"#utility.yul\":8109:8114   */\n  dup5\n    /* \"#utility.yul\":8106:8107   */\n  0x08\n    /* \"#utility.yul\":8102:8115   */\n  mul\n    /* \"#utility.yul\":8073:8124   */\n  tag_44\n  jump\t// in\ntag_135:\n    /* \"#utility.yul\":8069:8125   */\n  not\n    /* \"#utility.yul\":8154:8158   */\n  dup1\n    /* \"#utility.yul\":8148:8152   */\n  dup4\n    /* \"#utility.yul\":8144:8159   */\n  and\n    /* \"#utility.yul\":8134:8159   */\n  swap2\n  pop\n    /* \"#utility.yul\":8047:8165   */\n  pop\n    /* \"#utility.yul\":7996:8165   */\n  swap3\n  swap2\n  pop\n  pop\n  jump\t// out\n    /* \"#utility.yul\":8170:8465   */\ntag_46:\n    /* \"#utility.yul\":8246:8250   */\n  0x00\n    /* \"#utility.yul\":8392:8421   */\n  tag_137\n    /* \"#utility.yul\":8417:8420   */\n  dup4\n    /* \"#utility.yul\":8411:8415   */\n  dup4\n    /* \"#utility.yul\":8392:8421   */\n  tag_45\n  jump\t// in\ntag_137:\n    /* \"#utility.yul\":8384:8421   */\n  swap2\n  pop\n    /* \"#utility.yul\":8454:8457   */\n  dup3\n    /* \"#utility.yul\":8451:8452   */\n  0x02\n    /* \"#utility.yul\":8447:8458   */\n  mul\n    /* \"#utility.yul\":8441:8445   */\n  dup3\n    /* \"#utility.yul\":8438:8459   */\n  or\n    /* \"#utility.yul\":8430:8459   */\n  swap1\n  pop\n    /* \"#utility.yul\":8170:8465   */\n  swap3\n  swap2\n  pop\n  pop\n  jump\t// out\n    /* \"#utility.yul\":8470:9865   */\ntag_9:\n    /* \"#utility.yul\":8587:8624   */\n  tag_139\n    /* \"#utility.yul\":8620:8623   */\n  dup3\n    /* \"#utility.yul\":8587:8624   */\n  tag_26\n  jump\t// in\ntag_139:\n    /* \"#utility.yul\":8689:8707   */\n  0xffffffffffffffff\n    /* \"#utility.yul\":8681:8687   */\n  dup2\n    /* \"#utility.yul\":8678:8708   */\n  gt\n    /* \"#utility.yul\":8675:8731   */\n  iszero\n  tag_140\n  jumpi\n    /* \"#utility.yul\":8711:8729   */\n  tag_141\n  tag_17\n  jump\t// in\ntag_141:\n    /* \"#utility.yul\":8675:8731   */\ntag_140:\n    /* \"#utility.yul\":8755:8793   */\n  tag_142\n    /* \"#utility.yul\":8787:8791   */\n  dup3\n    /* \"#utility.yul\":8781:8792   */\n  sload\n    /* \"#utility.yul\":8755:8793   */\n  tag_30\n  jump\t// in\ntag_142:\n    /* \"#utility.yul\":8840:8907   */\n  tag_143\n    /* \"#utility.yul\":8900:8906   */\n  dup3\n    /* \"#utility.yul\":8892:8898   */\n  dup3\n    /* \"#utility.yul\":8886:8890   */\n  dup6\n    /* \"#utility.yul\":8840:8907   */\n  tag_43\n  jump\t// in\ntag_143:\n    /* \"#utility.yul\":8934:8935   */\n  0x00\n    /* \"#utility.yul\":8958:8962   */\n  0x20\n    /* \"#utility.yul\":8945:8962   */\n  swap1\n  pop\n    /* \"#utility.yul\":8990:8992   */\n  0x1f\n    /* \"#utility.yul\":8982:8988   */\n  dup4\n    /* \"#utility.yul\":8979:8993   */\n  gt\n    /* \"#utility.yul\":9007:9008   */\n  0x01\n    /* \"#utility.yul\":9002:9620   */\n  dup2\n  eq\n  tag_145\n  jumpi\n    /* \"#utility.yul\":9664:9665   */\n  0x00\n    /* \"#utility.yul\":9681:9687   */\n  dup5\n    /* \"#utility.yul\":9678:9755   */\n  iszero\n  tag_146\n  jumpi\n    /* \"#utility.yul\":9730:9739   */\n  dup3\n    /* \"#utility.yul\":9725:9728   */\n  dup8\n    /* \"#utility.yul\":9721:9740   */\n  add\n    /* \"#utility.yul\":9715:9741   */\n  mload\n    /* \"#utility.yul\":9706:9741   */\n  swap1\n  pop\n    /* \"#utility.yul\":9678:9755   */\ntag_146:\n    /* \"#utility.yul\":9781:9848   */\n  tag_147\n    /* \"#utility.yul\":9841:9847   */\n  dup6\n    /* \"#utility.yul\":9834:9839   */\n  dup3\n    /* \"#utility.yul\":9781:9848   */\n  tag_46\n  jump\t// in\ntag_147:\n    /* \"#utility.yul\":9775:9779   */\n  dup7\n    /* \"#utility.yul\":9768:9849   */\n  sstore\n    /* \"#utility.yul\":9637:9859   */\n  pop\n    /* \"#utility.yul\":8972:9859   */\n  jump(tag_144)\n    /* \"#utility.yul\":9002:9620   */\ntag_145:\n    /* \"#utility.yul\":9054:9058   */\n  0x1f\n    /* \"#utility.yul\":9050:9059   */\n  not\n    /* \"#utility.yul\":9042:9048   */\n  dup5\n    /* \"#utility.yul\":9038:9060   */\n  and\n    /* \"#utility.yul\":9088:9125   */\n  tag_148\n    /* \"#utility.yul\":9120:9124   */\n  dup7\n    /* \"#utility.yul\":9088:9125   */\n  tag_31\n  jump\t// in\ntag_148:\n    /* \"#utility.yul\":9147:9148   */\n  0x00\n    /* \"#utility.yul\":9161:9369   */\ntag_149:\n    /* \"#utility.yul\":9175:9182   */\n  dup3\n    /* \"#utility.yul\":9172:9173   */\n  dup2\n    /* \"#utility.yul\":9169:9183   */\n  lt\n    /* \"#utility.yul\":9161:9369   */\n  iszero\n  tag_151\n  jumpi\n    /* \"#utility.yul\":9254:9263   */\n  dup5\n    /* \"#utility.yul\":9249:9252   */\n  dup10\n    /* \"#utility.yul\":9245:9264   */\n  add\n    /* \"#utility.yul\":9239:9265   */\n  mload\n    /* \"#utility.yul\":9231:9237   */\n  dup3\n    /* \"#utility.yul\":9224:9266   */\n  sstore\n    /* \"#utility.yul\":9305:9306   */\n  0x01\n    /* \"#utility.yul\":9297:9303   */\n  dup3\n    /* \"#utility.yul\":9293:9307   */\n  add\n    /* \"#utility.yul\":9283:9307   */\n  swap2\n  pop\n    /* \"#utility.yul\":9352:9354   */\n  0x20\n    /* \"#utility.yul\":9341:9350   */\n  dup6\n    /* \"#utility.yul\":9337:9355   */\n  add\n    /* \"#utility.yul\":9324:9355   */\n  swap5\n  pop\n    /* \"#utility.yul\":9198:9202   */\n  0x20\n    /* \"#utility.yul\":9195:9196   */\n  dup2\n    /* \"#utility.yul\":9191:9203   */\n  add\n    /* \"#utility.yul\":9186:9203   */\n  swap1\n  pop\n    /* \"#utility.yul\":9161:9369   */\n  jump(tag_149)\ntag_151:\n    /* \"#utility.yul\":9397:9403   */\n  dup7\n    /* \"#utility.yul\":9388:9395   */\n  dup4\n    /* \"#utility.yul\":9385:9404   */\n  lt\n    /* \"#utility.yul\":9382:9561   */\n  iszero\n  tag_152\n  jumpi\n    /* \"#utility.yul\":9455:9464   */\n  dup5\n    /* \"#utility.yul\":9450:9453   */\n  dup10\n    /* \"#utility.yul\":9446:9465   */\n  add\n    /* \"#utility.yul\":9440:9466   */\n  mload\n    /* \"#utility.yul\":9498:9546   */\n  tag_153\n    /* \"#utility.yul\":9540:9544   */\n  0x1f\n    /* \"#utility.yul\":9532:9538   */\n  dup10\n    /* \"#utility.yul\":9528:9545   */\n  and\n    /* \"#utility.yul\":9517:9526   */\n  dup3\n    /* \"#utility.yul\":9498:9546   */\n  tag_45\n  jump\t// in\ntag_153:\n    /* \"#utility.yul\":9490:9496   */\n  dup4\n    /* \"#utility.yul\":9483:9547   */\n  sstore\n    /* \"#utility.yul\":9405:9561   */\n  pop\n    /* \"#utility.yul\":9382:9561   */\ntag_152:\n    /* \"#utility.yul\":9607:9608   */\n  0x01\n    /* \"#utility.yul\":9603:9604   */\n  0x02\n    /* \"#utility.yul\":9595:9601   */\n  dup9\n    /* \"#utility.yul\":9591:9605   */\n  mul\n    /* \"#utility.yul\":9587:9609   */\n  add\n    /* \"#utility.yul\":9581:9585   */\n  dup9\n    /* \"#utility.yul\":9574:9610   */\n  sstore\n    /* \"#utility.yul\":9009:9620   */\n  pop\n  pop\n  pop\n    /* \"#utility.yul\":8972:9859   */\ntag_144:\n  pop\n    /* \"#utility.yul\":8562:9865   */\n  pop\n  pop\n  pop\n    /* \"#utility.yul\":8470:9865   */\n  pop\n  pop\n  jump\t// out\n    /* \"variables_nativas.sol\":61:1170  contract variables_nativas{... */\ntag_10:\n  dataSize(sub_0)\n  dup1\n  dataOffset(sub_0)\n  0x00\n  codecopy\n  0x00\n  return\nstop\n\nsub_0: assembly {\n        /* \"variables_nativas.sol\":61:1170  contract variables_nativas{... */\n      mstore(0x40, 0x80)\n      callvalue\n      dup1\n      iszero\n      tag_1\n      jumpi\n      0x00\n      dup1\n      revert\n    tag_1:\n      pop\n      jumpi(tag_2, lt(calldatasize, 0x04))\n      shr(0xe0, calldataload(0x00))\n      dup1\n      0xce410d53\n      gt\n      tag_10\n      jumpi\n      dup1\n      0xce410d53\n      eq\n      tag_6\n      jumpi\n      dup1\n      0xdf77a62e\n      eq\n      tag_7\n      jumpi\n      dup1\n      0xf7ae9171\n      eq\n      tag_8\n      jumpi\n      dup1\n      0xf950fc6d\n      eq\n      tag_9\n      jumpi\n      jump(tag_2)\n    tag_10:\n      dup1\n      0x0bcd3b33\n      eq\n      tag_3\n      jumpi\n      dup1\n      0x17d7de7c\n      eq\n      tag_4\n      jumpi\n      dup1\n      0x38304639\n      eq\n      tag_5\n      jumpi\n    tag_2:\n      0x00\n      dup1\n      revert\n        /* \"variables_nativas.sol\":1088:1167  function getBytes() public view returns (bytes1){... */\n    tag_3:\n      tag_11\n      tag_12\n      jump\t// in\n    tag_11:\n      mload(0x40)\n      tag_13\n      swap2\n      swap1\n      tag_14\n      jump\t// in\n    tag_13:\n      mload(0x40)\n      dup1\n      swap2\n      sub\n      swap1\n      return\n        /* \"variables_nativas.sol\":268:358  function getName() public view returns (string memory) {... */\n    tag_4:\n      tag_15\n      tag_16\n      jump\t// in\n    tag_15:\n      mload(0x40)\n      tag_17\n      swap2\n      swap1\n      tag_18\n      jump\t// in\n    tag_17:\n      mload(0x40)\n      dup1\n      swap2\n      sub\n      swap1\n      return\n        /* \"variables_nativas.sol\":862:934  address public  address_var = 0x1d870f1210e66cba98093682b84d4491Ec04141b */\n    tag_5:\n      tag_19\n      tag_20\n      jump\t// in\n    tag_19:\n      mload(0x40)\n      tag_21\n      swap2\n      swap1\n      tag_22\n      jump\t// in\n    tag_21:\n      mload(0x40)\n      dup1\n      swap2\n      sub\n      swap1\n      return\n        /* \"variables_nativas.sol\":593:622  uint256 public uint_256 = 254 */\n    tag_6:\n      tag_23\n      tag_24\n      jump\t// in\n    tag_23:\n      mload(0x40)\n      tag_25\n      swap2\n      swap1\n      tag_26\n      jump\t// in\n    tag_25:\n      mload(0x40)\n      dup1\n      swap2\n      sub\n      swap1\n      return\n        /* \"variables_nativas.sol\":707:729  int8 public int_8 = -1 */\n    tag_7:\n      tag_27\n      tag_28\n      jump\t// in\n    tag_27:\n      mload(0x40)\n      tag_29\n      swap2\n      swap1\n      tag_30\n      jump\t// in\n    tag_29:\n      mload(0x40)\n      dup1\n      swap2\n      sub\n      swap1\n      return\n        /* \"variables_nativas.sol\":736:763  int256 public int_256 = 456 */\n    tag_8:\n      tag_31\n      tag_32\n      jump\t// in\n    tag_31:\n      mload(0x40)\n      tag_33\n      swap2\n      swap1\n      tag_34\n      jump\t// in\n    tag_33:\n      mload(0x40)\n      dup1\n      swap2\n      sub\n      swap1\n      return\n        /* \"variables_nativas.sol\":563:586  uint8 public uint_8 = 8 */\n    tag_9:\n      tag_35\n      tag_36\n      jump\t// in\n    tag_35:\n      mload(0x40)\n      tag_37\n      swap2\n      swap1\n      tag_38\n      jump\t// in\n    tag_37:\n      mload(0x40)\n      dup1\n      swap2\n      sub\n      swap1\n      return\n        /* \"variables_nativas.sol\":1088:1167  function getBytes() public view returns (bytes1){... */\n    tag_12:\n        /* \"variables_nativas.sol\":1129:1135  bytes1 */\n      0x00\n        /* \"variables_nativas.sol\":1154:1159  c_var */\n      0x05\n      0x16\n      swap1\n      sload\n      swap1\n      0x0100\n      exp\n      swap1\n      div\n      0xf8\n      shl\n        /* \"variables_nativas.sol\":1147:1159  return c_var */\n      swap1\n      pop\n        /* \"variables_nativas.sol\":1088:1167  function getBytes() public view returns (bytes1){... */\n      swap1\n      jump\t// out\n        /* \"variables_nativas.sol\":268:358  function getName() public view returns (string memory) {... */\n    tag_16:\n        /* \"variables_nativas.sol\":308:321  string memory */\n      0x60\n        /* \"variables_nativas.sol\":341:350  full_name */\n      0x00\n        /* \"variables_nativas.sol\":334:350  return full_name */\n      dup1\n      sload\n      tag_41\n      swap1\n      tag_42\n      jump\t// in\n    tag_41:\n      dup1\n      0x1f\n      add\n      0x20\n      dup1\n      swap2\n      div\n      mul\n      0x20\n      add\n      mload(0x40)\n      swap1\n      dup2\n      add\n      0x40\n      mstore\n      dup1\n      swap3\n      swap2\n      swap1\n      dup2\n      dup2\n      mstore\n      0x20\n      add\n      dup3\n      dup1\n      sload\n      tag_43\n      swap1\n      tag_42\n      jump\t// in\n    tag_43:\n      dup1\n      iszero\n      tag_44\n      jumpi\n      dup1\n      0x1f\n      lt\n      tag_45\n      jumpi\n      0x0100\n      dup1\n      dup4\n      sload\n      div\n      mul\n      dup4\n      mstore\n      swap2\n      0x20\n      add\n      swap2\n      jump(tag_44)\n    tag_45:\n      dup3\n      add\n      swap2\n      swap1\n      0x00\n      mstore\n      keccak256(0x00, 0x20)\n      swap1\n    tag_46:\n      dup2\n      sload\n      dup2\n      mstore\n      swap1\n      0x01\n      add\n      swap1\n      0x20\n      add\n      dup1\n      dup4\n      gt\n      tag_46\n      jumpi\n      dup3\n      swap1\n      sub\n      0x1f\n      and\n      dup3\n      add\n      swap2\n    tag_44:\n      pop\n      pop\n      pop\n      pop\n      pop\n      swap1\n      pop\n        /* \"variables_nativas.sol\":268:358  function getName() public view returns (string memory) {... */\n      swap1\n      jump\t// out\n        /* \"variables_nativas.sol\":862:934  address public  address_var = 0x1d870f1210e66cba98093682b84d4491Ec04141b */\n    tag_20:\n      0x05\n      0x00\n      swap1\n      sload\n      swap1\n      0x0100\n      exp\n      swap1\n      div\n      0xffffffffffffffffffffffffffffffffffffffff\n      and\n      dup2\n      jump\t// out\n        /* \"variables_nativas.sol\":593:622  uint256 public uint_256 = 254 */\n    tag_24:\n      sload(0x02)\n      dup2\n      jump\t// out\n        /* \"variables_nativas.sol\":707:729  int8 public int_8 = -1 */\n    tag_28:\n      0x03\n      0x00\n      swap1\n      sload\n      swap1\n      0x0100\n      exp\n      swap1\n      div\n      0x00\n      signextend\n      dup2\n      jump\t// out\n        /* \"variables_nativas.sol\":736:763  int256 public int_256 = 456 */\n    tag_32:\n      sload(0x04)\n      dup2\n      jump\t// out\n        /* \"variables_nativas.sol\":563:586  uint8 public uint_8 = 8 */\n    tag_36:\n      0x01\n      0x00\n      swap1\n      sload\n      swap1\n      0x0100\n      exp\n      swap1\n      div\n      0xff\n      and\n      dup2\n      jump\t// out\n        /* \"#utility.yul\":7:156   */\n    tag_47:\n        /* \"#utility.yul\":43:50   */\n      0x00\n        /* \"#utility.yul\":83:149   */\n      0xff00000000000000000000000000000000000000000000000000000000000000\n        /* \"#utility.yul\":76:81   */\n      dup3\n        /* \"#utility.yul\":72:150   */\n      and\n        /* \"#utility.yul\":61:150   */\n      swap1\n      pop\n        /* \"#utility.yul\":7:156   */\n      swap2\n      swap1\n      pop\n      jump\t// out\n        /* \"#utility.yul\":162:277   */\n    tag_48:\n        /* \"#utility.yul\":247:270   */\n      tag_69\n        /* \"#utility.yul\":264:269   */\n      dup2\n        /* \"#utility.yul\":247:270   */\n      tag_47\n      jump\t// in\n    tag_69:\n        /* \"#utility.yul\":242:245   */\n      dup3\n        /* \"#utility.yul\":235:271   */\n      mstore\n        /* \"#utility.yul\":162:277   */\n      pop\n      pop\n      jump\t// out\n        /* \"#utility.yul\":283:501   */\n    tag_14:\n        /* \"#utility.yul\":374:378   */\n      0x00\n        /* \"#utility.yul\":412:414   */\n      0x20\n        /* \"#utility.yul\":401:410   */\n      dup3\n        /* \"#utility.yul\":397:415   */\n      add\n        /* \"#utility.yul\":389:415   */\n      swap1\n      pop\n        /* \"#utility.yul\":425:494   */\n      tag_71\n        /* \"#utility.yul\":491:492   */\n      0x00\n        /* \"#utility.yul\":480:489   */\n      dup4\n        /* \"#utility.yul\":476:493   */\n      add\n        /* \"#utility.yul\":467:473   */\n      dup5\n        /* \"#utility.yul\":425:494   */\n      tag_48\n      jump\t// in\n    tag_71:\n        /* \"#utility.yul\":283:501   */\n      swap3\n      swap2\n      pop\n      pop\n      jump\t// out\n        /* \"#utility.yul\":507:606   */\n    tag_49:\n        /* \"#utility.yul\":559:565   */\n      0x00\n        /* \"#utility.yul\":593:598   */\n      dup2\n        /* \"#utility.yul\":587:599   */\n      mload\n        /* \"#utility.yul\":577:599   */\n      swap1\n      pop\n        /* \"#utility.yul\":507:606   */\n      swap2\n      swap1\n      pop\n      jump\t// out\n        /* \"#utility.yul\":612:781   */\n    tag_50:\n        /* \"#utility.yul\":696:707   */\n      0x00\n        /* \"#utility.yul\":730:736   */\n      dup3\n        /* \"#utility.yul\":725:728   */\n      dup3\n        /* \"#utility.yul\":718:737   */\n      mstore\n        /* \"#utility.yul\":770:774   */\n      0x20\n        /* \"#utility.yul\":765:768   */\n      dup3\n        /* \"#utility.yul\":761:775   */\n      add\n        /* \"#utility.yul\":746:775   */\n      swap1\n      pop\n        /* \"#utility.yul\":612:781   */\n      swap3\n      swap2\n      pop\n      pop\n      jump\t// out\n        /* \"#utility.yul\":787:926   */\n    tag_51:\n        /* \"#utility.yul\":876:882   */\n      dup3\n        /* \"#utility.yul\":871:874   */\n      dup2\n        /* \"#utility.yul\":866:869   */\n      dup4\n        /* \"#utility.yul\":860:883   */\n      mcopy\n        /* \"#utility.yul\":917:918   */\n      0x00\n        /* \"#utility.yul\":908:914   */\n      dup4\n        /* \"#utility.yul\":903:906   */\n      dup4\n        /* \"#utility.yul\":899:915   */\n      add\n        /* \"#utility.yul\":892:919   */\n      mstore\n        /* \"#utility.yul\":787:926   */\n      pop\n      pop\n      pop\n      jump\t// out\n        /* \"#utility.yul\":932:1034   */\n    tag_52:\n        /* \"#utility.yul\":973:979   */\n      0x00\n        /* \"#utility.yul\":1024:1026   */\n      0x1f\n        /* \"#utility.yul\":1020:1027   */\n      not\n        /* \"#utility.yul\":1015:1017   */\n      0x1f\n        /* \"#utility.yul\":1008:1013   */\n      dup4\n        /* \"#utility.yul\":1004:1018   */\n      add\n        /* \"#utility.yul\":1000:1028   */\n      and\n        /* \"#utility.yul\":990:1028   */\n      swap1\n      pop\n        /* \"#utility.yul\":932:1034   */\n      swap2\n      swap1\n      pop\n      jump\t// out\n        /* \"#utility.yul\":1040:1417   */\n    tag_53:\n        /* \"#utility.yul\":1128:1131   */\n      0x00\n        /* \"#utility.yul\":1156:1195   */\n      tag_77\n        /* \"#utility.yul\":1189:1194   */\n      dup3\n        /* \"#utility.yul\":1156:1195   */\n      tag_49\n      jump\t// in\n    tag_77:\n        /* \"#utility.yul\":1211:1282   */\n      tag_78\n        /* \"#utility.yul\":1275:1281   */\n      dup2\n        /* \"#utility.yul\":1270:1273   */\n      dup6\n        /* \"#utility.yul\":1211:1282   */\n      tag_50\n      jump\t// in\n    tag_78:\n        /* \"#utility.yul\":1204:1282   */\n      swap4\n      pop\n        /* \"#utility.yul\":1291:1356   */\n      tag_79\n        /* \"#utility.yul\":1349:1355   */\n      dup2\n        /* \"#utility.yul\":1344:1347   */\n      dup6\n        /* \"#utility.yul\":1337:1341   */\n      0x20\n        /* \"#utility.yul\":1330:1335   */\n      dup7\n        /* \"#utility.yul\":1326:1342   */\n      add\n        /* \"#utility.yul\":1291:1356   */\n      tag_51\n      jump\t// in\n    tag_79:\n        /* \"#utility.yul\":1381:1410   */\n      tag_80\n        /* \"#utility.yul\":1403:1409   */\n      dup2\n        /* \"#utility.yul\":1381:1410   */\n      tag_52\n      jump\t// in\n    tag_80:\n        /* \"#utility.yul\":1376:1379   */\n      dup5\n        /* \"#utility.yul\":1372:1411   */\n      add\n        /* \"#utility.yul\":1365:1411   */\n      swap2\n      pop\n        /* \"#utility.yul\":1132:1417   */\n      pop\n        /* \"#utility.yul\":1040:1417   */\n      swap3\n      swap2\n      pop\n      pop\n      jump\t// out\n        /* \"#utility.yul\":1423:1736   */\n    tag_18:\n        /* \"#utility.yul\":1536:1540   */\n      0x00\n        /* \"#utility.yul\":1574:1576   */\n      0x20\n        /* \"#utility.yul\":1563:1572   */\n      dup3\n        /* \"#utility.yul\":1559:1577   */\n      add\n        /* \"#utility.yul\":1551:1577   */\n      swap1\n      pop\n        /* \"#utility.yul\":1623:1632   */\n      dup2\n        /* \"#utility.yul\":1617:1621   */\n      dup2\n        /* \"#utility.yul\":1613:1633   */\n      sub\n        /* \"#utility.yul\":1609:1610   */\n      0x00\n        /* \"#utility.yul\":1598:1607   */\n      dup4\n        /* \"#utility.yul\":1594:1611   */\n      add\n        /* \"#utility.yul\":1587:1634   */\n      mstore\n        /* \"#utility.yul\":1651:1729   */\n      tag_82\n        /* \"#utility.yul\":1724:1728   */\n      dup2\n        /* \"#utility.yul\":1715:1721   */\n      dup5\n        /* \"#utility.yul\":1651:1729   */\n      tag_53\n      jump\t// in\n    tag_82:\n        /* \"#utility.yul\":1643:1729   */\n      swap1\n      pop\n        /* \"#utility.yul\":1423:1736   */\n      swap3\n      swap2\n      pop\n      pop\n      jump\t// out\n        /* \"#utility.yul\":1742:1868   */\n    tag_54:\n        /* \"#utility.yul\":1779:1786   */\n      0x00\n        /* \"#utility.yul\":1819:1861   */\n      0xffffffffffffffffffffffffffffffffffffffff\n        /* \"#utility.yul\":1812:1817   */\n      dup3\n        /* \"#utility.yul\":1808:1862   */\n      and\n        /* \"#utility.yul\":1797:1862   */\n      swap1\n      pop\n        /* \"#utility.yul\":1742:1868   */\n      swap2\n      swap1\n      pop\n      jump\t// out\n        /* \"#utility.yul\":1874:1970   */\n    tag_55:\n        /* \"#utility.yul\":1911:1918   */\n      0x00\n        /* \"#utility.yul\":1940:1964   */\n      tag_85\n        /* \"#utility.yul\":1958:1963   */\n      dup3\n        /* \"#utility.yul\":1940:1964   */\n      tag_54\n      jump\t// in\n    tag_85:\n        /* \"#utility.yul\":1929:1964   */\n      swap1\n      pop\n        /* \"#utility.yul\":1874:1970   */\n      swap2\n      swap1\n      pop\n      jump\t// out\n        /* \"#utility.yul\":1976:2094   */\n    tag_56:\n        /* \"#utility.yul\":2063:2087   */\n      tag_87\n        /* \"#utility.yul\":2081:2086   */\n      dup2\n        /* \"#utility.yul\":2063:2087   */\n      tag_55\n      jump\t// in\n    tag_87:\n        /* \"#utility.yul\":2058:2061   */\n      dup3\n        /* \"#utility.yul\":2051:2088   */\n      mstore\n        /* \"#utility.yul\":1976:2094   */\n      pop\n      pop\n      jump\t// out\n        /* \"#utility.yul\":2100:2322   */\n    tag_22:\n        /* \"#utility.yul\":2193:2197   */\n      0x00\n        /* \"#utility.yul\":2231:2233   */\n      0x20\n        /* \"#utility.yul\":2220:2229   */\n      dup3\n        /* \"#utility.yul\":2216:2234   */\n      add\n        /* \"#utility.yul\":2208:2234   */\n      swap1\n      pop\n        /* \"#utility.yul\":2244:2315   */\n      tag_89\n        /* \"#utility.yul\":2312:2313   */\n      0x00\n        /* \"#utility.yul\":2301:2310   */\n      dup4\n        /* \"#utility.yul\":2297:2314   */\n      add\n        /* \"#utility.yul\":2288:2294   */\n      dup5\n        /* \"#utility.yul\":2244:2315   */\n      tag_56\n      jump\t// in\n    tag_89:\n        /* \"#utility.yul\":2100:2322   */\n      swap3\n      swap2\n      pop\n      pop\n      jump\t// out\n        /* \"#utility.yul\":2328:2405   */\n    tag_57:\n        /* \"#utility.yul\":2365:2372   */\n      0x00\n        /* \"#utility.yul\":2394:2399   */\n      dup2\n        /* \"#utility.yul\":2383:2399   */\n      swap1\n      pop\n        /* \"#utility.yul\":2328:2405   */\n      swap2\n      swap1\n      pop\n      jump\t// out\n        /* \"#utility.yul\":2411:2529   */\n    tag_58:\n        /* \"#utility.yul\":2498:2522   */\n      tag_92\n        /* \"#utility.yul\":2516:2521   */\n      dup2\n        /* \"#utility.yul\":2498:2522   */\n      tag_57\n      jump\t// in\n    tag_92:\n        /* \"#utility.yul\":2493:2496   */\n      dup3\n        /* \"#utility.yul\":2486:2523   */\n      mstore\n        /* \"#utility.yul\":2411:2529   */\n      pop\n      pop\n      jump\t// out\n        /* \"#utility.yul\":2535:2757   */\n    tag_26:\n        /* \"#utility.yul\":2628:2632   */\n      0x00\n        /* \"#utility.yul\":2666:2668   */\n      0x20\n        /* \"#utility.yul\":2655:2664   */\n      dup3\n        /* \"#utility.yul\":2651:2669   */\n      add\n        /* \"#utility.yul\":2643:2669   */\n      swap1\n      pop\n        /* \"#utility.yul\":2679:2750   */\n      tag_94\n        /* \"#utility.yul\":2747:2748   */\n      0x00\n        /* \"#utility.yul\":2736:2745   */\n      dup4\n        /* \"#utility.yul\":2732:2749   */\n      add\n        /* \"#utility.yul\":2723:2729   */\n      dup5\n        /* \"#utility.yul\":2679:2750   */\n      tag_58\n      jump\t// in\n    tag_94:\n        /* \"#utility.yul\":2535:2757   */\n      swap3\n      swap2\n      pop\n      pop\n      jump\t// out\n        /* \"#utility.yul\":2763:2852   */\n    tag_59:\n        /* \"#utility.yul\":2797:2804   */\n      0x00\n        /* \"#utility.yul\":2840:2845   */\n      dup2\n        /* \"#utility.yul\":2837:2838   */\n      0x00\n        /* \"#utility.yul\":2826:2846   */\n      signextend\n        /* \"#utility.yul\":2815:2846   */\n      swap1\n      pop\n        /* \"#utility.yul\":2763:2852   */\n      swap2\n      swap1\n      pop\n      jump\t// out\n        /* \"#utility.yul\":2858:2967   */\n    tag_60:\n        /* \"#utility.yul\":2939:2960   */\n      tag_97\n        /* \"#utility.yul\":2954:2959   */\n      dup2\n        /* \"#utility.yul\":2939:2960   */\n      tag_59\n      jump\t// in\n    tag_97:\n        /* \"#utility.yul\":2934:2937   */\n      dup3\n        /* \"#utility.yul\":2927:2961   */\n      mstore\n        /* \"#utility.yul\":2858:2967   */\n      pop\n      pop\n      jump\t// out\n        /* \"#utility.yul\":2973:3183   */\n    tag_30:\n        /* \"#utility.yul\":3060:3064   */\n      0x00\n        /* \"#utility.yul\":3098:3100   */\n      0x20\n        /* \"#utility.yul\":3087:3096   */\n      dup3\n        /* \"#utility.yul\":3083:3101   */\n      add\n        /* \"#utility.yul\":3075:3101   */\n      swap1\n      pop\n        /* \"#utility.yul\":3111:3176   */\n      tag_99\n        /* \"#utility.yul\":3173:3174   */\n      0x00\n        /* \"#utility.yul\":3162:3171   */\n      dup4\n        /* \"#utility.yul\":3158:3175   */\n      add\n        /* \"#utility.yul\":3149:3155   */\n      dup5\n        /* \"#utility.yul\":3111:3176   */\n      tag_60\n      jump\t// in\n    tag_99:\n        /* \"#utility.yul\":2973:3183   */\n      swap3\n      swap2\n      pop\n      pop\n      jump\t// out\n        /* \"#utility.yul\":3189:3265   */\n    tag_61:\n        /* \"#utility.yul\":3225:3232   */\n      0x00\n        /* \"#utility.yul\":3254:3259   */\n      dup2\n        /* \"#utility.yul\":3243:3259   */\n      swap1\n      pop\n        /* \"#utility.yul\":3189:3265   */\n      swap2\n      swap1\n      pop\n      jump\t// out\n        /* \"#utility.yul\":3271:3386   */\n    tag_62:\n        /* \"#utility.yul\":3356:3379   */\n      tag_102\n        /* \"#utility.yul\":3373:3378   */\n      dup2\n        /* \"#utility.yul\":3356:3379   */\n      tag_61\n      jump\t// in\n    tag_102:\n        /* \"#utility.yul\":3351:3354   */\n      dup3\n        /* \"#utility.yul\":3344:3380   */\n      mstore\n        /* \"#utility.yul\":3271:3386   */\n      pop\n      pop\n      jump\t// out\n        /* \"#utility.yul\":3392:3610   */\n    tag_34:\n        /* \"#utility.yul\":3483:3487   */\n      0x00\n        /* \"#utility.yul\":3521:3523   */\n      0x20\n        /* \"#utility.yul\":3510:3519   */\n      dup3\n        /* \"#utility.yul\":3506:3524   */\n      add\n        /* \"#utility.yul\":3498:3524   */\n      swap1\n      pop\n        /* \"#utility.yul\":3534:3603   */\n      tag_104\n        /* \"#utility.yul\":3600:3601   */\n      0x00\n        /* \"#utility.yul\":3589:3598   */\n      dup4\n        /* \"#utility.yul\":3585:3602   */\n      add\n        /* \"#utility.yul\":3576:3582   */\n      dup5\n        /* \"#utility.yul\":3534:3603   */\n      tag_62\n      jump\t// in\n    tag_104:\n        /* \"#utility.yul\":3392:3610   */\n      swap3\n      swap2\n      pop\n      pop\n      jump\t// out\n        /* \"#utility.yul\":3616:3702   */\n    tag_63:\n        /* \"#utility.yul\":3651:3658   */\n      0x00\n        /* \"#utility.yul\":3691:3695   */\n      0xff\n        /* \"#utility.yul\":3684:3689   */\n      dup3\n        /* \"#utility.yul\":3680:3696   */\n      and\n        /* \"#utility.yul\":3669:3696   */\n      swap1\n      pop\n        /* \"#utility.yul\":3616:3702   */\n      swap2\n      swap1\n      pop\n      jump\t// out\n        /* \"#utility.yul\":3708:3820   */\n    tag_64:\n        /* \"#utility.yul\":3791:3813   */\n      tag_107\n        /* \"#utility.yul\":3807:3812   */\n      dup2\n        /* \"#utility.yul\":3791:3813   */\n      tag_63\n      jump\t// in\n    tag_107:\n        /* \"#utility.yul\":3786:3789   */\n      dup3\n        /* \"#utility.yul\":3779:3814   */\n      mstore\n        /* \"#utility.yul\":3708:3820   */\n      pop\n      pop\n      jump\t// out\n        /* \"#utility.yul\":3826:4040   */\n    tag_38:\n        /* \"#utility.yul\":3915:3919   */\n      0x00\n        /* \"#utility.yul\":3953:3955   */\n      0x20\n        /* \"#utility.yul\":3942:3951   */\n      dup3\n        /* \"#utility.yul\":3938:3956   */\n      add\n        /* \"#utility.yul\":3930:3956   */\n      swap1\n      pop\n        /* \"#utility.yul\":3966:4033   */\n      tag_109\n        /* \"#utility.yul\":4030:4031   */\n      0x00\n        /* \"#utility.yul\":4019:4028   */\n      dup4\n        /* \"#utility.yul\":4015:4032   */\n      add\n        /* \"#utility.yul\":4006:4012   */\n      dup5\n        /* \"#utility.yul\":3966:4033   */\n      tag_64\n      jump\t// in\n    tag_109:\n        /* \"#utility.yul\":3826:4040   */\n      swap3\n      swap2\n      pop\n      pop\n      jump\t// out\n        /* \"#utility.yul\":4046:4226   */\n    tag_65:\n        /* \"#utility.yul\":4094:4171   */\n      0x4e487b7100000000000000000000000000000000000000000000000000000000\n        /* \"#utility.yul\":4091:4092   */\n      0x00\n        /* \"#utility.yul\":4084:4172   */\n      mstore\n        /* \"#utility.yul\":4191:4195   */\n      0x22\n        /* \"#utility.yul\":4188:4189   */\n      0x04\n        /* \"#utility.yul\":4181:4196   */\n      mstore\n        /* \"#utility.yul\":4215:4219   */\n      0x24\n        /* \"#utility.yul\":4212:4213   */\n      0x00\n        /* \"#utility.yul\":4205:4220   */\n      revert\n        /* \"#utility.yul\":4232:4552   */\n    tag_42:\n        /* \"#utility.yul\":4276:4282   */\n      0x00\n        /* \"#utility.yul\":4313:4314   */\n      0x02\n        /* \"#utility.yul\":4307:4311   */\n      dup3\n        /* \"#utility.yul\":4303:4315   */\n      div\n        /* \"#utility.yul\":4293:4315   */\n      swap1\n      pop\n        /* \"#utility.yul\":4360:4361   */\n      0x01\n        /* \"#utility.yul\":4354:4358   */\n      dup3\n        /* \"#utility.yul\":4350:4362   */\n      and\n        /* \"#utility.yul\":4381:4399   */\n      dup1\n        /* \"#utility.yul\":4371:4452   */\n      tag_112\n      jumpi\n        /* \"#utility.yul\":4437:4441   */\n      0x7f\n        /* \"#utility.yul\":4429:4435   */\n      dup3\n        /* \"#utility.yul\":4425:4442   */\n      and\n        /* \"#utility.yul\":4415:4442   */\n      swap2\n      pop\n        /* \"#utility.yul\":4371:4452   */\n    tag_112:\n        /* \"#utility.yul\":4499:4501   */\n      0x20\n        /* \"#utility.yul\":4491:4497   */\n      dup3\n        /* \"#utility.yul\":4488:4502   */\n      lt\n        /* \"#utility.yul\":4468:4486   */\n      dup2\n        /* \"#utility.yul\":4465:4503   */\n      sub\n        /* \"#utility.yul\":4462:4546   */\n      tag_113\n      jumpi\n        /* \"#utility.yul\":4518:4536   */\n      tag_114\n      tag_65\n      jump\t// in\n    tag_114:\n        /* \"#utility.yul\":4462:4546   */\n    tag_113:\n        /* \"#utility.yul\":4283:4552   */\n      pop\n        /* \"#utility.yul\":4232:4552   */\n      swap2\n      swap1\n      pop\n      jump\t// out\n\n    auxdata: 0xa26469706673582212204c2962686cf0d7f025d14e3ed20f59556927ede3042432b49cad79fdc6836eba64736f6c634300081a0033\n}\n",
				"bytecode": {
					"linkReferences": {},
					"object": "6080604052600860015f6101000a81548160ff021916908360ff16021790555060fe6002557fffffffffffffffffffffffffffffffffffffffffffffffffffffffffffffffff60035f6101000a81548160ff02191690835f0b60ff1602179055506101c8600455731d870f1210e66cba98093682b84d4491ec04141b60055f6101000a81548173ffffffffffffffffffffffffffffffffffffffff021916908373ffffffffffffffffffffffffffffffffffffffff16021790555060b560f81b600560146101000a81548160ff021916908360f81c0217905550605660f81b600560156101000a81548160ff021916908360f81c0217905550348015610103575f80fd5b50604051610b71380380610b71833981810160405281019061012591906102a6565b80604051602001610136919061037d565b6040516020818303038152906040525f908161015291906105b4565b5050610683565b5f604051905090565b5f80fd5b5f80fd5b5f80fd5b5f80fd5b5f601f19601f8301169050919050565b7f4e487b71000000000000000000000000000000000000000000000000000000005f52604160045260245ffd5b6101b882610172565b810181811067ffffffffffffffff821117156101d7576101d6610182565b5b80604052505050565b5f6101e9610159565b90506101f582826101af565b919050565b5f67ffffffffffffffff82111561021457610213610182565b5b61021d82610172565b9050602081019050919050565b8281835e5f83830152505050565b5f61024a610245846101fa565b6101e0565b9050828152602081018484840111156102665761026561016e565b5b61027184828561022a565b509392505050565b5f82601f83011261028d5761028c61016a565b5b815161029d848260208601610238565b91505092915050565b5f602082840312156102bb576102ba610162565b5b5f82015167ffffffffffffffff8111156102d8576102d7610166565b5b6102e484828501610279565b91505092915050565b7f4a75616e00000000000000000000000000000000000000000000000000000000815250565b7f2000000000000000000000000000000000000000000000000000000000000000815250565b5f81519050919050565b5f81905092915050565b5f61035782610339565b6103618185610343565b935061037181856020860161022a565b80840191505092915050565b5f610387826102ed565b60048201915061039682610313565b6001820191506103a6828461034d565b915081905092915050565b7f4e487b71000000000000000000000000000000000000000000000000000000005f52602260045260245ffd5b5f60028204905060018216806103f557607f821691505b602082108103610408576104076103b1565b5b50919050565b5f819050815f5260205f209050919050565b5f6020601f8301049050919050565b5f82821b905092915050565b5f6008830261046a7fffffffffffffffffffffffffffffffffffffffffffffffffffffffffffffffff8261042f565b610474868361042f565b95508019841693508086168417925050509392505050565b5f819050919050565b5f819050919050565b5f6104b86104b36104ae8461048c565b610495565b61048c565b9050919050565b5f819050919050565b6104d18361049e565b6104e56104dd826104bf565b84845461043b565b825550505050565b5f90565b6104f96104ed565b6105048184846104c8565b505050565b5b818110156105275761051c5f826104f1565b60018101905061050a565b5050565b601f82111561056c5761053d8161040e565b61054684610420565b81016020851015610555578190505b61056961056185610420565b830182610509565b50505b505050565b5f82821c905092915050565b5f61058c5f1984600802610571565b1980831691505092915050565b5f6105a4838361057d565b9150826002028217905092915050565b6105bd82610339565b67ffffffffffffffff8111156105d6576105d5610182565b5b6105e082546103de565b6105eb82828561052b565b5f60209050601f83116001811461061c575f841561060a578287015190505b6106148582610599565b86555061067b565b601f19841661062a8661040e565b5f5b828110156106515784890151825560018201915060208501945060208101905061062c565b8683101561066e578489015161066a601f89168261057d565b8355505b6001600288020188555050505b505050505050565b6104e1806106905f395ff3fe608060405234801561000f575f80fd5b506004361061007b575f3560e01c8063ce410d5311610059578063ce410d53146100d9578063df77a62e146100f7578063f7ae917114610115578063f950fc6d146101335761007b565b80630bcd3b331461007f57806317d7de7c1461009d57806338304639146100bb575b5f80fd5b610087610151565b6040516100949190610284565b60405180910390f35b6100a5610167565b6040516100b2919061030d565b60405180910390f35b6100c36101f6565b6040516100d0919061036c565b60405180910390f35b6100e161021b565b6040516100ee919061039d565b60405180910390f35b6100ff610221565b60405161010c91906103d0565b60405180910390f35b61011d610232565b60405161012a9190610401565b60405180910390f35b61013b610238565b6040516101489190610435565b60405180910390f35b5f600560169054906101000a900460f81b905090565b60605f80546101759061047b565b80601f01602080910402602001604051908101604052809291908181526020018280546101a19061047b565b80156101ec5780601f106101c3576101008083540402835291602001916101ec565b820191905f5260205f20905b8154815290600101906020018083116101cf57829003601f168201915b5050505050905090565b60055f9054906101000a900473ffffffffffffffffffffffffffffffffffffffff1681565b60025481565b60035f9054906101000a90045f0b81565b60045481565b60015f9054906101000a900460ff1681565b5f7fff0000000000000000000000000000000000000000000000000000000000000082169050919050565b61027e8161024a565b82525050565b5f6020820190506102975f830184610275565b92915050565b5f81519050919050565b5f82825260208201905092915050565b8281835e5f83830152505050565b5f601f19601f8301169050919050565b5f6102df8261029d565b6102e981856102a7565b93506102f98185602086016102b7565b610302816102c5565b840191505092915050565b5f6020820190508181035f83015261032581846102d5565b905092915050565b5f73ffffffffffffffffffffffffffffffffffffffff82169050919050565b5f6103568261032d565b9050919050565b6103668161034c565b82525050565b5f60208201905061037f5f83018461035d565b92915050565b5f819050919050565b61039781610385565b82525050565b5f6020820190506103b05f83018461038e565b92915050565b5f815f0b9050919050565b6103ca816103b6565b82525050565b5f6020820190506103e35f8301846103c1565b92915050565b5f819050919050565b6103fb816103e9565b82525050565b5f6020820190506104145f8301846103f2565b92915050565b5f60ff82169050919050565b61042f8161041a565b82525050565b5f6020820190506104485f830184610426565b92915050565b7f4e487b71000000000000000000000000000000000000000000000000000000005f52602260045260245ffd5b5f600282049050600182168061049257607f821691505b6020821081036104a5576104a461044e565b5b5091905056fea26469706673582212204c2962686cf0d7f025d14e3ed20f59556927ede3042432b49cad79fdc6836eba64736f6c634300081a0033",
					"opcodes": "PUSH1 0x80 PUSH1 0x40 MSTORE PUSH1 0x8 PUSH1 0x1 PUSH0 PUSH2 0x100 EXP DUP2 SLOAD DUP2 PUSH1 0xFF MUL NOT AND SWAP1 DUP4 PUSH1 0xFF AND MUL OR SWAP1 SSTORE POP PUSH1 0xFE PUSH1 0x2 SSTORE PUSH32 0xFFFFFFFFFFFFFFFFFFFFFFFFFFFFFFFFFFFFFFFFFFFFFFFFFFFFFFFFFFFFFFFF PUSH1 0x3 PUSH0 PUSH2 0x100 EXP DUP2 SLOAD DUP2 PUSH1 0xFF MUL NOT AND SWAP1 DUP4 PUSH0 SIGNEXTEND PUSH1 0xFF AND MUL OR SWAP1 SSTORE POP PUSH2 0x1C8 PUSH1 0x4 SSTORE PUSH20 0x1D870F1210E66CBA98093682B84D4491EC04141B PUSH1 0x5 PUSH0 PUSH2 0x100 EXP DUP2 SLOAD DUP2 PUSH20 0xFFFFFFFFFFFFFFFFFFFFFFFFFFFFFFFFFFFFFFFF MUL NOT AND SWAP1 DUP4 PUSH20 0xFFFFFFFFFFFFFFFFFFFFFFFFFFFFFFFFFFFFFFFF AND MUL OR SWAP1 SSTORE POP PUSH1 0xB5 PUSH1 0xF8 SHL PUSH1 0x5 PUSH1 0x14 PUSH2 0x100 EXP DUP2 SLOAD DUP2 PUSH1 0xFF MUL NOT AND SWAP1 DUP4 PUSH1 0xF8 SHR MUL OR SWAP1 SSTORE POP PUSH1 0x56 PUSH1 0xF8 SHL PUSH1 0x5 PUSH1 0x15 PUSH2 0x100 EXP DUP2 SLOAD DUP2 PUSH1 0xFF MUL NOT AND SWAP1 DUP4 PUSH1 0xF8 SHR MUL OR SWAP1 SSTORE POP CALLVALUE DUP1 ISZERO PUSH2 0x103 JUMPI PUSH0 DUP1 REVERT JUMPDEST POP PUSH1 0x40 MLOAD PUSH2 0xB71 CODESIZE SUB DUP1 PUSH2 0xB71 DUP4 CODECOPY DUP2 DUP2 ADD PUSH1 0x40 MSTORE DUP2 ADD SWAP1 PUSH2 0x125 SWAP2 SWAP1 PUSH2 0x2A6 JUMP JUMPDEST DUP1 PUSH1 0x40 MLOAD PUSH1 0x20 ADD PUSH2 0x136 SWAP2 SWAP1 PUSH2 0x37D JUMP JUMPDEST PUSH1 0x40 MLOAD PUSH1 0x20 DUP2 DUP4 SUB SUB DUP2 MSTORE SWAP1 PUSH1 0x40 MSTORE PUSH0 SWAP1 DUP2 PUSH2 0x152 SWAP2 SWAP1 PUSH2 0x5B4 JUMP JUMPDEST POP POP PUSH2 0x683 JUMP JUMPDEST PUSH0 PUSH1 0x40 MLOAD SWAP1 POP SWAP1 JUMP JUMPDEST PUSH0 DUP1 REVERT JUMPDEST PUSH0 DUP1 REVERT JUMPDEST PUSH0 DUP1 REVERT JUMPDEST PUSH0 DUP1 REVERT JUMPDEST PUSH0 PUSH1 0x1F NOT PUSH1 0x1F DUP4 ADD AND SWAP1 POP SWAP2 SWAP1 POP JUMP JUMPDEST PUSH32 0x4E487B7100000000000000000000000000000000000000000000000000000000 PUSH0 MSTORE PUSH1 0x41 PUSH1 0x4 MSTORE PUSH1 0x24 PUSH0 REVERT JUMPDEST PUSH2 0x1B8 DUP3 PUSH2 0x172 JUMP JUMPDEST DUP2 ADD DUP2 DUP2 LT PUSH8 0xFFFFFFFFFFFFFFFF DUP3 GT OR ISZERO PUSH2 0x1D7 JUMPI PUSH2 0x1D6 PUSH2 0x182 JUMP JUMPDEST JUMPDEST DUP1 PUSH1 0x40 MSTORE POP POP POP JUMP JUMPDEST PUSH0 PUSH2 0x1E9 PUSH2 0x159 JUMP JUMPDEST SWAP1 POP PUSH2 0x1F5 DUP3 DUP3 PUSH2 0x1AF JUMP JUMPDEST SWAP2 SWAP1 POP JUMP JUMPDEST PUSH0 PUSH8 0xFFFFFFFFFFFFFFFF DUP3 GT ISZERO PUSH2 0x214 JUMPI PUSH2 0x213 PUSH2 0x182 JUMP JUMPDEST JUMPDEST PUSH2 0x21D DUP3 PUSH2 0x172 JUMP JUMPDEST SWAP1 POP PUSH1 0x20 DUP2 ADD SWAP1 POP SWAP2 SWAP1 POP JUMP JUMPDEST DUP3 DUP2 DUP4 MCOPY PUSH0 DUP4 DUP4 ADD MSTORE POP POP POP JUMP JUMPDEST PUSH0 PUSH2 0x24A PUSH2 0x245 DUP5 PUSH2 0x1FA JUMP JUMPDEST PUSH2 0x1E0 JUMP JUMPDEST SWAP1 POP DUP3 DUP2 MSTORE PUSH1 0x20 DUP2 ADD DUP5 DUP5 DUP5 ADD GT ISZERO PUSH2 0x266 JUMPI PUSH2 0x265 PUSH2 0x16E JUMP JUMPDEST JUMPDEST PUSH2 0x271 DUP5 DUP3 DUP6 PUSH2 0x22A JUMP JUMPDEST POP SWAP4 SWAP3 POP POP POP JUMP JUMPDEST PUSH0 DUP3 PUSH1 0x1F DUP4 ADD SLT PUSH2 0x28D JUMPI PUSH2 0x28C PUSH2 0x16A JUMP JUMPDEST JUMPDEST DUP2 MLOAD PUSH2 0x29D DUP5 DUP3 PUSH1 0x20 DUP7 ADD PUSH2 0x238 JUMP JUMPDEST SWAP2 POP POP SWAP3 SWAP2 POP POP JUMP JUMPDEST PUSH0 PUSH1 0x20 DUP3 DUP5 SUB SLT ISZERO PUSH2 0x2BB JUMPI PUSH2 0x2BA PUSH2 0x162 JUMP JUMPDEST JUMPDEST PUSH0 DUP3 ADD MLOAD PUSH8 0xFFFFFFFFFFFFFFFF DUP2 GT ISZERO PUSH2 0x2D8 JUMPI PUSH2 0x2D7 PUSH2 0x166 JUMP JUMPDEST JUMPDEST PUSH2 0x2E4 DUP5 DUP3 DUP6 ADD PUSH2 0x279 JUMP JUMPDEST SWAP2 POP POP SWAP3 SWAP2 POP POP JUMP JUMPDEST PUSH32 0x4A75616E00000000000000000000000000000000000000000000000000000000 DUP2 MSTORE POP JUMP JUMPDEST PUSH32 0x2000000000000000000000000000000000000000000000000000000000000000 DUP2 MSTORE POP JUMP JUMPDEST PUSH0 DUP2 MLOAD SWAP1 POP SWAP2 SWAP1 POP JUMP JUMPDEST PUSH0 DUP2 SWAP1 POP SWAP3 SWAP2 POP POP JUMP JUMPDEST PUSH0 PUSH2 0x357 DUP3 PUSH2 0x339 JUMP JUMPDEST PUSH2 0x361 DUP2 DUP6 PUSH2 0x343 JUMP JUMPDEST SWAP4 POP PUSH2 0x371 DUP2 DUP6 PUSH1 0x20 DUP7 ADD PUSH2 0x22A JUMP JUMPDEST DUP1 DUP5 ADD SWAP2 POP POP SWAP3 SWAP2 POP POP JUMP JUMPDEST PUSH0 PUSH2 0x387 DUP3 PUSH2 0x2ED JUMP JUMPDEST PUSH1 0x4 DUP3 ADD SWAP2 POP PUSH2 0x396 DUP3 PUSH2 0x313 JUMP JUMPDEST PUSH1 0x1 DUP3 ADD SWAP2 POP PUSH2 0x3A6 DUP3 DUP5 PUSH2 0x34D JUMP JUMPDEST SWAP2 POP DUP2 SWAP1 POP SWAP3 SWAP2 POP POP JUMP JUMPDEST PUSH32 0x4E487B7100000000000000000000000000000000000000000000000000000000 PUSH0 MSTORE PUSH1 0x22 PUSH1 0x4 MSTORE PUSH1 0x24 PUSH0 REVERT JUMPDEST PUSH0 PUSH1 0x2 DUP3 DIV SWAP1 POP PUSH1 0x1 DUP3 AND DUP1 PUSH2 0x3F5 JUMPI PUSH1 0x7F DUP3 AND SWAP2 POP JUMPDEST PUSH1 0x20 DUP3 LT DUP2 SUB PUSH2 0x408 JUMPI PUSH2 0x407 PUSH2 0x3B1 JUMP JUMPDEST JUMPDEST POP SWAP2 SWAP1 POP JUMP JUMPDEST PUSH0 DUP2 SWAP1 POP DUP2 PUSH0 MSTORE PUSH1 0x20 PUSH0 KECCAK256 SWAP1 POP SWAP2 SWAP1 POP JUMP JUMPDEST PUSH0 PUSH1 0x20 PUSH1 0x1F DUP4 ADD DIV SWAP1 POP SWAP2 SWAP1 POP JUMP JUMPDEST PUSH0 DUP3 DUP3 SHL SWAP1 POP SWAP3 SWAP2 POP POP JUMP JUMPDEST PUSH0 PUSH1 0x8 DUP4 MUL PUSH2 0x46A PUSH32 0xFFFFFFFFFFFFFFFFFFFFFFFFFFFFFFFFFFFFFFFFFFFFFFFFFFFFFFFFFFFFFFFF DUP3 PUSH2 0x42F JUMP JUMPDEST PUSH2 0x474 DUP7 DUP4 PUSH2 0x42F JUMP JUMPDEST SWAP6 POP DUP1 NOT DUP5 AND SWAP4 POP DUP1 DUP7 AND DUP5 OR SWAP3 POP POP POP SWAP4 SWAP3 POP POP POP JUMP JUMPDEST PUSH0 DUP2 SWAP1 POP SWAP2 SWAP1 POP JUMP JUMPDEST PUSH0 DUP2 SWAP1 POP SWAP2 SWAP1 POP JUMP JUMPDEST PUSH0 PUSH2 0x4B8 PUSH2 0x4B3 PUSH2 0x4AE DUP5 PUSH2 0x48C JUMP JUMPDEST PUSH2 0x495 JUMP JUMPDEST PUSH2 0x48C JUMP JUMPDEST SWAP1 POP SWAP2 SWAP1 POP JUMP JUMPDEST PUSH0 DUP2 SWAP1 POP SWAP2 SWAP1 POP JUMP JUMPDEST PUSH2 0x4D1 DUP4 PUSH2 0x49E JUMP JUMPDEST PUSH2 0x4E5 PUSH2 0x4DD DUP3 PUSH2 0x4BF JUMP JUMPDEST DUP5 DUP5 SLOAD PUSH2 0x43B JUMP JUMPDEST DUP3 SSTORE POP POP POP POP JUMP JUMPDEST PUSH0 SWAP1 JUMP JUMPDEST PUSH2 0x4F9 PUSH2 0x4ED JUMP JUMPDEST PUSH2 0x504 DUP2 DUP5 DUP5 PUSH2 0x4C8 JUMP JUMPDEST POP POP POP JUMP JUMPDEST JUMPDEST DUP2 DUP2 LT ISZERO PUSH2 0x527 JUMPI PUSH2 0x51C PUSH0 DUP3 PUSH2 0x4F1 JUMP JUMPDEST PUSH1 0x1 DUP2 ADD SWAP1 POP PUSH2 0x50A JUMP JUMPDEST POP POP JUMP JUMPDEST PUSH1 0x1F DUP3 GT ISZERO PUSH2 0x56C JUMPI PUSH2 0x53D DUP2 PUSH2 0x40E JUMP JUMPDEST PUSH2 0x546 DUP5 PUSH2 0x420 JUMP JUMPDEST DUP2 ADD PUSH1 0x20 DUP6 LT ISZERO PUSH2 0x555 JUMPI DUP2 SWAP1 POP JUMPDEST PUSH2 0x569 PUSH2 0x561 DUP6 PUSH2 0x420 JUMP JUMPDEST DUP4 ADD DUP3 PUSH2 0x509 JUMP JUMPDEST POP POP JUMPDEST POP POP POP JUMP JUMPDEST PUSH0 DUP3 DUP3 SHR SWAP1 POP SWAP3 SWAP2 POP POP JUMP JUMPDEST PUSH0 PUSH2 0x58C PUSH0 NOT DUP5 PUSH1 0x8 MUL PUSH2 0x571 JUMP JUMPDEST NOT DUP1 DUP4 AND SWAP2 POP POP SWAP3 SWAP2 POP POP JUMP JUMPDEST PUSH0 PUSH2 0x5A4 DUP4 DUP4 PUSH2 0x57D JUMP JUMPDEST SWAP2 POP DUP3 PUSH1 0x2 MUL DUP3 OR SWAP1 POP SWAP3 SWAP2 POP POP JUMP JUMPDEST PUSH2 0x5BD DUP3 PUSH2 0x339 JUMP JUMPDEST PUSH8 0xFFFFFFFFFFFFFFFF DUP2 GT ISZERO PUSH2 0x5D6 JUMPI PUSH2 0x5D5 PUSH2 0x182 JUMP JUMPDEST JUMPDEST PUSH2 0x5E0 DUP3 SLOAD PUSH2 0x3DE JUMP JUMPDEST PUSH2 0x5EB DUP3 DUP3 DUP6 PUSH2 0x52B JUMP JUMPDEST PUSH0 PUSH1 0x20 SWAP1 POP PUSH1 0x1F DUP4 GT PUSH1 0x1 DUP2 EQ PUSH2 0x61C JUMPI PUSH0 DUP5 ISZERO PUSH2 0x60A JUMPI DUP3 DUP8 ADD MLOAD SWAP1 POP JUMPDEST PUSH2 0x614 DUP6 DUP3 PUSH2 0x599 JUMP JUMPDEST DUP7 SSTORE POP PUSH2 0x67B JUMP JUMPDEST PUSH1 0x1F NOT DUP5 AND PUSH2 0x62A DUP7 PUSH2 0x40E JUMP JUMPDEST PUSH0 JUMPDEST DUP3 DUP2 LT ISZERO PUSH2 0x651 JUMPI DUP5 DUP10 ADD MLOAD DUP3 SSTORE PUSH1 0x1 DUP3 ADD SWAP2 POP PUSH1 0x20 DUP6 ADD SWAP5 POP PUSH1 0x20 DUP2 ADD SWAP1 POP PUSH2 0x62C JUMP JUMPDEST DUP7 DUP4 LT ISZERO PUSH2 0x66E JUMPI DUP5 DUP10 ADD MLOAD PUSH2 0x66A PUSH1 0x1F DUP10 AND DUP3 PUSH2 0x57D JUMP JUMPDEST DUP4 SSTORE POP JUMPDEST PUSH1 0x1 PUSH1 0x2 DUP9 MUL ADD DUP9 SSTORE POP POP POP JUMPDEST POP POP POP POP POP POP JUMP JUMPDEST PUSH2 0x4E1 DUP1 PUSH2 0x690 PUSH0 CODECOPY PUSH0 RETURN INVALID PUSH1 0x80 PUSH1 0x40 MSTORE CALLVALUE DUP1 ISZERO PUSH2 0xF JUMPI PUSH0 DUP1 REVERT JUMPDEST POP PUSH1 0x4 CALLDATASIZE LT PUSH2 0x7B JUMPI PUSH0 CALLDATALOAD PUSH1 0xE0 SHR DUP1 PUSH4 0xCE410D53 GT PUSH2 0x59 JUMPI DUP1 PUSH4 0xCE410D53 EQ PUSH2 0xD9 JUMPI DUP1 PUSH4 0xDF77A62E EQ PUSH2 0xF7 JUMPI DUP1 PUSH4 0xF7AE9171 EQ PUSH2 0x115 JUMPI DUP1 PUSH4 0xF950FC6D EQ PUSH2 0x133 JUMPI PUSH2 0x7B JUMP JUMPDEST DUP1 PUSH4 0xBCD3B33 EQ PUSH2 0x7F JUMPI DUP1 PUSH4 0x17D7DE7C EQ PUSH2 0x9D JUMPI DUP1 PUSH4 0x38304639 EQ PUSH2 0xBB JUMPI JUMPDEST PUSH0 DUP1 REVERT JUMPDEST PUSH2 0x87 PUSH2 0x151 JUMP JUMPDEST PUSH1 0x40 MLOAD PUSH2 0x94 SWAP2 SWAP1 PUSH2 0x284 JUMP JUMPDEST PUSH1 0x40 MLOAD DUP1 SWAP2 SUB SWAP1 RETURN JUMPDEST PUSH2 0xA5 PUSH2 0x167 JUMP JUMPDEST PUSH1 0x40 MLOAD PUSH2 0xB2 SWAP2 SWAP1 PUSH2 0x30D JUMP JUMPDEST PUSH1 0x40 MLOAD DUP1 SWAP2 SUB SWAP1 RETURN JUMPDEST PUSH2 0xC3 PUSH2 0x1F6 JUMP JUMPDEST PUSH1 0x40 MLOAD PUSH2 0xD0 SWAP2 SWAP1 PUSH2 0x36C JUMP JUMPDEST PUSH1 0x40 MLOAD DUP1 SWAP2 SUB SWAP1 RETURN JUMPDEST PUSH2 0xE1 PUSH2 0x21B JUMP JUMPDEST PUSH1 0x40 MLOAD PUSH2 0xEE SWAP2 SWAP1 PUSH2 0x39D JUMP JUMPDEST PUSH1 0x40 MLOAD DUP1 SWAP2 SUB SWAP1 RETURN JUMPDEST PUSH2 0xFF PUSH2 0x221 JUMP JUMPDEST PUSH1 0x40 MLOAD PUSH2 0x10C SWAP2 SWAP1 PUSH2 0x3D0 JUMP JUMPDEST PUSH1 0x40 MLOAD DUP1 SWAP2 SUB SWAP1 RETURN JUMPDEST PUSH2 0x11D PUSH2 0x232 JUMP JUMPDEST PUSH1 0x40 MLOAD PUSH2 0x12A SWAP2 SWAP1 PUSH2 0x401 JUMP JUMPDEST PUSH1 0x40 MLOAD DUP1 SWAP2 SUB SWAP1 RETURN JUMPDEST PUSH2 0x13B PUSH2 0x238 JUMP JUMPDEST PUSH1 0x40 MLOAD PUSH2 0x148 SWAP2 SWAP1 PUSH2 0x435 JUMP JUMPDEST PUSH1 0x40 MLOAD DUP1 SWAP2 SUB SWAP1 RETURN JUMPDEST PUSH0 PUSH1 0x5 PUSH1 0x16 SWAP1 SLOAD SWAP1 PUSH2 0x100 EXP SWAP1 DIV PUSH1 0xF8 SHL SWAP1 POP SWAP1 JUMP JUMPDEST PUSH1 0x60 PUSH0 DUP1 SLOAD PUSH2 0x175 SWAP1 PUSH2 0x47B JUMP JUMPDEST DUP1 PUSH1 0x1F ADD PUSH1 0x20 DUP1 SWAP2 DIV MUL PUSH1 0x20 ADD PUSH1 0x40 MLOAD SWAP1 DUP2 ADD PUSH1 0x40 MSTORE DUP1 SWAP3 SWAP2 SWAP1 DUP2 DUP2 MSTORE PUSH1 0x20 ADD DUP3 DUP1 SLOAD PUSH2 0x1A1 SWAP1 PUSH2 0x47B JUMP JUMPDEST DUP1 ISZERO PUSH2 0x1EC JUMPI DUP1 PUSH1 0x1F LT PUSH2 0x1C3 JUMPI PUSH2 0x100 DUP1 DUP4 SLOAD DIV MUL DUP4 MSTORE SWAP2 PUSH1 0x20 ADD SWAP2 PUSH2 0x1EC JUMP JUMPDEST DUP3 ADD SWAP2 SWAP1 PUSH0 MSTORE PUSH1 0x20 PUSH0 KECCAK256 SWAP1 JUMPDEST DUP2 SLOAD DUP2 MSTORE SWAP1 PUSH1 0x1 ADD SWAP1 PUSH1 0x20 ADD DUP1 DUP4 GT PUSH2 0x1CF JUMPI DUP3 SWAP1 SUB PUSH1 0x1F AND DUP3 ADD SWAP2 JUMPDEST POP POP POP POP POP SWAP1 POP SWAP1 JUMP JUMPDEST PUSH1 0x5 PUSH0 SWAP1 SLOAD SWAP1 PUSH2 0x100 EXP SWAP1 DIV PUSH20 0xFFFFFFFFFFFFFFFFFFFFFFFFFFFFFFFFFFFFFFFF AND DUP2 JUMP JUMPDEST PUSH1 0x2 SLOAD DUP2 JUMP JUMPDEST PUSH1 0x3 PUSH0 SWAP1 SLOAD SWAP1 PUSH2 0x100 EXP SWAP1 DIV PUSH0 SIGNEXTEND DUP2 JUMP JUMPDEST PUSH1 0x4 SLOAD DUP2 JUMP JUMPDEST PUSH1 0x1 PUSH0 SWAP1 SLOAD SWAP1 PUSH2 0x100 EXP SWAP1 DIV PUSH1 0xFF AND DUP2 JUMP JUMPDEST PUSH0 PUSH32 0xFF00000000000000000000000000000000000000000000000000000000000000 DUP3 AND SWAP1 POP SWAP2 SWAP1 POP JUMP JUMPDEST PUSH2 0x27E DUP2 PUSH2 0x24A JUMP JUMPDEST DUP3 MSTORE POP POP JUMP JUMPDEST PUSH0 PUSH1 0x20 DUP3 ADD SWAP1 POP PUSH2 0x297 PUSH0 DUP4 ADD DUP5 PUSH2 0x275 JUMP JUMPDEST SWAP3 SWAP2 POP POP JUMP JUMPDEST PUSH0 DUP2 MLOAD SWAP1 POP SWAP2 SWAP1 POP JUMP JUMPDEST PUSH0 DUP3 DUP3 MSTORE PUSH1 0x20 DUP3 ADD SWAP1 POP SWAP3 SWAP2 POP POP JUMP JUMPDEST DUP3 DUP2 DUP4 MCOPY PUSH0 DUP4 DUP4 ADD MSTORE POP POP POP JUMP JUMPDEST PUSH0 PUSH1 0x1F NOT PUSH1 0x1F DUP4 ADD AND SWAP1 POP SWAP2 SWAP1 POP JUMP JUMPDEST PUSH0 PUSH2 0x2DF DUP3 PUSH2 0x29D JUMP JUMPDEST PUSH2 0x2E9 DUP2 DUP6 PUSH2 0x2A7 JUMP JUMPDEST SWAP4 POP PUSH2 0x2F9 DUP2 DUP6 PUSH1 0x20 DUP7 ADD PUSH2 0x2B7 JUMP JUMPDEST PUSH2 0x302 DUP2 PUSH2 0x2C5 JUMP JUMPDEST DUP5 ADD SWAP2 POP POP SWAP3 SWAP2 POP POP JUMP JUMPDEST PUSH0 PUSH1 0x20 DUP3 ADD SWAP1 POP DUP2 DUP2 SUB PUSH0 DUP4 ADD MSTORE PUSH2 0x325 DUP2 DUP5 PUSH2 0x2D5 JUMP JUMPDEST SWAP1 POP SWAP3 SWAP2 POP POP JUMP JUMPDEST PUSH0 PUSH20 0xFFFFFFFFFFFFFFFFFFFFFFFFFFFFFFFFFFFFFFFF DUP3 AND SWAP1 POP SWAP2 SWAP1 POP JUMP JUMPDEST PUSH0 PUSH2 0x356 DUP3 PUSH2 0x32D JUMP JUMPDEST SWAP1 POP SWAP2 SWAP1 POP JUMP JUMPDEST PUSH2 0x366 DUP2 PUSH2 0x34C JUMP JUMPDEST DUP3 MSTORE POP POP JUMP JUMPDEST PUSH0 PUSH1 0x20 DUP3 ADD SWAP1 POP PUSH2 0x37F PUSH0 DUP4 ADD DUP5 PUSH2 0x35D JUMP JUMPDEST SWAP3 SWAP2 POP POP JUMP JUMPDEST PUSH0 DUP2 SWAP1 POP SWAP2 SWAP1 POP JUMP JUMPDEST PUSH2 0x397 DUP2 PUSH2 0x385 JUMP JUMPDEST DUP3 MSTORE POP POP JUMP JUMPDEST PUSH0 PUSH1 0x20 DUP3 ADD SWAP1 POP PUSH2 0x3B0 PUSH0 DUP4 ADD DUP5 PUSH2 0x38E JUMP JUMPDEST SWAP3 SWAP2 POP POP JUMP JUMPDEST PUSH0 DUP2 PUSH0 SIGNEXTEND SWAP1 POP SWAP2 SWAP1 POP JUMP JUMPDEST PUSH2 0x3CA DUP2 PUSH2 0x3B6 JUMP JUMPDEST DUP3 MSTORE POP POP JUMP JUMPDEST PUSH0 PUSH1 0x20 DUP3 ADD SWAP1 POP PUSH2 0x3E3 PUSH0 DUP4 ADD DUP5 PUSH2 0x3C1 JUMP JUMPDEST SWAP3 SWAP2 POP POP JUMP JUMPDEST PUSH0 DUP2 SWAP1 POP SWAP2 SWAP1 POP JUMP JUMPDEST PUSH2 0x3FB DUP2 PUSH2 0x3E9 JUMP JUMPDEST DUP3 MSTORE POP POP JUMP JUMPDEST PUSH0 PUSH1 0x20 DUP3 ADD SWAP1 POP PUSH2 0x414 PUSH0 DUP4 ADD DUP5 PUSH2 0x3F2 JUMP JUMPDEST SWAP3 SWAP2 POP POP JUMP JUMPDEST PUSH0 PUSH1 0xFF DUP3 AND SWAP1 POP SWAP2 SWAP1 POP JUMP JUMPDEST PUSH2 0x42F DUP2 PUSH2 0x41A JUMP JUMPDEST DUP3 MSTORE POP POP JUMP JUMPDEST PUSH0 PUSH1 0x20 DUP3 ADD SWAP1 POP PUSH2 0x448 PUSH0 DUP4 ADD DUP5 PUSH2 0x426 JUMP JUMPDEST SWAP3 SWAP2 POP POP JUMP JUMPDEST PUSH32 0x4E487B7100000000000000000000000000000000000000000000000000000000 PUSH0 MSTORE PUSH1 0x22 PUSH1 0x4 MSTORE PUSH1 0x24 PUSH0 REVERT JUMPDEST PUSH0 PUSH1 0x2 DUP3 DIV SWAP1 POP PUSH1 0x1 DUP3 AND DUP1 PUSH2 0x492 JUMPI PUSH1 0x7F DUP3 AND SWAP2 POP JUMPDEST PUSH1 0x20 DUP3 LT DUP2 SUB PUSH2 0x4A5 JUMPI PUSH2 0x4A4 PUSH2 0x44E JUMP JUMPDEST JUMPDEST POP SWAP2 SWAP1 POP JUMP INVALID LOG2 PUSH5 0x6970667358 0x22 SLT KECCAK256 0x4C 0x29 PUSH3 0x686CF0 0xD7 CREATE 0x25 0xD1 0x4E RETURNDATACOPY 0xD2 0xF MSIZE SSTORE PUSH10 0x27EDE3042432B49CAD79 REVERT 0xC6 DUP4 PUSH15 0xBA64736F6C634300081A0033000000 "
				},
				"gasEstimates": {
					"creation": {
						"codeDepositCost": "249800",
						"executionCost": "infinite",
						"totalCost": "infinite"
					},
					"external": {
						"address_var()": "2553",
						"getBytes()": "2525",
						"getName()": "infinite",
						"int_256()": "2469",
						"int_8()": "2490",
						"uint_256()": "2425",
						"uint_8()": "2532"
					}
				},
				"methodIdentifiers": {
					"address_var()": "38304639",
					"getBytes()": "0bcd3b33",
					"getName()": "17d7de7c",
					"int_256()": "f7ae9171",
					"int_8()": "df77a62e",
					"uint_256()": "ce410d53",
					"uint_8()": "f950fc6d"
				}
			},
			"storageLayout": {
				"storage": [
					{
						"astId": 3,
						"contract": "variables_nativas.sol:variables_nativas",
						"label": "full_name",
						"offset": 0,
						"slot": "0",
						"type": "t_string_storage"
					},
					{
						"astId": 30,
						"contract": "variables_nativas.sol:variables_nativas",
						"label": "uint_8",
						"offset": 0,
						"slot": "1",
						"type": "t_uint8"
					},
					{
						"astId": 33,
						"contract": "variables_nativas.sol:variables_nativas",
						"label": "uint_256",
						"offset": 0,
						"slot": "2",
						"type": "t_uint256"
					},
					{
						"astId": 37,
						"contract": "variables_nativas.sol:variables_nativas",
						"label": "int_8",
						"offset": 0,
						"slot": "3",
						"type": "t_int8"
					},
					{
						"astId": 40,
						"contract": "variables_nativas.sol:variables_nativas",
						"label": "int_256",
						"offset": 0,
						"slot": "4",
						"type": "t_int256"
					},
					{
						"astId": 43,
						"contract": "variables_nativas.sol:variables_nativas",
						"label": "address_var",
						"offset": 0,
						"slot": "5",
						"type": "t_address"
					},
					{
						"astId": 46,
						"contract": "variables_nativas.sol:variables_nativas",
						"label": "a_var",
						"offset": 20,
						"slot": "5",
						"type": "t_bytes1"
					},
					{
						"astId": 49,
						"contract": "variables_nativas.sol:variables_nativas",
						"label": "b_var",
						"offset": 21,
						"slot": "5",
						"type": "t_bytes1"
					},
					{
						"astId": 51,
						"contract": "variables_nativas.sol:variables_nativas",
						"label": "c_var",
						"offset": 22,
						"slot": "5",
						"type": "t_bytes1"
					}
				],
				"types": {
					"t_address": {
						"encoding": "inplace",
						"label": "address",
						"numberOfBytes": "20"
					},
					"t_bytes1": {
						"encoding": "inplace",
						"label": "bytes1",
						"numberOfBytes": "1"
					},
					"t_int256": {
						"encoding": "inplace",
						"label": "int256",
						"numberOfBytes": "32"
					},
					"t_int8": {
						"encoding": "inplace",
						"label": "int8",
						"numberOfBytes": "1"
					},
					"t_string_storage": {
						"encoding": "bytes",
						"label": "string",
						"numberOfBytes": "32"
					},
					"t_uint256": {
						"encoding": "inplace",
						"label": "uint256",
						"numberOfBytes": "32"
					},
					"t_uint8": {
						"encoding": "inplace",
						"label": "uint8",
						"numberOfBytes": "1"
					}
				}
			},
			"userdoc": {
				"kind": "user",
				"methods": {},
				"version": 1
			}
		}
	}
}