{
	"tc_avax.sol": {
		"tc_avax": {
			"abi": [
				{
					"inputs": [],
					"stateMutability": "nonpayable",
					"type": "constructor"
				},
				{
					"anonymous": false,
					"inputs": [
						{
							"indexed": false,
							"internalType": "string",
							"name": "date",
							"type": "string"
						},
						{
							"indexed": false,
							"internalType": "string",
							"name": "delivery_date",
							"type": "string"
						},
						{
							"indexed": false,
							"internalType": "string",
							"name": "product",
							"type": "string"
						},
						{
							"indexed": false,
							"internalType": "string",
							"name": "price",
							"type": "string"
						},
						{
							"indexed": false,
							"internalType": "string",
							"name": "code",
							"type": "string"
						},
						{
							"indexed": false,
							"internalType": "string",
							"name": "cel_number",
							"type": "string"
						},
						{
							"indexed": false,
							"internalType": "int8",
							"name": "status",
							"type": "int8"
						},
						{
							"indexed": false,
							"internalType": "address",
							"name": "wallet",
							"type": "address"
						}
					],
					"name": "new_data",
					"type": "event"
				},
				{
					"inputs": [],
					"name": "data",
					"outputs": [
						{
							"internalType": "string",
							"name": "date",
							"type": "string"
						},
						{
							"internalType": "string",
							"name": "delivery_date",
							"type": "string"
						},
						{
							"internalType": "string",
							"name": "product",
							"type": "string"
						},
						{
							"internalType": "string",
							"name": "price",
							"type": "string"
						},
						{
							"internalType": "string",
							"name": "code",
							"type": "string"
						},
						{
							"internalType": "string",
							"name": "cel_number",
							"type": "string"
						},
						{
							"internalType": "int8",
							"name": "status",
							"type": "int8"
						},
						{
							"internalType": "address",
							"name": "wallet",
							"type": "address"
						}
					],
					"stateMutability": "view",
					"type": "function"
				},
				{
					"inputs": [],
					"name": "get_balance",
					"outputs": [
						{
							"internalType": "uint256",
							"name": "",
							"type": "uint256"
						}
					],
					"stateMutability": "view",
					"type": "function"
				},
				{
					"inputs": [],
					"name": "owner",
					"outputs": [
						{
							"internalType": "address payable",
							"name": "",
							"type": "address"
						}
					],
					"stateMutability": "view",
					"type": "function"
				},
				{
					"inputs": [
						{
							"internalType": "string",
							"name": "_date",
							"type": "string"
						},
						{
							"internalType": "string",
							"name": "_delivery_date",
							"type": "string"
						},
						{
							"internalType": "string",
							"name": "_product",
							"type": "string"
						},
						{
							"internalType": "string",
							"name": "_price",
							"type": "string"
						},
						{
							"internalType": "string",
							"name": "_code",
							"type": "string"
						},
						{
							"internalType": "string",
							"name": "_cel_number",
							"type": "string"
						},
						{
							"internalType": "int8",
							"name": "_status",
							"type": "int8"
						}
					],
					"name": "push_Data",
					"outputs": [],
					"stateMutability": "payable",
					"type": "function"
				},
				{
					"inputs": [],
					"name": "withdraw",
					"outputs": [],
					"stateMutability": "nonpayable",
					"type": "function"
				}
			],
			"devdoc": {
				"kind": "dev",
				"methods": {},
				"version": 1
			},
			"evm": {
				"assembly": "    /* \"tc_avax.sol\":61:2380  contract tc_avax{... */\n  mstore(0x40, 0x80)\n    /* \"tc_avax.sol\":1112:1172  constructor() {... */\n  callvalue\n  dup1\n  iszero\n  tag_1\n  jumpi\n  0x00\n  dup1\n  revert\ntag_1:\n  pop\n    /* \"tc_avax.sol\":1153:1163  msg.sender */\n  caller\n    /* \"tc_avax.sol\":1137:1142  owner */\n  0x00\n  dup1\n    /* \"tc_avax.sol\":1137:1164  owner = payable(msg.sender) */\n  0x0100\n  exp\n  dup2\n  sload\n  dup2\n  0xffffffffffffffffffffffffffffffffffffffff\n  mul\n  not\n  and\n  swap1\n  dup4\n  0xffffffffffffffffffffffffffffffffffffffff\n  and\n  mul\n  or\n  swap1\n  sstore\n  pop\n    /* \"tc_avax.sol\":61:2380  contract tc_avax{... */\n  dataSize(sub_0)\n  dup1\n  dataOffset(sub_0)\n  0x00\n  codecopy\n  0x00\n  return\nstop\n\nsub_0: assembly {\n        /* \"tc_avax.sol\":61:2380  contract tc_avax{... */\n      mstore(0x40, 0x80)\n      jumpi(tag_1, lt(calldatasize, 0x04))\n      shr(0xe0, calldataload(0x00))\n      dup1\n      0x3ccfd60b\n      eq\n      tag_2\n      jumpi\n      dup1\n      0x73d4a13a\n      eq\n      tag_3\n      jumpi\n      dup1\n      0x8da5cb5b\n      eq\n      tag_4\n      jumpi\n      dup1\n      0xc1cfb99a\n      eq\n      tag_5\n      jumpi\n      dup1\n      0xd076f50b\n      eq\n      tag_6\n      jumpi\n    tag_1:\n      0x00\n      dup1\n      revert\n        /* \"tc_avax.sol\":1989:2199  function withdraw() public only_owner {... */\n    tag_2:\n      callvalue\n      dup1\n      iszero\n      tag_7\n      jumpi\n      0x00\n      dup1\n      revert\n    tag_7:\n      pop\n      tag_8\n      tag_9\n      jump\t// in\n    tag_8:\n      stop\n        /* \"tc_avax.sol\":415:431  Data public data */\n    tag_3:\n      callvalue\n      dup1\n      iszero\n      tag_10\n      jumpi\n      0x00\n      dup1\n      revert\n    tag_10:\n      pop\n      tag_11\n      tag_12\n      jump\t// in\n    tag_11:\n      mload(0x40)\n      tag_13\n      swap9\n      swap8\n      swap7\n      swap6\n      swap5\n      swap4\n      swap3\n      swap2\n      swap1\n      tag_14\n      jump\t// in\n    tag_13:\n      mload(0x40)\n      dup1\n      swap2\n      sub\n      swap1\n      return\n        /* \"tc_avax.sol\":153:181  address payable public owner */\n    tag_4:\n      callvalue\n      dup1\n      iszero\n      tag_15\n      jumpi\n      0x00\n      dup1\n      revert\n    tag_15:\n      pop\n      tag_16\n      tag_17\n      jump\t// in\n    tag_16:\n      mload(0x40)\n      tag_18\n      swap2\n      swap1\n      tag_19\n      jump\t// in\n    tag_18:\n      mload(0x40)\n      dup1\n      swap2\n      sub\n      swap1\n      return\n        /* \"tc_avax.sol\":2278:2377  function get_balance() public view returns (uint256){... */\n    tag_5:\n      callvalue\n      dup1\n      iszero\n      tag_20\n      jumpi\n      0x00\n      dup1\n      revert\n    tag_20:\n      pop\n      tag_21\n      tag_22\n      jump\t// in\n    tag_21:\n      mload(0x40)\n      tag_23\n      swap2\n      swap1\n      tag_24\n      jump\t// in\n    tag_23:\n      mload(0x40)\n      dup1\n      swap2\n      sub\n      swap1\n      return\n        /* \"tc_avax.sol\":1228:1937  function push_Data(string memory _date,... */\n    tag_6:\n      tag_25\n      0x04\n      dup1\n      calldatasize\n      sub\n      dup2\n      add\n      swap1\n      tag_26\n      swap2\n      swap1\n      tag_27\n      jump\t// in\n    tag_26:\n      tag_28\n      jump\t// in\n    tag_25:\n      stop\n        /* \"tc_avax.sol\":1989:2199  function withdraw() public only_owner {... */\n    tag_9:\n        /* \"tc_avax.sol\":1037:1042  owner */\n      0x00\n      dup1\n      sload\n      swap1\n      0x0100\n      exp\n      swap1\n      div\n      0xffffffffffffffffffffffffffffffffffffffff\n      and\n        /* \"tc_avax.sol\":1023:1042  msg.sender == owner */\n      0xffffffffffffffffffffffffffffffffffffffff\n      and\n        /* \"tc_avax.sol\":1023:1033  msg.sender */\n      caller\n        /* \"tc_avax.sol\":1023:1042  msg.sender == owner */\n      0xffffffffffffffffffffffffffffffffffffffff\n      and\n      eq\n        /* \"tc_avax.sol\":1015:1084  require(msg.sender == owner, \"Only the owner can withdraw the funds\") */\n      tag_30\n      jumpi\n      mload(0x40)\n      0x08c379a000000000000000000000000000000000000000000000000000000000\n      dup2\n      mstore\n      0x04\n      add\n      tag_31\n      swap1\n      tag_32\n      jump\t// in\n    tag_31:\n      mload(0x40)\n      dup1\n      swap2\n      sub\n      swap1\n      revert\n    tag_30:\n        /* \"tc_avax.sol\":2038:2050  uint balance */\n      0x00\n        /* \"tc_avax.sol\":2053:2074  address(this).balance */\n      selfbalance\n        /* \"tc_avax.sol\":2038:2074  uint balance = address(this).balance */\n      swap1\n      pop\n        /* \"tc_avax.sol\":2103:2104  0 */\n      0x00\n        /* \"tc_avax.sol\":2093:2100  balance */\n      dup2\n        /* \"tc_avax.sol\":2093:2104  balance > 0 */\n      gt\n        /* \"tc_avax.sol\":2085:2155  require(balance > 0, \"There are no funds in the contract to withdraw\") */\n      tag_34\n      jumpi\n      mload(0x40)\n      0x08c379a000000000000000000000000000000000000000000000000000000000\n      dup2\n      mstore\n      0x04\n      add\n      tag_35\n      swap1\n      tag_36\n      jump\t// in\n    tag_35:\n      mload(0x40)\n      dup1\n      swap2\n      sub\n      swap1\n      revert\n    tag_34:\n        /* \"tc_avax.sol\":2168:2173  owner */\n      0x00\n      dup1\n      sload\n      swap1\n      0x0100\n      exp\n      swap1\n      div\n      0xffffffffffffffffffffffffffffffffffffffff\n      and\n        /* \"tc_avax.sol\":2168:2182  owner.transfer */\n      0xffffffffffffffffffffffffffffffffffffffff\n      and\n        /* \"tc_avax.sol\":2168:2191  owner.transfer(balance) */\n      0x08fc\n        /* \"tc_avax.sol\":2183:2190  balance */\n      dup3\n        /* \"tc_avax.sol\":2168:2191  owner.transfer(balance) */\n      swap1\n      dup2\n      iszero\n      mul\n      swap1\n      mload(0x40)\n      0x00\n      mload(0x40)\n      dup1\n      dup4\n      sub\n      dup2\n      dup6\n      dup9\n      dup9\n      call\n      swap4\n      pop\n      pop\n      pop\n      pop\n      iszero\n      dup1\n      iszero\n      tag_38\n      jumpi\n      returndatasize\n      0x00\n      dup1\n      returndatacopy\n      revert(0x00, returndatasize)\n    tag_38:\n      pop\n        /* \"tc_avax.sol\":2027:2199  {... */\n      pop\n        /* \"tc_avax.sol\":1989:2199  function withdraw() public only_owner {... */\n      jump\t// out\n        /* \"tc_avax.sol\":415:431  Data public data */\n    tag_12:\n      0x01\n      dup1\n      0x00\n      add\n      dup1\n      sload\n      tag_39\n      swap1\n      tag_40\n      jump\t// in\n    tag_39:\n      dup1\n      0x1f\n      add\n      0x20\n      dup1\n      swap2\n      div\n      mul\n      0x20\n      add\n      mload(0x40)\n      swap1\n      dup2\n      add\n      0x40\n      mstore\n      dup1\n      swap3\n      swap2\n      swap1\n      dup2\n      dup2\n      mstore\n      0x20\n      add\n      dup3\n      dup1\n      sload\n      tag_41\n      swap1\n      tag_40\n      jump\t// in\n    tag_41:\n      dup1\n      iszero\n      tag_42\n      jumpi\n      dup1\n      0x1f\n      lt\n      tag_43\n      jumpi\n      0x0100\n      dup1\n      dup4\n      sload\n      div\n      mul\n      dup4\n      mstore\n      swap2\n      0x20\n      add\n      swap2\n      jump(tag_42)\n    tag_43:\n      dup3\n      add\n      swap2\n      swap1\n      0x00\n      mstore\n      keccak256(0x00, 0x20)\n      swap1\n    tag_44:\n      dup2\n      sload\n      dup2\n      mstore\n      swap1\n      0x01\n      add\n      swap1\n      0x20\n      add\n      dup1\n      dup4\n      gt\n      tag_44\n      jumpi\n      dup3\n      swap1\n      sub\n      0x1f\n      and\n      dup3\n      add\n      swap2\n    tag_42:\n      pop\n      pop\n      pop\n      pop\n      pop\n      swap1\n      dup1\n      0x01\n      add\n      dup1\n      sload\n      tag_45\n      swap1\n      tag_40\n      jump\t// in\n    tag_45:\n      dup1\n      0x1f\n      add\n      0x20\n      dup1\n      swap2\n      div\n      mul\n      0x20\n      add\n      mload(0x40)\n      swap1\n      dup2\n      add\n      0x40\n      mstore\n      dup1\n      swap3\n      swap2\n      swap1\n      dup2\n      dup2\n      mstore\n      0x20\n      add\n      dup3\n      dup1\n      sload\n      tag_46\n      swap1\n      tag_40\n      jump\t// in\n    tag_46:\n      dup1\n      iszero\n      tag_47\n      jumpi\n      dup1\n      0x1f\n      lt\n      tag_48\n      jumpi\n      0x0100\n      dup1\n      dup4\n      sload\n      div\n      mul\n      dup4\n      mstore\n      swap2\n      0x20\n      add\n      swap2\n      jump(tag_47)\n    tag_48:\n      dup3\n      add\n      swap2\n      swap1\n      0x00\n      mstore\n      keccak256(0x00, 0x20)\n      swap1\n    tag_49:\n      dup2\n      sload\n      dup2\n      mstore\n      swap1\n      0x01\n      add\n      swap1\n      0x20\n      add\n      dup1\n      dup4\n      gt\n      tag_49\n      jumpi\n      dup3\n      swap1\n      sub\n      0x1f\n      and\n      dup3\n      add\n      swap2\n    tag_47:\n      pop\n      pop\n      pop\n      pop\n      pop\n      swap1\n      dup1\n      0x02\n      add\n      dup1\n      sload\n      tag_50\n      swap1\n      tag_40\n      jump\t// in\n    tag_50:\n      dup1\n      0x1f\n      add\n      0x20\n      dup1\n      swap2\n      div\n      mul\n      0x20\n      add\n      mload(0x40)\n      swap1\n      dup2\n      add\n      0x40\n      mstore\n      dup1\n      swap3\n      swap2\n      swap1\n      dup2\n      dup2\n      mstore\n      0x20\n      add\n      dup3\n      dup1\n      sload\n      tag_51\n      swap1\n      tag_40\n      jump\t// in\n    tag_51:\n      dup1\n      iszero\n      tag_52\n      jumpi\n      dup1\n      0x1f\n      lt\n      tag_53\n      jumpi\n      0x0100\n      dup1\n      dup4\n      sload\n      div\n      mul\n      dup4\n      mstore\n      swap2\n      0x20\n      add\n      swap2\n      jump(tag_52)\n    tag_53:\n      dup3\n      add\n      swap2\n      swap1\n      0x00\n      mstore\n      keccak256(0x00, 0x20)\n      swap1\n    tag_54:\n      dup2\n      sload\n      dup2\n      mstore\n      swap1\n      0x01\n      add\n      swap1\n      0x20\n      add\n      dup1\n      dup4\n      gt\n      tag_54\n      jumpi\n      dup3\n      swap1\n      sub\n      0x1f\n      and\n      dup3\n      add\n      swap2\n    tag_52:\n      pop\n      pop\n      pop\n      pop\n      pop\n      swap1\n      dup1\n      0x03\n      add\n      dup1\n      sload\n      tag_55\n      swap1\n      tag_40\n      jump\t// in\n    tag_55:\n      dup1\n      0x1f\n      add\n      0x20\n      dup1\n      swap2\n      div\n      mul\n      0x20\n      add\n      mload(0x40)\n      swap1\n      dup2\n      add\n      0x40\n      mstore\n      dup1\n      swap3\n      swap2\n      swap1\n      dup2\n      dup2\n      mstore\n      0x20\n      add\n      dup3\n      dup1\n      sload\n      tag_56\n      swap1\n      tag_40\n      jump\t// in\n    tag_56:\n      dup1\n      iszero\n      tag_57\n      jumpi\n      dup1\n      0x1f\n      lt\n      tag_58\n      jumpi\n      0x0100\n      dup1\n      dup4\n      sload\n      div\n      mul\n      dup4\n      mstore\n      swap2\n      0x20\n      add\n      swap2\n      jump(tag_57)\n    tag_58:\n      dup3\n      add\n      swap2\n      swap1\n      0x00\n      mstore\n      keccak256(0x00, 0x20)\n      swap1\n    tag_59:\n      dup2\n      sload\n      dup2\n      mstore\n      swap1\n      0x01\n      add\n      swap1\n      0x20\n      add\n      dup1\n      dup4\n      gt\n      tag_59\n      jumpi\n      dup3\n      swap1\n      sub\n      0x1f\n      and\n      dup3\n      add\n      swap2\n    tag_57:\n      pop\n      pop\n      pop\n      pop\n      pop\n      swap1\n      dup1\n      0x04\n      add\n      dup1\n      sload\n      tag_60\n      swap1\n      tag_40\n      jump\t// in\n    tag_60:\n      dup1\n      0x1f\n      add\n      0x20\n      dup1\n      swap2\n      div\n      mul\n      0x20\n      add\n      mload(0x40)\n      swap1\n      dup2\n      add\n      0x40\n      mstore\n      dup1\n      swap3\n      swap2\n      swap1\n      dup2\n      dup2\n      mstore\n      0x20\n      add\n      dup3\n      dup1\n      sload\n      tag_61\n      swap1\n      tag_40\n      jump\t// in\n    tag_61:\n      dup1\n      iszero\n      tag_62\n      jumpi\n      dup1\n      0x1f\n      lt\n      tag_63\n      jumpi\n      0x0100\n      dup1\n      dup4\n      sload\n      div\n      mul\n      dup4\n      mstore\n      swap2\n      0x20\n      add\n      swap2\n      jump(tag_62)\n    tag_63:\n      dup3\n      add\n      swap2\n      swap1\n      0x00\n      mstore\n      keccak256(0x00, 0x20)\n      swap1\n    tag_64:\n      dup2\n      sload\n      dup2\n      mstore\n      swap1\n      0x01\n      add\n      swap1\n      0x20\n      add\n      dup1\n      dup4\n      gt\n      tag_64\n      jumpi\n      dup3\n      swap1\n      sub\n      0x1f\n      and\n      dup3\n      add\n      swap2\n    tag_62:\n      pop\n      pop\n      pop\n      pop\n      pop\n      swap1\n      dup1\n      0x05\n      add\n      dup1\n      sload\n      tag_65\n      swap1\n      tag_40\n      jump\t// in\n    tag_65:\n      dup1\n      0x1f\n      add\n      0x20\n      dup1\n      swap2\n      div\n      mul\n      0x20\n      add\n      mload(0x40)\n      swap1\n      dup2\n      add\n      0x40\n      mstore\n      dup1\n      swap3\n      swap2\n      swap1\n      dup2\n      dup2\n      mstore\n      0x20\n      add\n      dup3\n      dup1\n      sload\n      tag_66\n      swap1\n      tag_40\n      jump\t// in\n    tag_66:\n      dup1\n      iszero\n      tag_67\n      jumpi\n      dup1\n      0x1f\n      lt\n      tag_68\n      jumpi\n      0x0100\n      dup1\n      dup4\n      sload\n      div\n      mul\n      dup4\n      mstore\n      swap2\n      0x20\n      add\n      swap2\n      jump(tag_67)\n    tag_68:\n      dup3\n      add\n      swap2\n      swap1\n      0x00\n      mstore\n      keccak256(0x00, 0x20)\n      swap1\n    tag_69:\n      dup2\n      sload\n      dup2\n      mstore\n      swap1\n      0x01\n      add\n      swap1\n      0x20\n      add\n      dup1\n      dup4\n      gt\n      tag_69\n      jumpi\n      dup3\n      swap1\n      sub\n      0x1f\n      and\n      dup3\n      add\n      swap2\n    tag_67:\n      pop\n      pop\n      pop\n      pop\n      pop\n      swap1\n      dup1\n      0x06\n      add\n      0x00\n      swap1\n      sload\n      swap1\n      0x0100\n      exp\n      swap1\n      div\n      0x00\n      signextend\n      swap1\n      dup1\n      0x06\n      add\n      0x01\n      swap1\n      sload\n      swap1\n      0x0100\n      exp\n      swap1\n      div\n      0xffffffffffffffffffffffffffffffffffffffff\n      and\n      swap1\n      pop\n      dup9\n      jump\t// out\n        /* \"tc_avax.sol\":153:181  address payable public owner */\n    tag_17:\n      0x00\n      dup1\n      sload\n      swap1\n      0x0100\n      exp\n      swap1\n      div\n      0xffffffffffffffffffffffffffffffffffffffff\n      and\n      dup2\n      jump\t// out\n        /* \"tc_avax.sol\":2278:2377  function get_balance() public view returns (uint256){... */\n    tag_22:\n        /* \"tc_avax.sol\":2322:2329  uint256 */\n      0x00\n        /* \"tc_avax.sol\":2348:2369  address(this).balance */\n      selfbalance\n        /* \"tc_avax.sol\":2341:2369  return address(this).balance */\n      swap1\n      pop\n        /* \"tc_avax.sol\":2278:2377  function get_balance() public view returns (uint256){... */\n      swap1\n      jump\t// out\n        /* \"tc_avax.sol\":1228:1937  function push_Data(string memory _date,... */\n    tag_28:\n        /* \"tc_avax.sol\":1570:1588  100000000000000000 */\n      0x016345785d8a0000\n        /* \"tc_avax.sol\":831:837  amount */\n      dup1\n        /* \"tc_avax.sol\":818:827  msg.value */\n      callvalue\n        /* \"tc_avax.sol\":818:837  msg.value >= amount */\n      lt\n      iszero\n        /* \"tc_avax.sol\":810:878  require(msg.value >= amount, \"Missing Avax to execute the contract\") */\n      tag_72\n      jumpi\n      mload(0x40)\n      0x08c379a000000000000000000000000000000000000000000000000000000000\n      dup2\n      mstore\n      0x04\n      add\n      tag_73\n      swap1\n      tag_74\n      jump\t// in\n    tag_73:\n      mload(0x40)\n      dup1\n      swap2\n      sub\n      swap1\n      revert\n    tag_72:\n        /* \"tc_avax.sol\":1608:1821  Data( _date,... */\n      mload(0x40)\n      dup1\n      0x0100\n      add\n      0x40\n      mstore\n      dup1\n        /* \"tc_avax.sol\":1614:1619  _date */\n      dup10\n        /* \"tc_avax.sol\":1608:1821  Data( _date,... */\n      dup2\n      mstore\n      0x20\n      add\n        /* \"tc_avax.sol\":1642:1656  _delivery_date */\n      dup9\n        /* \"tc_avax.sol\":1608:1821  Data( _date,... */\n      dup2\n      mstore\n      0x20\n      add\n        /* \"tc_avax.sol\":1679:1687  _product */\n      dup8\n        /* \"tc_avax.sol\":1608:1821  Data( _date,... */\n      dup2\n      mstore\n      0x20\n      add\n        /* \"tc_avax.sol\":1710:1716  _price */\n      dup7\n        /* \"tc_avax.sol\":1608:1821  Data( _date,... */\n      dup2\n      mstore\n      0x20\n      add\n        /* \"tc_avax.sol\":1739:1744  _code */\n      dup6\n        /* \"tc_avax.sol\":1608:1821  Data( _date,... */\n      dup2\n      mstore\n      0x20\n      add\n        /* \"tc_avax.sol\":1767:1778  _cel_number */\n      dup5\n        /* \"tc_avax.sol\":1608:1821  Data( _date,... */\n      dup2\n      mstore\n      0x20\n      add\n        /* \"tc_avax.sol\":1801:1808  _status */\n      dup4\n        /* \"tc_avax.sol\":1608:1821  Data( _date,... */\n      0x00\n      signextend\n      dup2\n      mstore\n      0x20\n      add\n        /* \"tc_avax.sol\":1810:1820  msg.sender */\n      caller\n        /* \"tc_avax.sol\":1608:1821  Data( _date,... */\n      0xffffffffffffffffffffffffffffffffffffffff\n      and\n      dup2\n      mstore\n      pop\n        /* \"tc_avax.sol\":1601:1605  data */\n      0x01\n        /* \"tc_avax.sol\":1601:1821  data = Data( _date,... */\n      0x00\n      dup3\n      add\n      mload\n      dup2\n      0x00\n      add\n      swap1\n      dup2\n      tag_76\n      swap2\n      swap1\n      tag_77\n      jump\t// in\n    tag_76:\n      pop\n      0x20\n      dup3\n      add\n      mload\n      dup2\n      0x01\n      add\n      swap1\n      dup2\n      tag_78\n      swap2\n      swap1\n      tag_77\n      jump\t// in\n    tag_78:\n      pop\n      0x40\n      dup3\n      add\n      mload\n      dup2\n      0x02\n      add\n      swap1\n      dup2\n      tag_79\n      swap2\n      swap1\n      tag_77\n      jump\t// in\n    tag_79:\n      pop\n      0x60\n      dup3\n      add\n      mload\n      dup2\n      0x03\n      add\n      swap1\n      dup2\n      tag_80\n      swap2\n      swap1\n      tag_77\n      jump\t// in\n    tag_80:\n      pop\n      0x80\n      dup3\n      add\n      mload\n      dup2\n      0x04\n      add\n      swap1\n      dup2\n      tag_81\n      swap2\n      swap1\n      tag_77\n      jump\t// in\n    tag_81:\n      pop\n      0xa0\n      dup3\n      add\n      mload\n      dup2\n      0x05\n      add\n      swap1\n      dup2\n      tag_82\n      swap2\n      swap1\n      tag_77\n      jump\t// in\n    tag_82:\n      pop\n      0xc0\n      dup3\n      add\n      mload\n      dup2\n      0x06\n      add\n      exp(0x0100, 0x00)\n      dup2\n      sload\n      dup2\n      0xff\n      mul\n      not\n      and\n      swap1\n      dup4\n      0x00\n      signextend\n      0xff\n      and\n      mul\n      or\n      swap1\n      sstore\n      pop\n      0xe0\n      dup3\n      add\n      mload\n      dup2\n      0x06\n      add\n      exp(0x0100, 0x01)\n      dup2\n      sload\n      dup2\n      0xffffffffffffffffffffffffffffffffffffffff\n      mul\n      not\n      and\n      swap1\n      dup4\n      0xffffffffffffffffffffffffffffffffffffffff\n      and\n      mul\n      or\n      swap1\n      sstore\n      pop\n      swap1\n      pop\n      pop\n        /* \"tc_avax.sol\":1839:1929  new_data(_date, _delivery_date, _product, _price, _code, _cel_number, _status, msg.sender) */\n      0x1bf9c9853026c8e484b64b006e5b1d67e66ec7934fcafdeef46a7c657b93cade\n        /* \"tc_avax.sol\":1848:1853  _date */\n      dup9\n        /* \"tc_avax.sol\":1855:1869  _delivery_date */\n      dup9\n        /* \"tc_avax.sol\":1871:1879  _product */\n      dup9\n        /* \"tc_avax.sol\":1881:1887  _price */\n      dup9\n        /* \"tc_avax.sol\":1889:1894  _code */\n      dup9\n        /* \"tc_avax.sol\":1896:1907  _cel_number */\n      dup9\n        /* \"tc_avax.sol\":1909:1916  _status */\n      dup9\n        /* \"tc_avax.sol\":1918:1928  msg.sender */\n      caller\n        /* \"tc_avax.sol\":1839:1929  new_data(_date, _delivery_date, _product, _price, _code, _cel_number, _status, msg.sender) */\n      mload(0x40)\n      tag_83\n      swap9\n      swap8\n      swap7\n      swap6\n      swap5\n      swap4\n      swap3\n      swap2\n      swap1\n      tag_14\n      jump\t// in\n    tag_83:\n      mload(0x40)\n      dup1\n      swap2\n      sub\n      swap1\n      log1\n        /* \"tc_avax.sol\":1228:1937  function push_Data(string memory _date,... */\n      pop\n      pop\n      pop\n      pop\n      pop\n      pop\n      pop\n      pop\n      jump\t// out\n        /* \"#utility.yul\":7:106   */\n    tag_84:\n        /* \"#utility.yul\":59:65   */\n      0x00\n        /* \"#utility.yul\":93:98   */\n      dup2\n        /* \"#utility.yul\":87:99   */\n      mload\n        /* \"#utility.yul\":77:99   */\n      swap1\n      pop\n        /* \"#utility.yul\":7:106   */\n      swap2\n      swap1\n      pop\n      jump\t// out\n        /* \"#utility.yul\":112:281   */\n    tag_85:\n        /* \"#utility.yul\":196:207   */\n      0x00\n        /* \"#utility.yul\":230:236   */\n      dup3\n        /* \"#utility.yul\":225:228   */\n      dup3\n        /* \"#utility.yul\":218:237   */\n      mstore\n        /* \"#utility.yul\":270:274   */\n      0x20\n        /* \"#utility.yul\":265:268   */\n      dup3\n        /* \"#utility.yul\":261:275   */\n      add\n        /* \"#utility.yul\":246:275   */\n      swap1\n      pop\n        /* \"#utility.yul\":112:281   */\n      swap3\n      swap2\n      pop\n      pop\n      jump\t// out\n        /* \"#utility.yul\":287:426   */\n    tag_86:\n        /* \"#utility.yul\":376:382   */\n      dup3\n        /* \"#utility.yul\":371:374   */\n      dup2\n        /* \"#utility.yul\":366:369   */\n      dup4\n        /* \"#utility.yul\":360:383   */\n      mcopy\n        /* \"#utility.yul\":417:418   */\n      0x00\n        /* \"#utility.yul\":408:414   */\n      dup4\n        /* \"#utility.yul\":403:406   */\n      dup4\n        /* \"#utility.yul\":399:415   */\n      add\n        /* \"#utility.yul\":392:419   */\n      mstore\n        /* \"#utility.yul\":287:426   */\n      pop\n      pop\n      pop\n      jump\t// out\n        /* \"#utility.yul\":432:534   */\n    tag_87:\n        /* \"#utility.yul\":473:479   */\n      0x00\n        /* \"#utility.yul\":524:526   */\n      0x1f\n        /* \"#utility.yul\":520:527   */\n      not\n        /* \"#utility.yul\":515:517   */\n      0x1f\n        /* \"#utility.yul\":508:513   */\n      dup4\n        /* \"#utility.yul\":504:518   */\n      add\n        /* \"#utility.yul\":500:528   */\n      and\n        /* \"#utility.yul\":490:528   */\n      swap1\n      pop\n        /* \"#utility.yul\":432:534   */\n      swap2\n      swap1\n      pop\n      jump\t// out\n        /* \"#utility.yul\":540:917   */\n    tag_88:\n        /* \"#utility.yul\":628:631   */\n      0x00\n        /* \"#utility.yul\":656:695   */\n      tag_140\n        /* \"#utility.yul\":689:694   */\n      dup3\n        /* \"#utility.yul\":656:695   */\n      tag_84\n      jump\t// in\n    tag_140:\n        /* \"#utility.yul\":711:782   */\n      tag_141\n        /* \"#utility.yul\":775:781   */\n      dup2\n        /* \"#utility.yul\":770:773   */\n      dup6\n        /* \"#utility.yul\":711:782   */\n      tag_85\n      jump\t// in\n    tag_141:\n        /* \"#utility.yul\":704:782   */\n      swap4\n      pop\n        /* \"#utility.yul\":791:856   */\n      tag_142\n        /* \"#utility.yul\":849:855   */\n      dup2\n        /* \"#utility.yul\":844:847   */\n      dup6\n        /* \"#utility.yul\":837:841   */\n      0x20\n        /* \"#utility.yul\":830:835   */\n      dup7\n        /* \"#utility.yul\":826:842   */\n      add\n        /* \"#utility.yul\":791:856   */\n      tag_86\n      jump\t// in\n    tag_142:\n        /* \"#utility.yul\":881:910   */\n      tag_143\n        /* \"#utility.yul\":903:909   */\n      dup2\n        /* \"#utility.yul\":881:910   */\n      tag_87\n      jump\t// in\n    tag_143:\n        /* \"#utility.yul\":876:879   */\n      dup5\n        /* \"#utility.yul\":872:911   */\n      add\n        /* \"#utility.yul\":865:911   */\n      swap2\n      pop\n        /* \"#utility.yul\":632:917   */\n      pop\n        /* \"#utility.yul\":540:917   */\n      swap3\n      swap2\n      pop\n      pop\n      jump\t// out\n        /* \"#utility.yul\":923:1012   */\n    tag_89:\n        /* \"#utility.yul\":957:964   */\n      0x00\n        /* \"#utility.yul\":1000:1005   */\n      dup2\n        /* \"#utility.yul\":997:998   */\n      0x00\n        /* \"#utility.yul\":986:1006   */\n      signextend\n        /* \"#utility.yul\":975:1006   */\n      swap1\n      pop\n        /* \"#utility.yul\":923:1012   */\n      swap2\n      swap1\n      pop\n      jump\t// out\n        /* \"#utility.yul\":1018:1127   */\n    tag_90:\n        /* \"#utility.yul\":1099:1120   */\n      tag_146\n        /* \"#utility.yul\":1114:1119   */\n      dup2\n        /* \"#utility.yul\":1099:1120   */\n      tag_89\n      jump\t// in\n    tag_146:\n        /* \"#utility.yul\":1094:1097   */\n      dup3\n        /* \"#utility.yul\":1087:1121   */\n      mstore\n        /* \"#utility.yul\":1018:1127   */\n      pop\n      pop\n      jump\t// out\n        /* \"#utility.yul\":1133:1259   */\n    tag_91:\n        /* \"#utility.yul\":1170:1177   */\n      0x00\n        /* \"#utility.yul\":1210:1252   */\n      0xffffffffffffffffffffffffffffffffffffffff\n        /* \"#utility.yul\":1203:1208   */\n      dup3\n        /* \"#utility.yul\":1199:1253   */\n      and\n        /* \"#utility.yul\":1188:1253   */\n      swap1\n      pop\n        /* \"#utility.yul\":1133:1259   */\n      swap2\n      swap1\n      pop\n      jump\t// out\n        /* \"#utility.yul\":1265:1361   */\n    tag_92:\n        /* \"#utility.yul\":1302:1309   */\n      0x00\n        /* \"#utility.yul\":1331:1355   */\n      tag_149\n        /* \"#utility.yul\":1349:1354   */\n      dup3\n        /* \"#utility.yul\":1331:1355   */\n      tag_91\n      jump\t// in\n    tag_149:\n        /* \"#utility.yul\":1320:1355   */\n      swap1\n      pop\n        /* \"#utility.yul\":1265:1361   */\n      swap2\n      swap1\n      pop\n      jump\t// out\n        /* \"#utility.yul\":1367:1485   */\n    tag_93:\n        /* \"#utility.yul\":1454:1478   */\n      tag_151\n        /* \"#utility.yul\":1472:1477   */\n      dup2\n        /* \"#utility.yul\":1454:1478   */\n      tag_92\n      jump\t// in\n    tag_151:\n        /* \"#utility.yul\":1449:1452   */\n      dup3\n        /* \"#utility.yul\":1442:1479   */\n      mstore\n        /* \"#utility.yul\":1367:1485   */\n      pop\n      pop\n      jump\t// out\n        /* \"#utility.yul\":1491:3022   */\n    tag_14:\n        /* \"#utility.yul\":1894:1898   */\n      0x00\n        /* \"#utility.yul\":1932:1935   */\n      0x0100\n        /* \"#utility.yul\":1921:1930   */\n      dup3\n        /* \"#utility.yul\":1917:1936   */\n      add\n        /* \"#utility.yul\":1909:1936   */\n      swap1\n      pop\n        /* \"#utility.yul\":1982:1991   */\n      dup2\n        /* \"#utility.yul\":1976:1980   */\n      dup2\n        /* \"#utility.yul\":1972:1992   */\n      sub\n        /* \"#utility.yul\":1968:1969   */\n      0x00\n        /* \"#utility.yul\":1957:1966   */\n      dup4\n        /* \"#utility.yul\":1953:1970   */\n      add\n        /* \"#utility.yul\":1946:1993   */\n      mstore\n        /* \"#utility.yul\":2010:2088   */\n      tag_153\n        /* \"#utility.yul\":2083:2087   */\n      dup2\n        /* \"#utility.yul\":2074:2080   */\n      dup12\n        /* \"#utility.yul\":2010:2088   */\n      tag_88\n      jump\t// in\n    tag_153:\n        /* \"#utility.yul\":2002:2088   */\n      swap1\n      pop\n        /* \"#utility.yul\":2135:2144   */\n      dup2\n        /* \"#utility.yul\":2129:2133   */\n      dup2\n        /* \"#utility.yul\":2125:2145   */\n      sub\n        /* \"#utility.yul\":2120:2122   */\n      0x20\n        /* \"#utility.yul\":2109:2118   */\n      dup4\n        /* \"#utility.yul\":2105:2123   */\n      add\n        /* \"#utility.yul\":2098:2146   */\n      mstore\n        /* \"#utility.yul\":2163:2241   */\n      tag_154\n        /* \"#utility.yul\":2236:2240   */\n      dup2\n        /* \"#utility.yul\":2227:2233   */\n      dup11\n        /* \"#utility.yul\":2163:2241   */\n      tag_88\n      jump\t// in\n    tag_154:\n        /* \"#utility.yul\":2155:2241   */\n      swap1\n      pop\n        /* \"#utility.yul\":2288:2297   */\n      dup2\n        /* \"#utility.yul\":2282:2286   */\n      dup2\n        /* \"#utility.yul\":2278:2298   */\n      sub\n        /* \"#utility.yul\":2273:2275   */\n      0x40\n        /* \"#utility.yul\":2262:2271   */\n      dup4\n        /* \"#utility.yul\":2258:2276   */\n      add\n        /* \"#utility.yul\":2251:2299   */\n      mstore\n        /* \"#utility.yul\":2316:2394   */\n      tag_155\n        /* \"#utility.yul\":2389:2393   */\n      dup2\n        /* \"#utility.yul\":2380:2386   */\n      dup10\n        /* \"#utility.yul\":2316:2394   */\n      tag_88\n      jump\t// in\n    tag_155:\n        /* \"#utility.yul\":2308:2394   */\n      swap1\n      pop\n        /* \"#utility.yul\":2441:2450   */\n      dup2\n        /* \"#utility.yul\":2435:2439   */\n      dup2\n        /* \"#utility.yul\":2431:2451   */\n      sub\n        /* \"#utility.yul\":2426:2428   */\n      0x60\n        /* \"#utility.yul\":2415:2424   */\n      dup4\n        /* \"#utility.yul\":2411:2429   */\n      add\n        /* \"#utility.yul\":2404:2452   */\n      mstore\n        /* \"#utility.yul\":2469:2547   */\n      tag_156\n        /* \"#utility.yul\":2542:2546   */\n      dup2\n        /* \"#utility.yul\":2533:2539   */\n      dup9\n        /* \"#utility.yul\":2469:2547   */\n      tag_88\n      jump\t// in\n    tag_156:\n        /* \"#utility.yul\":2461:2547   */\n      swap1\n      pop\n        /* \"#utility.yul\":2595:2604   */\n      dup2\n        /* \"#utility.yul\":2589:2593   */\n      dup2\n        /* \"#utility.yul\":2585:2605   */\n      sub\n        /* \"#utility.yul\":2579:2582   */\n      0x80\n        /* \"#utility.yul\":2568:2577   */\n      dup4\n        /* \"#utility.yul\":2564:2583   */\n      add\n        /* \"#utility.yul\":2557:2606   */\n      mstore\n        /* \"#utility.yul\":2623:2701   */\n      tag_157\n        /* \"#utility.yul\":2696:2700   */\n      dup2\n        /* \"#utility.yul\":2687:2693   */\n      dup8\n        /* \"#utility.yul\":2623:2701   */\n      tag_88\n      jump\t// in\n    tag_157:\n        /* \"#utility.yul\":2615:2701   */\n      swap1\n      pop\n        /* \"#utility.yul\":2749:2758   */\n      dup2\n        /* \"#utility.yul\":2743:2747   */\n      dup2\n        /* \"#utility.yul\":2739:2759   */\n      sub\n        /* \"#utility.yul\":2733:2736   */\n      0xa0\n        /* \"#utility.yul\":2722:2731   */\n      dup4\n        /* \"#utility.yul\":2718:2737   */\n      add\n        /* \"#utility.yul\":2711:2760   */\n      mstore\n        /* \"#utility.yul\":2777:2855   */\n      tag_158\n        /* \"#utility.yul\":2850:2854   */\n      dup2\n        /* \"#utility.yul\":2841:2847   */\n      dup7\n        /* \"#utility.yul\":2777:2855   */\n      tag_88\n      jump\t// in\n    tag_158:\n        /* \"#utility.yul\":2769:2855   */\n      swap1\n      pop\n        /* \"#utility.yul\":2865:2932   */\n      tag_159\n        /* \"#utility.yul\":2927:2930   */\n      0xc0\n        /* \"#utility.yul\":2916:2925   */\n      dup4\n        /* \"#utility.yul\":2912:2931   */\n      add\n        /* \"#utility.yul\":2903:2909   */\n      dup6\n        /* \"#utility.yul\":2865:2932   */\n      tag_90\n      jump\t// in\n    tag_159:\n        /* \"#utility.yul\":2942:3015   */\n      tag_160\n        /* \"#utility.yul\":3010:3013   */\n      0xe0\n        /* \"#utility.yul\":2999:3008   */\n      dup4\n        /* \"#utility.yul\":2995:3014   */\n      add\n        /* \"#utility.yul\":2986:2992   */\n      dup5\n        /* \"#utility.yul\":2942:3015   */\n      tag_93\n      jump\t// in\n    tag_160:\n        /* \"#utility.yul\":1491:3022   */\n      swap10\n      swap9\n      pop\n      pop\n      pop\n      pop\n      pop\n      pop\n      pop\n      pop\n      pop\n      jump\t// out\n        /* \"#utility.yul\":3028:3132   */\n    tag_94:\n        /* \"#utility.yul\":3073:3080   */\n      0x00\n        /* \"#utility.yul\":3102:3126   */\n      tag_162\n        /* \"#utility.yul\":3120:3125   */\n      dup3\n        /* \"#utility.yul\":3102:3126   */\n      tag_91\n      jump\t// in\n    tag_162:\n        /* \"#utility.yul\":3091:3126   */\n      swap1\n      pop\n        /* \"#utility.yul\":3028:3132   */\n      swap2\n      swap1\n      pop\n      jump\t// out\n        /* \"#utility.yul\":3138:3280   */\n    tag_95:\n        /* \"#utility.yul\":3241:3273   */\n      tag_164\n        /* \"#utility.yul\":3267:3272   */\n      dup2\n        /* \"#utility.yul\":3241:3273   */\n      tag_94\n      jump\t// in\n    tag_164:\n        /* \"#utility.yul\":3236:3239   */\n      dup3\n        /* \"#utility.yul\":3229:3274   */\n      mstore\n        /* \"#utility.yul\":3138:3280   */\n      pop\n      pop\n      jump\t// out\n        /* \"#utility.yul\":3286:3540   */\n    tag_19:\n        /* \"#utility.yul\":3395:3399   */\n      0x00\n        /* \"#utility.yul\":3433:3435   */\n      0x20\n        /* \"#utility.yul\":3422:3431   */\n      dup3\n        /* \"#utility.yul\":3418:3436   */\n      add\n        /* \"#utility.yul\":3410:3436   */\n      swap1\n      pop\n        /* \"#utility.yul\":3446:3533   */\n      tag_166\n        /* \"#utility.yul\":3530:3531   */\n      0x00\n        /* \"#utility.yul\":3519:3528   */\n      dup4\n        /* \"#utility.yul\":3515:3532   */\n      add\n        /* \"#utility.yul\":3506:3512   */\n      dup5\n        /* \"#utility.yul\":3446:3533   */\n      tag_95\n      jump\t// in\n    tag_166:\n        /* \"#utility.yul\":3286:3540   */\n      swap3\n      swap2\n      pop\n      pop\n      jump\t// out\n        /* \"#utility.yul\":3546:3623   */\n    tag_96:\n        /* \"#utility.yul\":3583:3590   */\n      0x00\n        /* \"#utility.yul\":3612:3617   */\n      dup2\n        /* \"#utility.yul\":3601:3617   */\n      swap1\n      pop\n        /* \"#utility.yul\":3546:3623   */\n      swap2\n      swap1\n      pop\n      jump\t// out\n        /* \"#utility.yul\":3629:3747   */\n    tag_97:\n        /* \"#utility.yul\":3716:3740   */\n      tag_169\n        /* \"#utility.yul\":3734:3739   */\n      dup2\n        /* \"#utility.yul\":3716:3740   */\n      tag_96\n      jump\t// in\n    tag_169:\n        /* \"#utility.yul\":3711:3714   */\n      dup3\n        /* \"#utility.yul\":3704:3741   */\n      mstore\n        /* \"#utility.yul\":3629:3747   */\n      pop\n      pop\n      jump\t// out\n        /* \"#utility.yul\":3753:3975   */\n    tag_24:\n        /* \"#utility.yul\":3846:3850   */\n      0x00\n        /* \"#utility.yul\":3884:3886   */\n      0x20\n        /* \"#utility.yul\":3873:3882   */\n      dup3\n        /* \"#utility.yul\":3869:3887   */\n      add\n        /* \"#utility.yul\":3861:3887   */\n      swap1\n      pop\n        /* \"#utility.yul\":3897:3968   */\n      tag_171\n        /* \"#utility.yul\":3965:3966   */\n      0x00\n        /* \"#utility.yul\":3954:3963   */\n      dup4\n        /* \"#utility.yul\":3950:3967   */\n      add\n        /* \"#utility.yul\":3941:3947   */\n      dup5\n        /* \"#utility.yul\":3897:3968   */\n      tag_97\n      jump\t// in\n    tag_171:\n        /* \"#utility.yul\":3753:3975   */\n      swap3\n      swap2\n      pop\n      pop\n      jump\t// out\n        /* \"#utility.yul\":3981:4056   */\n    tag_98:\n        /* \"#utility.yul\":4014:4020   */\n      0x00\n        /* \"#utility.yul\":4047:4049   */\n      0x40\n        /* \"#utility.yul\":4041:4050   */\n      mload\n        /* \"#utility.yul\":4031:4050   */\n      swap1\n      pop\n        /* \"#utility.yul\":3981:4056   */\n      swap1\n      jump\t// out\n        /* \"#utility.yul\":4062:4179   */\n    tag_99:\n        /* \"#utility.yul\":4171:4172   */\n      0x00\n        /* \"#utility.yul\":4168:4169   */\n      dup1\n        /* \"#utility.yul\":4161:4173   */\n      revert\n        /* \"#utility.yul\":4185:4302   */\n    tag_100:\n        /* \"#utility.yul\":4294:4295   */\n      0x00\n        /* \"#utility.yul\":4291:4292   */\n      dup1\n        /* \"#utility.yul\":4284:4296   */\n      revert\n        /* \"#utility.yul\":4308:4425   */\n    tag_101:\n        /* \"#utility.yul\":4417:4418   */\n      0x00\n        /* \"#utility.yul\":4414:4415   */\n      dup1\n        /* \"#utility.yul\":4407:4419   */\n      revert\n        /* \"#utility.yul\":4431:4548   */\n    tag_102:\n        /* \"#utility.yul\":4540:4541   */\n      0x00\n        /* \"#utility.yul\":4537:4538   */\n      dup1\n        /* \"#utility.yul\":4530:4542   */\n      revert\n        /* \"#utility.yul\":4554:4734   */\n    tag_103:\n        /* \"#utility.yul\":4602:4679   */\n      0x4e487b7100000000000000000000000000000000000000000000000000000000\n        /* \"#utility.yul\":4599:4600   */\n      0x00\n        /* \"#utility.yul\":4592:4680   */\n      mstore\n        /* \"#utility.yul\":4699:4703   */\n      0x41\n        /* \"#utility.yul\":4696:4697   */\n      0x04\n        /* \"#utility.yul\":4689:4704   */\n      mstore\n        /* \"#utility.yul\":4723:4727   */\n      0x24\n        /* \"#utility.yul\":4720:4721   */\n      0x00\n        /* \"#utility.yul\":4713:4728   */\n      revert\n        /* \"#utility.yul\":4740:5021   */\n    tag_104:\n        /* \"#utility.yul\":4823:4850   */\n      tag_179\n        /* \"#utility.yul\":4845:4849   */\n      dup3\n        /* \"#utility.yul\":4823:4850   */\n      tag_87\n      jump\t// in\n    tag_179:\n        /* \"#utility.yul\":4815:4821   */\n      dup2\n        /* \"#utility.yul\":4811:4851   */\n      add\n        /* \"#utility.yul\":4953:4959   */\n      dup2\n        /* \"#utility.yul\":4941:4951   */\n      dup2\n        /* \"#utility.yul\":4938:4960   */\n      lt\n        /* \"#utility.yul\":4917:4935   */\n      0xffffffffffffffff\n        /* \"#utility.yul\":4905:4915   */\n      dup3\n        /* \"#utility.yul\":4902:4936   */\n      gt\n        /* \"#utility.yul\":4899:4961   */\n      or\n        /* \"#utility.yul\":4896:4984   */\n      iszero\n      tag_180\n      jumpi\n        /* \"#utility.yul\":4964:4982   */\n      tag_181\n      tag_103\n      jump\t// in\n    tag_181:\n        /* \"#utility.yul\":4896:4984   */\n    tag_180:\n        /* \"#utility.yul\":5004:5014   */\n      dup1\n        /* \"#utility.yul\":5000:5002   */\n      0x40\n        /* \"#utility.yul\":4993:5015   */\n      mstore\n        /* \"#utility.yul\":4783:5021   */\n      pop\n        /* \"#utility.yul\":4740:5021   */\n      pop\n      pop\n      jump\t// out\n        /* \"#utility.yul\":5027:5156   */\n    tag_105:\n        /* \"#utility.yul\":5061:5067   */\n      0x00\n        /* \"#utility.yul\":5088:5108   */\n      tag_183\n      tag_98\n      jump\t// in\n    tag_183:\n        /* \"#utility.yul\":5078:5108   */\n      swap1\n      pop\n        /* \"#utility.yul\":5117:5150   */\n      tag_184\n        /* \"#utility.yul\":5145:5149   */\n      dup3\n        /* \"#utility.yul\":5137:5143   */\n      dup3\n        /* \"#utility.yul\":5117:5150   */\n      tag_104\n      jump\t// in\n    tag_184:\n        /* \"#utility.yul\":5027:5156   */\n      swap2\n      swap1\n      pop\n      jump\t// out\n        /* \"#utility.yul\":5162:5470   */\n    tag_106:\n        /* \"#utility.yul\":5224:5228   */\n      0x00\n        /* \"#utility.yul\":5314:5332   */\n      0xffffffffffffffff\n        /* \"#utility.yul\":5306:5312   */\n      dup3\n        /* \"#utility.yul\":5303:5333   */\n      gt\n        /* \"#utility.yul\":5300:5356   */\n      iszero\n      tag_186\n      jumpi\n        /* \"#utility.yul\":5336:5354   */\n      tag_187\n      tag_103\n      jump\t// in\n    tag_187:\n        /* \"#utility.yul\":5300:5356   */\n    tag_186:\n        /* \"#utility.yul\":5374:5403   */\n      tag_188\n        /* \"#utility.yul\":5396:5402   */\n      dup3\n        /* \"#utility.yul\":5374:5403   */\n      tag_87\n      jump\t// in\n    tag_188:\n        /* \"#utility.yul\":5366:5403   */\n      swap1\n      pop\n        /* \"#utility.yul\":5458:5462   */\n      0x20\n        /* \"#utility.yul\":5452:5456   */\n      dup2\n        /* \"#utility.yul\":5448:5463   */\n      add\n        /* \"#utility.yul\":5440:5463   */\n      swap1\n      pop\n        /* \"#utility.yul\":5162:5470   */\n      swap2\n      swap1\n      pop\n      jump\t// out\n        /* \"#utility.yul\":5476:5624   */\n    tag_107:\n        /* \"#utility.yul\":5574:5580   */\n      dup3\n        /* \"#utility.yul\":5569:5572   */\n      dup2\n        /* \"#utility.yul\":5564:5567   */\n      dup4\n        /* \"#utility.yul\":5551:5581   */\n      calldatacopy\n        /* \"#utility.yul\":5615:5616   */\n      0x00\n        /* \"#utility.yul\":5606:5612   */\n      dup4\n        /* \"#utility.yul\":5601:5604   */\n      dup4\n        /* \"#utility.yul\":5597:5613   */\n      add\n        /* \"#utility.yul\":5590:5617   */\n      mstore\n        /* \"#utility.yul\":5476:5624   */\n      pop\n      pop\n      pop\n      jump\t// out\n        /* \"#utility.yul\":5630:6055   */\n    tag_108:\n        /* \"#utility.yul\":5708:5713   */\n      0x00\n        /* \"#utility.yul\":5733:5799   */\n      tag_191\n        /* \"#utility.yul\":5749:5798   */\n      tag_192\n        /* \"#utility.yul\":5791:5797   */\n      dup5\n        /* \"#utility.yul\":5749:5798   */\n      tag_106\n      jump\t// in\n    tag_192:\n        /* \"#utility.yul\":5733:5799   */\n      tag_105\n      jump\t// in\n    tag_191:\n        /* \"#utility.yul\":5724:5799   */\n      swap1\n      pop\n        /* \"#utility.yul\":5822:5828   */\n      dup3\n        /* \"#utility.yul\":5815:5820   */\n      dup2\n        /* \"#utility.yul\":5808:5829   */\n      mstore\n        /* \"#utility.yul\":5860:5864   */\n      0x20\n        /* \"#utility.yul\":5853:5858   */\n      dup2\n        /* \"#utility.yul\":5849:5865   */\n      add\n        /* \"#utility.yul\":5898:5901   */\n      dup5\n        /* \"#utility.yul\":5889:5895   */\n      dup5\n        /* \"#utility.yul\":5884:5887   */\n      dup5\n        /* \"#utility.yul\":5880:5896   */\n      add\n        /* \"#utility.yul\":5877:5902   */\n      gt\n        /* \"#utility.yul\":5874:5986   */\n      iszero\n      tag_193\n      jumpi\n        /* \"#utility.yul\":5905:5984   */\n      tag_194\n      tag_102\n      jump\t// in\n    tag_194:\n        /* \"#utility.yul\":5874:5986   */\n    tag_193:\n        /* \"#utility.yul\":5995:6049   */\n      tag_195\n        /* \"#utility.yul\":6042:6048   */\n      dup5\n        /* \"#utility.yul\":6037:6040   */\n      dup3\n        /* \"#utility.yul\":6032:6035   */\n      dup6\n        /* \"#utility.yul\":5995:6049   */\n      tag_107\n      jump\t// in\n    tag_195:\n        /* \"#utility.yul\":5714:6055   */\n      pop\n        /* \"#utility.yul\":5630:6055   */\n      swap4\n      swap3\n      pop\n      pop\n      pop\n      jump\t// out\n        /* \"#utility.yul\":6075:6415   */\n    tag_109:\n        /* \"#utility.yul\":6131:6136   */\n      0x00\n        /* \"#utility.yul\":6180:6183   */\n      dup3\n        /* \"#utility.yul\":6173:6177   */\n      0x1f\n        /* \"#utility.yul\":6165:6171   */\n      dup4\n        /* \"#utility.yul\":6161:6178   */\n      add\n        /* \"#utility.yul\":6157:6184   */\n      slt\n        /* \"#utility.yul\":6147:6269   */\n      tag_197\n      jumpi\n        /* \"#utility.yul\":6188:6267   */\n      tag_198\n      tag_101\n      jump\t// in\n    tag_198:\n        /* \"#utility.yul\":6147:6269   */\n    tag_197:\n        /* \"#utility.yul\":6305:6311   */\n      dup2\n        /* \"#utility.yul\":6292:6312   */\n      calldataload\n        /* \"#utility.yul\":6330:6409   */\n      tag_199\n        /* \"#utility.yul\":6405:6408   */\n      dup5\n        /* \"#utility.yul\":6397:6403   */\n      dup3\n        /* \"#utility.yul\":6390:6394   */\n      0x20\n        /* \"#utility.yul\":6382:6388   */\n      dup7\n        /* \"#utility.yul\":6378:6395   */\n      add\n        /* \"#utility.yul\":6330:6409   */\n      tag_108\n      jump\t// in\n    tag_199:\n        /* \"#utility.yul\":6321:6409   */\n      swap2\n      pop\n        /* \"#utility.yul\":6137:6415   */\n      pop\n        /* \"#utility.yul\":6075:6415   */\n      swap3\n      swap2\n      pop\n      pop\n      jump\t// out\n        /* \"#utility.yul\":6421:6537   */\n    tag_110:\n        /* \"#utility.yul\":6491:6512   */\n      tag_201\n        /* \"#utility.yul\":6506:6511   */\n      dup2\n        /* \"#utility.yul\":6491:6512   */\n      tag_89\n      jump\t// in\n    tag_201:\n        /* \"#utility.yul\":6484:6489   */\n      dup2\n        /* \"#utility.yul\":6481:6513   */\n      eq\n        /* \"#utility.yul\":6471:6531   */\n      tag_202\n      jumpi\n        /* \"#utility.yul\":6527:6528   */\n      0x00\n        /* \"#utility.yul\":6524:6525   */\n      dup1\n        /* \"#utility.yul\":6517:6529   */\n      revert\n        /* \"#utility.yul\":6471:6531   */\n    tag_202:\n        /* \"#utility.yul\":6421:6537   */\n      pop\n      jump\t// out\n        /* \"#utility.yul\":6543:6676   */\n    tag_111:\n        /* \"#utility.yul\":6586:6591   */\n      0x00\n        /* \"#utility.yul\":6624:6630   */\n      dup2\n        /* \"#utility.yul\":6611:6631   */\n      calldataload\n        /* \"#utility.yul\":6602:6631   */\n      swap1\n      pop\n        /* \"#utility.yul\":6640:6670   */\n      tag_204\n        /* \"#utility.yul\":6664:6669   */\n      dup2\n        /* \"#utility.yul\":6640:6670   */\n      tag_110\n      jump\t// in\n    tag_204:\n        /* \"#utility.yul\":6543:6676   */\n      swap3\n      swap2\n      pop\n      pop\n      jump\t// out\n        /* \"#utility.yul\":6682:8959   */\n    tag_27:\n        /* \"#utility.yul\":6852:6858   */\n      0x00\n        /* \"#utility.yul\":6860:6866   */\n      dup1\n        /* \"#utility.yul\":6868:6874   */\n      0x00\n        /* \"#utility.yul\":6876:6882   */\n      dup1\n        /* \"#utility.yul\":6884:6890   */\n      0x00\n        /* \"#utility.yul\":6892:6898   */\n      dup1\n        /* \"#utility.yul\":6900:6906   */\n      0x00\n        /* \"#utility.yul\":6949:6952   */\n      0xe0\n        /* \"#utility.yul\":6937:6946   */\n      dup9\n        /* \"#utility.yul\":6928:6935   */\n      dup11\n        /* \"#utility.yul\":6924:6947   */\n      sub\n        /* \"#utility.yul\":6920:6953   */\n      slt\n        /* \"#utility.yul\":6917:7037   */\n      iszero\n      tag_206\n      jumpi\n        /* \"#utility.yul\":6956:7035   */\n      tag_207\n      tag_99\n      jump\t// in\n    tag_207:\n        /* \"#utility.yul\":6917:7037   */\n    tag_206:\n        /* \"#utility.yul\":7104:7105   */\n      0x00\n        /* \"#utility.yul\":7093:7102   */\n      dup9\n        /* \"#utility.yul\":7089:7106   */\n      add\n        /* \"#utility.yul\":7076:7107   */\n      calldataload\n        /* \"#utility.yul\":7134:7152   */\n      0xffffffffffffffff\n        /* \"#utility.yul\":7126:7132   */\n      dup2\n        /* \"#utility.yul\":7123:7153   */\n      gt\n        /* \"#utility.yul\":7120:7237   */\n      iszero\n      tag_208\n      jumpi\n        /* \"#utility.yul\":7156:7235   */\n      tag_209\n      tag_100\n      jump\t// in\n    tag_209:\n        /* \"#utility.yul\":7120:7237   */\n    tag_208:\n        /* \"#utility.yul\":7261:7324   */\n      tag_210\n        /* \"#utility.yul\":7316:7323   */\n      dup11\n        /* \"#utility.yul\":7307:7313   */\n      dup3\n        /* \"#utility.yul\":7296:7305   */\n      dup12\n        /* \"#utility.yul\":7292:7314   */\n      add\n        /* \"#utility.yul\":7261:7324   */\n      tag_109\n      jump\t// in\n    tag_210:\n        /* \"#utility.yul\":7251:7324   */\n      swap8\n      pop\n        /* \"#utility.yul\":7047:7334   */\n      pop\n        /* \"#utility.yul\":7401:7403   */\n      0x20\n        /* \"#utility.yul\":7390:7399   */\n      dup9\n        /* \"#utility.yul\":7386:7404   */\n      add\n        /* \"#utility.yul\":7373:7405   */\n      calldataload\n        /* \"#utility.yul\":7432:7450   */\n      0xffffffffffffffff\n        /* \"#utility.yul\":7424:7430   */\n      dup2\n        /* \"#utility.yul\":7421:7451   */\n      gt\n        /* \"#utility.yul\":7418:7535   */\n      iszero\n      tag_211\n      jumpi\n        /* \"#utility.yul\":7454:7533   */\n      tag_212\n      tag_100\n      jump\t// in\n    tag_212:\n        /* \"#utility.yul\":7418:7535   */\n    tag_211:\n        /* \"#utility.yul\":7559:7622   */\n      tag_213\n        /* \"#utility.yul\":7614:7621   */\n      dup11\n        /* \"#utility.yul\":7605:7611   */\n      dup3\n        /* \"#utility.yul\":7594:7603   */\n      dup12\n        /* \"#utility.yul\":7590:7612   */\n      add\n        /* \"#utility.yul\":7559:7622   */\n      tag_109\n      jump\t// in\n    tag_213:\n        /* \"#utility.yul\":7549:7622   */\n      swap7\n      pop\n        /* \"#utility.yul\":7344:7632   */\n      pop\n        /* \"#utility.yul\":7699:7701   */\n      0x40\n        /* \"#utility.yul\":7688:7697   */\n      dup9\n        /* \"#utility.yul\":7684:7702   */\n      add\n        /* \"#utility.yul\":7671:7703   */\n      calldataload\n        /* \"#utility.yul\":7730:7748   */\n      0xffffffffffffffff\n        /* \"#utility.yul\":7722:7728   */\n      dup2\n        /* \"#utility.yul\":7719:7749   */\n      gt\n        /* \"#utility.yul\":7716:7833   */\n      iszero\n      tag_214\n      jumpi\n        /* \"#utility.yul\":7752:7831   */\n      tag_215\n      tag_100\n      jump\t// in\n    tag_215:\n        /* \"#utility.yul\":7716:7833   */\n    tag_214:\n        /* \"#utility.yul\":7857:7920   */\n      tag_216\n        /* \"#utility.yul\":7912:7919   */\n      dup11\n        /* \"#utility.yul\":7903:7909   */\n      dup3\n        /* \"#utility.yul\":7892:7901   */\n      dup12\n        /* \"#utility.yul\":7888:7910   */\n      add\n        /* \"#utility.yul\":7857:7920   */\n      tag_109\n      jump\t// in\n    tag_216:\n        /* \"#utility.yul\":7847:7920   */\n      swap6\n      pop\n        /* \"#utility.yul\":7642:7930   */\n      pop\n        /* \"#utility.yul\":7997:7999   */\n      0x60\n        /* \"#utility.yul\":7986:7995   */\n      dup9\n        /* \"#utility.yul\":7982:8000   */\n      add\n        /* \"#utility.yul\":7969:8001   */\n      calldataload\n        /* \"#utility.yul\":8028:8046   */\n      0xffffffffffffffff\n        /* \"#utility.yul\":8020:8026   */\n      dup2\n        /* \"#utility.yul\":8017:8047   */\n      gt\n        /* \"#utility.yul\":8014:8131   */\n      iszero\n      tag_217\n      jumpi\n        /* \"#utility.yul\":8050:8129   */\n      tag_218\n      tag_100\n      jump\t// in\n    tag_218:\n        /* \"#utility.yul\":8014:8131   */\n    tag_217:\n        /* \"#utility.yul\":8155:8218   */\n      tag_219\n        /* \"#utility.yul\":8210:8217   */\n      dup11\n        /* \"#utility.yul\":8201:8207   */\n      dup3\n        /* \"#utility.yul\":8190:8199   */\n      dup12\n        /* \"#utility.yul\":8186:8208   */\n      add\n        /* \"#utility.yul\":8155:8218   */\n      tag_109\n      jump\t// in\n    tag_219:\n        /* \"#utility.yul\":8145:8218   */\n      swap5\n      pop\n        /* \"#utility.yul\":7940:8228   */\n      pop\n        /* \"#utility.yul\":8295:8298   */\n      0x80\n        /* \"#utility.yul\":8284:8293   */\n      dup9\n        /* \"#utility.yul\":8280:8299   */\n      add\n        /* \"#utility.yul\":8267:8300   */\n      calldataload\n        /* \"#utility.yul\":8327:8345   */\n      0xffffffffffffffff\n        /* \"#utility.yul\":8319:8325   */\n      dup2\n        /* \"#utility.yul\":8316:8346   */\n      gt\n        /* \"#utility.yul\":8313:8430   */\n      iszero\n      tag_220\n      jumpi\n        /* \"#utility.yul\":8349:8428   */\n      tag_221\n      tag_100\n      jump\t// in\n    tag_221:\n        /* \"#utility.yul\":8313:8430   */\n    tag_220:\n        /* \"#utility.yul\":8454:8517   */\n      tag_222\n        /* \"#utility.yul\":8509:8516   */\n      dup11\n        /* \"#utility.yul\":8500:8506   */\n      dup3\n        /* \"#utility.yul\":8489:8498   */\n      dup12\n        /* \"#utility.yul\":8485:8507   */\n      add\n        /* \"#utility.yul\":8454:8517   */\n      tag_109\n      jump\t// in\n    tag_222:\n        /* \"#utility.yul\":8444:8517   */\n      swap4\n      pop\n        /* \"#utility.yul\":8238:8527   */\n      pop\n        /* \"#utility.yul\":8594:8597   */\n      0xa0\n        /* \"#utility.yul\":8583:8592   */\n      dup9\n        /* \"#utility.yul\":8579:8598   */\n      add\n        /* \"#utility.yul\":8566:8599   */\n      calldataload\n        /* \"#utility.yul\":8626:8644   */\n      0xffffffffffffffff\n        /* \"#utility.yul\":8618:8624   */\n      dup2\n        /* \"#utility.yul\":8615:8645   */\n      gt\n        /* \"#utility.yul\":8612:8729   */\n      iszero\n      tag_223\n      jumpi\n        /* \"#utility.yul\":8648:8727   */\n      tag_224\n      tag_100\n      jump\t// in\n    tag_224:\n        /* \"#utility.yul\":8612:8729   */\n    tag_223:\n        /* \"#utility.yul\":8753:8816   */\n      tag_225\n        /* \"#utility.yul\":8808:8815   */\n      dup11\n        /* \"#utility.yul\":8799:8805   */\n      dup3\n        /* \"#utility.yul\":8788:8797   */\n      dup12\n        /* \"#utility.yul\":8784:8806   */\n      add\n        /* \"#utility.yul\":8753:8816   */\n      tag_109\n      jump\t// in\n    tag_225:\n        /* \"#utility.yul\":8743:8816   */\n      swap3\n      pop\n        /* \"#utility.yul\":8537:8826   */\n      pop\n        /* \"#utility.yul\":8865:8868   */\n      0xc0\n        /* \"#utility.yul\":8892:8942   */\n      tag_226\n        /* \"#utility.yul\":8934:8941   */\n      dup11\n        /* \"#utility.yul\":8925:8931   */\n      dup3\n        /* \"#utility.yul\":8914:8923   */\n      dup12\n        /* \"#utility.yul\":8910:8932   */\n      add\n        /* \"#utility.yul\":8892:8942   */\n      tag_111\n      jump\t// in\n    tag_226:\n        /* \"#utility.yul\":8882:8942   */\n      swap2\n      pop\n        /* \"#utility.yul\":8836:8952   */\n      pop\n        /* \"#utility.yul\":6682:8959   */\n      swap3\n      swap6\n      swap9\n      swap2\n      swap5\n      swap8\n      pop\n      swap3\n      swap6\n      pop\n      jump\t// out\n        /* \"#utility.yul\":8965:9189   */\n    tag_112:\n        /* \"#utility.yul\":9105:9139   */\n      0x4f6e6c7920746865206f776e65722063616e2077697468647261772074686520\n        /* \"#utility.yul\":9101:9102   */\n      0x00\n        /* \"#utility.yul\":9093:9099   */\n      dup3\n        /* \"#utility.yul\":9089:9103   */\n      add\n        /* \"#utility.yul\":9082:9140   */\n      mstore\n        /* \"#utility.yul\":9174:9181   */\n      0x66756e6473000000000000000000000000000000000000000000000000000000\n        /* \"#utility.yul\":9169:9171   */\n      0x20\n        /* \"#utility.yul\":9161:9167   */\n      dup3\n        /* \"#utility.yul\":9157:9172   */\n      add\n        /* \"#utility.yul\":9150:9182   */\n      mstore\n        /* \"#utility.yul\":8965:9189   */\n      pop\n      jump\t// out\n        /* \"#utility.yul\":9195:9561   */\n    tag_113:\n        /* \"#utility.yul\":9337:9340   */\n      0x00\n        /* \"#utility.yul\":9358:9425   */\n      tag_229\n        /* \"#utility.yul\":9422:9424   */\n      0x25\n        /* \"#utility.yul\":9417:9420   */\n      dup4\n        /* \"#utility.yul\":9358:9425   */\n      tag_85\n      jump\t// in\n    tag_229:\n        /* \"#utility.yul\":9351:9425   */\n      swap2\n      pop\n        /* \"#utility.yul\":9434:9527   */\n      tag_230\n        /* \"#utility.yul\":9523:9526   */\n      dup3\n        /* \"#utility.yul\":9434:9527   */\n      tag_112\n      jump\t// in\n    tag_230:\n        /* \"#utility.yul\":9552:9554   */\n      0x40\n        /* \"#utility.yul\":9547:9550   */\n      dup3\n        /* \"#utility.yul\":9543:9555   */\n      add\n        /* \"#utility.yul\":9536:9555   */\n      swap1\n      pop\n        /* \"#utility.yul\":9195:9561   */\n      swap2\n      swap1\n      pop\n      jump\t// out\n        /* \"#utility.yul\":9567:9986   */\n    tag_32:\n        /* \"#utility.yul\":9733:9737   */\n      0x00\n        /* \"#utility.yul\":9771:9773   */\n      0x20\n        /* \"#utility.yul\":9760:9769   */\n      dup3\n        /* \"#utility.yul\":9756:9774   */\n      add\n        /* \"#utility.yul\":9748:9774   */\n      swap1\n      pop\n        /* \"#utility.yul\":9820:9829   */\n      dup2\n        /* \"#utility.yul\":9814:9818   */\n      dup2\n        /* \"#utility.yul\":9810:9830   */\n      sub\n        /* \"#utility.yul\":9806:9807   */\n      0x00\n        /* \"#utility.yul\":9795:9804   */\n      dup4\n        /* \"#utility.yul\":9791:9808   */\n      add\n        /* \"#utility.yul\":9784:9831   */\n      mstore\n        /* \"#utility.yul\":9848:9979   */\n      tag_232\n        /* \"#utility.yul\":9974:9978   */\n      dup2\n        /* \"#utility.yul\":9848:9979   */\n      tag_113\n      jump\t// in\n    tag_232:\n        /* \"#utility.yul\":9840:9979   */\n      swap1\n      pop\n        /* \"#utility.yul\":9567:9986   */\n      swap2\n      swap1\n      pop\n      jump\t// out\n        /* \"#utility.yul\":9992:10225   */\n    tag_114:\n        /* \"#utility.yul\":10132:10166   */\n      0x546865726520617265206e6f2066756e647320696e2074686520636f6e747261\n        /* \"#utility.yul\":10128:10129   */\n      0x00\n        /* \"#utility.yul\":10120:10126   */\n      dup3\n        /* \"#utility.yul\":10116:10130   */\n      add\n        /* \"#utility.yul\":10109:10167   */\n      mstore\n        /* \"#utility.yul\":10201:10217   */\n      0x637420746f207769746864726177000000000000000000000000000000000000\n        /* \"#utility.yul\":10196:10198   */\n      0x20\n        /* \"#utility.yul\":10188:10194   */\n      dup3\n        /* \"#utility.yul\":10184:10199   */\n      add\n        /* \"#utility.yul\":10177:10218   */\n      mstore\n        /* \"#utility.yul\":9992:10225   */\n      pop\n      jump\t// out\n        /* \"#utility.yul\":10231:10597   */\n    tag_115:\n        /* \"#utility.yul\":10373:10376   */\n      0x00\n        /* \"#utility.yul\":10394:10461   */\n      tag_235\n        /* \"#utility.yul\":10458:10460   */\n      0x2e\n        /* \"#utility.yul\":10453:10456   */\n      dup4\n        /* \"#utility.yul\":10394:10461   */\n      tag_85\n      jump\t// in\n    tag_235:\n        /* \"#utility.yul\":10387:10461   */\n      swap2\n      pop\n        /* \"#utility.yul\":10470:10563   */\n      tag_236\n        /* \"#utility.yul\":10559:10562   */\n      dup3\n        /* \"#utility.yul\":10470:10563   */\n      tag_114\n      jump\t// in\n    tag_236:\n        /* \"#utility.yul\":10588:10590   */\n      0x40\n        /* \"#utility.yul\":10583:10586   */\n      dup3\n        /* \"#utility.yul\":10579:10591   */\n      add\n        /* \"#utility.yul\":10572:10591   */\n      swap1\n      pop\n        /* \"#utility.yul\":10231:10597   */\n      swap2\n      swap1\n      pop\n      jump\t// out\n        /* \"#utility.yul\":10603:11022   */\n    tag_36:\n        /* \"#utility.yul\":10769:10773   */\n      0x00\n        /* \"#utility.yul\":10807:10809   */\n      0x20\n        /* \"#utility.yul\":10796:10805   */\n      dup3\n        /* \"#utility.yul\":10792:10810   */\n      add\n        /* \"#utility.yul\":10784:10810   */\n      swap1\n      pop\n        /* \"#utility.yul\":10856:10865   */\n      dup2\n        /* \"#utility.yul\":10850:10854   */\n      dup2\n        /* \"#utility.yul\":10846:10866   */\n      sub\n        /* \"#utility.yul\":10842:10843   */\n      0x00\n        /* \"#utility.yul\":10831:10840   */\n      dup4\n        /* \"#utility.yul\":10827:10844   */\n      add\n        /* \"#utility.yul\":10820:10867   */\n      mstore\n        /* \"#utility.yul\":10884:11015   */\n      tag_238\n        /* \"#utility.yul\":11010:11014   */\n      dup2\n        /* \"#utility.yul\":10884:11015   */\n      tag_115\n      jump\t// in\n    tag_238:\n        /* \"#utility.yul\":10876:11015   */\n      swap1\n      pop\n        /* \"#utility.yul\":10603:11022   */\n      swap2\n      swap1\n      pop\n      jump\t// out\n        /* \"#utility.yul\":11028:11208   */\n    tag_116:\n        /* \"#utility.yul\":11076:11153   */\n      0x4e487b7100000000000000000000000000000000000000000000000000000000\n        /* \"#utility.yul\":11073:11074   */\n      0x00\n        /* \"#utility.yul\":11066:11154   */\n      mstore\n        /* \"#utility.yul\":11173:11177   */\n      0x22\n        /* \"#utility.yul\":11170:11171   */\n      0x04\n        /* \"#utility.yul\":11163:11178   */\n      mstore\n        /* \"#utility.yul\":11197:11201   */\n      0x24\n        /* \"#utility.yul\":11194:11195   */\n      0x00\n        /* \"#utility.yul\":11187:11202   */\n      revert\n        /* \"#utility.yul\":11214:11534   */\n    tag_40:\n        /* \"#utility.yul\":11258:11264   */\n      0x00\n        /* \"#utility.yul\":11295:11296   */\n      0x02\n        /* \"#utility.yul\":11289:11293   */\n      dup3\n        /* \"#utility.yul\":11285:11297   */\n      div\n        /* \"#utility.yul\":11275:11297   */\n      swap1\n      pop\n        /* \"#utility.yul\":11342:11343   */\n      0x01\n        /* \"#utility.yul\":11336:11340   */\n      dup3\n        /* \"#utility.yul\":11332:11344   */\n      and\n        /* \"#utility.yul\":11363:11381   */\n      dup1\n        /* \"#utility.yul\":11353:11434   */\n      tag_241\n      jumpi\n        /* \"#utility.yul\":11419:11423   */\n      0x7f\n        /* \"#utility.yul\":11411:11417   */\n      dup3\n        /* \"#utility.yul\":11407:11424   */\n      and\n        /* \"#utility.yul\":11397:11424   */\n      swap2\n      pop\n        /* \"#utility.yul\":11353:11434   */\n    tag_241:\n        /* \"#utility.yul\":11481:11483   */\n      0x20\n        /* \"#utility.yul\":11473:11479   */\n      dup3\n        /* \"#utility.yul\":11470:11484   */\n      lt\n        /* \"#utility.yul\":11450:11468   */\n      dup2\n        /* \"#utility.yul\":11447:11485   */\n      sub\n        /* \"#utility.yul\":11444:11528   */\n      tag_242\n      jumpi\n        /* \"#utility.yul\":11500:11518   */\n      tag_243\n      tag_116\n      jump\t// in\n    tag_243:\n        /* \"#utility.yul\":11444:11528   */\n    tag_242:\n        /* \"#utility.yul\":11265:11534   */\n      pop\n        /* \"#utility.yul\":11214:11534   */\n      swap2\n      swap1\n      pop\n      jump\t// out\n        /* \"#utility.yul\":11540:11763   */\n    tag_117:\n        /* \"#utility.yul\":11680:11714   */\n      0x4d697373696e67204176617820746f20657865637574652074686520636f6e74\n        /* \"#utility.yul\":11676:11677   */\n      0x00\n        /* \"#utility.yul\":11668:11674   */\n      dup3\n        /* \"#utility.yul\":11664:11678   */\n      add\n        /* \"#utility.yul\":11657:11715   */\n      mstore\n        /* \"#utility.yul\":11749:11755   */\n      0x7261637400000000000000000000000000000000000000000000000000000000\n        /* \"#utility.yul\":11744:11746   */\n      0x20\n        /* \"#utility.yul\":11736:11742   */\n      dup3\n        /* \"#utility.yul\":11732:11747   */\n      add\n        /* \"#utility.yul\":11725:11756   */\n      mstore\n        /* \"#utility.yul\":11540:11763   */\n      pop\n      jump\t// out\n        /* \"#utility.yul\":11769:12135   */\n    tag_118:\n        /* \"#utility.yul\":11911:11914   */\n      0x00\n        /* \"#utility.yul\":11932:11999   */\n      tag_246\n        /* \"#utility.yul\":11996:11998   */\n      0x24\n        /* \"#utility.yul\":11991:11994   */\n      dup4\n        /* \"#utility.yul\":11932:11999   */\n      tag_85\n      jump\t// in\n    tag_246:\n        /* \"#utility.yul\":11925:11999   */\n      swap2\n      pop\n        /* \"#utility.yul\":12008:12101   */\n      tag_247\n        /* \"#utility.yul\":12097:12100   */\n      dup3\n        /* \"#utility.yul\":12008:12101   */\n      tag_117\n      jump\t// in\n    tag_247:\n        /* \"#utility.yul\":12126:12128   */\n      0x40\n        /* \"#utility.yul\":12121:12124   */\n      dup3\n        /* \"#utility.yul\":12117:12129   */\n      add\n        /* \"#utility.yul\":12110:12129   */\n      swap1\n      pop\n        /* \"#utility.yul\":11769:12135   */\n      swap2\n      swap1\n      pop\n      jump\t// out\n        /* \"#utility.yul\":12141:12560   */\n    tag_74:\n        /* \"#utility.yul\":12307:12311   */\n      0x00\n        /* \"#utility.yul\":12345:12347   */\n      0x20\n        /* \"#utility.yul\":12334:12343   */\n      dup3\n        /* \"#utility.yul\":12330:12348   */\n      add\n        /* \"#utility.yul\":12322:12348   */\n      swap1\n      pop\n        /* \"#utility.yul\":12394:12403   */\n      dup2\n        /* \"#utility.yul\":12388:12392   */\n      dup2\n        /* \"#utility.yul\":12384:12404   */\n      sub\n        /* \"#utility.yul\":12380:12381   */\n      0x00\n        /* \"#utility.yul\":12369:12378   */\n      dup4\n        /* \"#utility.yul\":12365:12382   */\n      add\n        /* \"#utility.yul\":12358:12405   */\n      mstore\n        /* \"#utility.yul\":12422:12553   */\n      tag_249\n        /* \"#utility.yul\":12548:12552   */\n      dup2\n        /* \"#utility.yul\":12422:12553   */\n      tag_118\n      jump\t// in\n    tag_249:\n        /* \"#utility.yul\":12414:12553   */\n      swap1\n      pop\n        /* \"#utility.yul\":12141:12560   */\n      swap2\n      swap1\n      pop\n      jump\t// out\n        /* \"#utility.yul\":12566:12707   */\n    tag_119:\n        /* \"#utility.yul\":12615:12619   */\n      0x00\n        /* \"#utility.yul\":12638:12641   */\n      dup2\n        /* \"#utility.yul\":12630:12641   */\n      swap1\n      pop\n        /* \"#utility.yul\":12661:12664   */\n      dup2\n        /* \"#utility.yul\":12658:12659   */\n      0x00\n        /* \"#utility.yul\":12651:12665   */\n      mstore\n        /* \"#utility.yul\":12695:12699   */\n      0x20\n        /* \"#utility.yul\":12692:12693   */\n      0x00\n        /* \"#utility.yul\":12682:12700   */\n      keccak256\n        /* \"#utility.yul\":12674:12700   */\n      swap1\n      pop\n        /* \"#utility.yul\":12566:12707   */\n      swap2\n      swap1\n      pop\n      jump\t// out\n        /* \"#utility.yul\":12713:12806   */\n    tag_120:\n        /* \"#utility.yul\":12750:12756   */\n      0x00\n        /* \"#utility.yul\":12797:12799   */\n      0x20\n        /* \"#utility.yul\":12792:12794   */\n      0x1f\n        /* \"#utility.yul\":12785:12790   */\n      dup4\n        /* \"#utility.yul\":12781:12795   */\n      add\n        /* \"#utility.yul\":12777:12800   */\n      div\n        /* \"#utility.yul\":12767:12800   */\n      swap1\n      pop\n        /* \"#utility.yul\":12713:12806   */\n      swap2\n      swap1\n      pop\n      jump\t// out\n        /* \"#utility.yul\":12812:12919   */\n    tag_121:\n        /* \"#utility.yul\":12856:12864   */\n      0x00\n        /* \"#utility.yul\":12906:12911   */\n      dup3\n        /* \"#utility.yul\":12900:12904   */\n      dup3\n        /* \"#utility.yul\":12896:12912   */\n      shl\n        /* \"#utility.yul\":12875:12912   */\n      swap1\n      pop\n        /* \"#utility.yul\":12812:12919   */\n      swap3\n      swap2\n      pop\n      pop\n      jump\t// out\n        /* \"#utility.yul\":12925:13318   */\n    tag_122:\n        /* \"#utility.yul\":12994:13000   */\n      0x00\n        /* \"#utility.yul\":13044:13045   */\n      0x08\n        /* \"#utility.yul\":13032:13042   */\n      dup4\n        /* \"#utility.yul\":13028:13046   */\n      mul\n        /* \"#utility.yul\":13067:13164   */\n      tag_254\n        /* \"#utility.yul\":13097:13163   */\n      0xffffffffffffffffffffffffffffffffffffffffffffffffffffffffffffffff\n        /* \"#utility.yul\":13086:13095   */\n      dup3\n        /* \"#utility.yul\":13067:13164   */\n      tag_121\n      jump\t// in\n    tag_254:\n        /* \"#utility.yul\":13185:13224   */\n      tag_255\n        /* \"#utility.yul\":13215:13223   */\n      dup7\n        /* \"#utility.yul\":13204:13213   */\n      dup4\n        /* \"#utility.yul\":13185:13224   */\n      tag_121\n      jump\t// in\n    tag_255:\n        /* \"#utility.yul\":13173:13224   */\n      swap6\n      pop\n        /* \"#utility.yul\":13257:13261   */\n      dup1\n        /* \"#utility.yul\":13253:13262   */\n      not\n        /* \"#utility.yul\":13246:13251   */\n      dup5\n        /* \"#utility.yul\":13242:13263   */\n      and\n        /* \"#utility.yul\":13233:13263   */\n      swap4\n      pop\n        /* \"#utility.yul\":13306:13310   */\n      dup1\n        /* \"#utility.yul\":13296:13304   */\n      dup7\n        /* \"#utility.yul\":13292:13311   */\n      and\n        /* \"#utility.yul\":13285:13290   */\n      dup5\n        /* \"#utility.yul\":13282:13312   */\n      or\n        /* \"#utility.yul\":13272:13312   */\n      swap3\n      pop\n        /* \"#utility.yul\":13001:13318   */\n      pop\n      pop\n        /* \"#utility.yul\":12925:13318   */\n      swap4\n      swap3\n      pop\n      pop\n      pop\n      jump\t// out\n        /* \"#utility.yul\":13324:13384   */\n    tag_123:\n        /* \"#utility.yul\":13352:13355   */\n      0x00\n        /* \"#utility.yul\":13373:13378   */\n      dup2\n        /* \"#utility.yul\":13366:13378   */\n      swap1\n      pop\n        /* \"#utility.yul\":13324:13384   */\n      swap2\n      swap1\n      pop\n      jump\t// out\n        /* \"#utility.yul\":13390:13532   */\n    tag_124:\n        /* \"#utility.yul\":13440:13449   */\n      0x00\n        /* \"#utility.yul\":13473:13526   */\n      tag_258\n        /* \"#utility.yul\":13491:13525   */\n      tag_259\n        /* \"#utility.yul\":13500:13524   */\n      tag_260\n        /* \"#utility.yul\":13518:13523   */\n      dup5\n        /* \"#utility.yul\":13500:13524   */\n      tag_96\n      jump\t// in\n    tag_260:\n        /* \"#utility.yul\":13491:13525   */\n      tag_123\n      jump\t// in\n    tag_259:\n        /* \"#utility.yul\":13473:13526   */\n      tag_96\n      jump\t// in\n    tag_258:\n        /* \"#utility.yul\":13460:13526   */\n      swap1\n      pop\n        /* \"#utility.yul\":13390:13532   */\n      swap2\n      swap1\n      pop\n      jump\t// out\n        /* \"#utility.yul\":13538:13613   */\n    tag_125:\n        /* \"#utility.yul\":13581:13584   */\n      0x00\n        /* \"#utility.yul\":13602:13607   */\n      dup2\n        /* \"#utility.yul\":13595:13607   */\n      swap1\n      pop\n        /* \"#utility.yul\":13538:13613   */\n      swap2\n      swap1\n      pop\n      jump\t// out\n        /* \"#utility.yul\":13619:13888   */\n    tag_126:\n        /* \"#utility.yul\":13729:13768   */\n      tag_263\n        /* \"#utility.yul\":13760:13767   */\n      dup4\n        /* \"#utility.yul\":13729:13768   */\n      tag_124\n      jump\t// in\n    tag_263:\n        /* \"#utility.yul\":13790:13881   */\n      tag_264\n        /* \"#utility.yul\":13839:13880   */\n      tag_265\n        /* \"#utility.yul\":13863:13879   */\n      dup3\n        /* \"#utility.yul\":13839:13880   */\n      tag_125\n      jump\t// in\n    tag_265:\n        /* \"#utility.yul\":13831:13837   */\n      dup5\n        /* \"#utility.yul\":13824:13828   */\n      dup5\n        /* \"#utility.yul\":13818:13829   */\n      sload\n        /* \"#utility.yul\":13790:13881   */\n      tag_122\n      jump\t// in\n    tag_264:\n        /* \"#utility.yul\":13784:13788   */\n      dup3\n        /* \"#utility.yul\":13777:13882   */\n      sstore\n        /* \"#utility.yul\":13695:13888   */\n      pop\n        /* \"#utility.yul\":13619:13888   */\n      pop\n      pop\n      pop\n      jump\t// out\n        /* \"#utility.yul\":13894:13967   */\n    tag_127:\n        /* \"#utility.yul\":13939:13942   */\n      0x00\n        /* \"#utility.yul\":13894:13967   */\n      swap1\n      jump\t// out\n        /* \"#utility.yul\":13973:14162   */\n    tag_128:\n        /* \"#utility.yul\":14050:14082   */\n      tag_268\n      tag_127\n      jump\t// in\n    tag_268:\n        /* \"#utility.yul\":14091:14156   */\n      tag_269\n        /* \"#utility.yul\":14149:14155   */\n      dup2\n        /* \"#utility.yul\":14141:14147   */\n      dup5\n        /* \"#utility.yul\":14135:14139   */\n      dup5\n        /* \"#utility.yul\":14091:14156   */\n      tag_126\n      jump\t// in\n    tag_269:\n        /* \"#utility.yul\":14026:14162   */\n      pop\n        /* \"#utility.yul\":13973:14162   */\n      pop\n      pop\n      jump\t// out\n        /* \"#utility.yul\":14168:14354   */\n    tag_129:\n        /* \"#utility.yul\":14228:14348   */\n    tag_271:\n        /* \"#utility.yul\":14245:14248   */\n      dup2\n        /* \"#utility.yul\":14238:14243   */\n      dup2\n        /* \"#utility.yul\":14235:14249   */\n      lt\n        /* \"#utility.yul\":14228:14348   */\n      iszero\n      tag_273\n      jumpi\n        /* \"#utility.yul\":14299:14338   */\n      tag_274\n        /* \"#utility.yul\":14336:14337   */\n      0x00\n        /* \"#utility.yul\":14329:14334   */\n      dup3\n        /* \"#utility.yul\":14299:14338   */\n      tag_128\n      jump\t// in\n    tag_274:\n        /* \"#utility.yul\":14272:14273   */\n      0x01\n        /* \"#utility.yul\":14265:14270   */\n      dup2\n        /* \"#utility.yul\":14261:14274   */\n      add\n        /* \"#utility.yul\":14252:14274   */\n      swap1\n      pop\n        /* \"#utility.yul\":14228:14348   */\n      jump(tag_271)\n    tag_273:\n        /* \"#utility.yul\":14168:14354   */\n      pop\n      pop\n      jump\t// out\n        /* \"#utility.yul\":14360:14903   */\n    tag_130:\n        /* \"#utility.yul\":14461:14463   */\n      0x1f\n        /* \"#utility.yul\":14456:14459   */\n      dup3\n        /* \"#utility.yul\":14453:14464   */\n      gt\n        /* \"#utility.yul\":14450:14896   */\n      iszero\n      tag_276\n      jumpi\n        /* \"#utility.yul\":14495:14533   */\n      tag_277\n        /* \"#utility.yul\":14527:14532   */\n      dup2\n        /* \"#utility.yul\":14495:14533   */\n      tag_119\n      jump\t// in\n    tag_277:\n        /* \"#utility.yul\":14579:14608   */\n      tag_278\n        /* \"#utility.yul\":14597:14607   */\n      dup5\n        /* \"#utility.yul\":14579:14608   */\n      tag_120\n      jump\t// in\n    tag_278:\n        /* \"#utility.yul\":14569:14577   */\n      dup2\n        /* \"#utility.yul\":14565:14609   */\n      add\n        /* \"#utility.yul\":14762:14764   */\n      0x20\n        /* \"#utility.yul\":14750:14760   */\n      dup6\n        /* \"#utility.yul\":14747:14765   */\n      lt\n        /* \"#utility.yul\":14744:14793   */\n      iszero\n      tag_279\n      jumpi\n        /* \"#utility.yul\":14783:14791   */\n      dup2\n        /* \"#utility.yul\":14768:14791   */\n      swap1\n      pop\n        /* \"#utility.yul\":14744:14793   */\n    tag_279:\n        /* \"#utility.yul\":14806:14886   */\n      tag_280\n        /* \"#utility.yul\":14862:14884   */\n      tag_281\n        /* \"#utility.yul\":14880:14883   */\n      dup6\n        /* \"#utility.yul\":14862:14884   */\n      tag_120\n      jump\t// in\n    tag_281:\n        /* \"#utility.yul\":14852:14860   */\n      dup4\n        /* \"#utility.yul\":14848:14885   */\n      add\n        /* \"#utility.yul\":14835:14846   */\n      dup3\n        /* \"#utility.yul\":14806:14886   */\n      tag_129\n      jump\t// in\n    tag_280:\n        /* \"#utility.yul\":14465:14896   */\n      pop\n      pop\n        /* \"#utility.yul\":14450:14896   */\n    tag_276:\n        /* \"#utility.yul\":14360:14903   */\n      pop\n      pop\n      pop\n      jump\t// out\n        /* \"#utility.yul\":14909:15026   */\n    tag_131:\n        /* \"#utility.yul\":14963:14971   */\n      0x00\n        /* \"#utility.yul\":15013:15018   */\n      dup3\n        /* \"#utility.yul\":15007:15011   */\n      dup3\n        /* \"#utility.yul\":15003:15019   */\n      shr\n        /* \"#utility.yul\":14982:15019   */\n      swap1\n      pop\n        /* \"#utility.yul\":14909:15026   */\n      swap3\n      swap2\n      pop\n      pop\n      jump\t// out\n        /* \"#utility.yul\":15032:15201   */\n    tag_132:\n        /* \"#utility.yul\":15076:15082   */\n      0x00\n        /* \"#utility.yul\":15109:15160   */\n      tag_284\n        /* \"#utility.yul\":15157:15158   */\n      0x00\n        /* \"#utility.yul\":15153:15159   */\n      not\n        /* \"#utility.yul\":15145:15150   */\n      dup5\n        /* \"#utility.yul\":15142:15143   */\n      0x08\n        /* \"#utility.yul\":15138:15151   */\n      mul\n        /* \"#utility.yul\":15109:15160   */\n      tag_131\n      jump\t// in\n    tag_284:\n        /* \"#utility.yul\":15105:15161   */\n      not\n        /* \"#utility.yul\":15190:15194   */\n      dup1\n        /* \"#utility.yul\":15184:15188   */\n      dup4\n        /* \"#utility.yul\":15180:15195   */\n      and\n        /* \"#utility.yul\":15170:15195   */\n      swap2\n      pop\n        /* \"#utility.yul\":15083:15201   */\n      pop\n        /* \"#utility.yul\":15032:15201   */\n      swap3\n      swap2\n      pop\n      pop\n      jump\t// out\n        /* \"#utility.yul\":15206:15501   */\n    tag_133:\n        /* \"#utility.yul\":15282:15286   */\n      0x00\n        /* \"#utility.yul\":15428:15457   */\n      tag_286\n        /* \"#utility.yul\":15453:15456   */\n      dup4\n        /* \"#utility.yul\":15447:15451   */\n      dup4\n        /* \"#utility.yul\":15428:15457   */\n      tag_132\n      jump\t// in\n    tag_286:\n        /* \"#utility.yul\":15420:15457   */\n      swap2\n      pop\n        /* \"#utility.yul\":15490:15493   */\n      dup3\n        /* \"#utility.yul\":15487:15488   */\n      0x02\n        /* \"#utility.yul\":15483:15494   */\n      mul\n        /* \"#utility.yul\":15477:15481   */\n      dup3\n        /* \"#utility.yul\":15474:15495   */\n      or\n        /* \"#utility.yul\":15466:15495   */\n      swap1\n      pop\n        /* \"#utility.yul\":15206:15501   */\n      swap3\n      swap2\n      pop\n      pop\n      jump\t// out\n        /* \"#utility.yul\":15506:16901   */\n    tag_77:\n        /* \"#utility.yul\":15623:15660   */\n      tag_288\n        /* \"#utility.yul\":15656:15659   */\n      dup3\n        /* \"#utility.yul\":15623:15660   */\n      tag_84\n      jump\t// in\n    tag_288:\n        /* \"#utility.yul\":15725:15743   */\n      0xffffffffffffffff\n        /* \"#utility.yul\":15717:15723   */\n      dup2\n        /* \"#utility.yul\":15714:15744   */\n      gt\n        /* \"#utility.yul\":15711:15767   */\n      iszero\n      tag_289\n      jumpi\n        /* \"#utility.yul\":15747:15765   */\n      tag_290\n      tag_103\n      jump\t// in\n    tag_290:\n        /* \"#utility.yul\":15711:15767   */\n    tag_289:\n        /* \"#utility.yul\":15791:15829   */\n      tag_291\n        /* \"#utility.yul\":15823:15827   */\n      dup3\n        /* \"#utility.yul\":15817:15828   */\n      sload\n        /* \"#utility.yul\":15791:15829   */\n      tag_40\n      jump\t// in\n    tag_291:\n        /* \"#utility.yul\":15876:15943   */\n      tag_292\n        /* \"#utility.yul\":15936:15942   */\n      dup3\n        /* \"#utility.yul\":15928:15934   */\n      dup3\n        /* \"#utility.yul\":15922:15926   */\n      dup6\n        /* \"#utility.yul\":15876:15943   */\n      tag_130\n      jump\t// in\n    tag_292:\n        /* \"#utility.yul\":15970:15971   */\n      0x00\n        /* \"#utility.yul\":15994:15998   */\n      0x20\n        /* \"#utility.yul\":15981:15998   */\n      swap1\n      pop\n        /* \"#utility.yul\":16026:16028   */\n      0x1f\n        /* \"#utility.yul\":16018:16024   */\n      dup4\n        /* \"#utility.yul\":16015:16029   */\n      gt\n        /* \"#utility.yul\":16043:16044   */\n      0x01\n        /* \"#utility.yul\":16038:16656   */\n      dup2\n      eq\n      tag_294\n      jumpi\n        /* \"#utility.yul\":16700:16701   */\n      0x00\n        /* \"#utility.yul\":16717:16723   */\n      dup5\n        /* \"#utility.yul\":16714:16791   */\n      iszero\n      tag_295\n      jumpi\n        /* \"#utility.yul\":16766:16775   */\n      dup3\n        /* \"#utility.yul\":16761:16764   */\n      dup8\n        /* \"#utility.yul\":16757:16776   */\n      add\n        /* \"#utility.yul\":16751:16777   */\n      mload\n        /* \"#utility.yul\":16742:16777   */\n      swap1\n      pop\n        /* \"#utility.yul\":16714:16791   */\n    tag_295:\n        /* \"#utility.yul\":16817:16884   */\n      tag_296\n        /* \"#utility.yul\":16877:16883   */\n      dup6\n        /* \"#utility.yul\":16870:16875   */\n      dup3\n        /* \"#utility.yul\":16817:16884   */\n      tag_133\n      jump\t// in\n    tag_296:\n        /* \"#utility.yul\":16811:16815   */\n      dup7\n        /* \"#utility.yul\":16804:16885   */\n      sstore\n        /* \"#utility.yul\":16673:16895   */\n      pop\n        /* \"#utility.yul\":16008:16895   */\n      jump(tag_293)\n        /* \"#utility.yul\":16038:16656   */\n    tag_294:\n        /* \"#utility.yul\":16090:16094   */\n      0x1f\n        /* \"#utility.yul\":16086:16095   */\n      not\n        /* \"#utility.yul\":16078:16084   */\n      dup5\n        /* \"#utility.yul\":16074:16096   */\n      and\n        /* \"#utility.yul\":16124:16161   */\n      tag_297\n        /* \"#utility.yul\":16156:16160   */\n      dup7\n        /* \"#utility.yul\":16124:16161   */\n      tag_119\n      jump\t// in\n    tag_297:\n        /* \"#utility.yul\":16183:16184   */\n      0x00\n        /* \"#utility.yul\":16197:16405   */\n    tag_298:\n        /* \"#utility.yul\":16211:16218   */\n      dup3\n        /* \"#utility.yul\":16208:16209   */\n      dup2\n        /* \"#utility.yul\":16205:16219   */\n      lt\n        /* \"#utility.yul\":16197:16405   */\n      iszero\n      tag_300\n      jumpi\n        /* \"#utility.yul\":16290:16299   */\n      dup5\n        /* \"#utility.yul\":16285:16288   */\n      dup10\n        /* \"#utility.yul\":16281:16300   */\n      add\n        /* \"#utility.yul\":16275:16301   */\n      mload\n        /* \"#utility.yul\":16267:16273   */\n      dup3\n        /* \"#utility.yul\":16260:16302   */\n      sstore\n        /* \"#utility.yul\":16341:16342   */\n      0x01\n        /* \"#utility.yul\":16333:16339   */\n      dup3\n        /* \"#utility.yul\":16329:16343   */\n      add\n        /* \"#utility.yul\":16319:16343   */\n      swap2\n      pop\n        /* \"#utility.yul\":16388:16390   */\n      0x20\n        /* \"#utility.yul\":16377:16386   */\n      dup6\n        /* \"#utility.yul\":16373:16391   */\n      add\n        /* \"#utility.yul\":16360:16391   */\n      swap5\n      pop\n        /* \"#utility.yul\":16234:16238   */\n      0x20\n        /* \"#utility.yul\":16231:16232   */\n      dup2\n        /* \"#utility.yul\":16227:16239   */\n      add\n        /* \"#utility.yul\":16222:16239   */\n      swap1\n      pop\n        /* \"#utility.yul\":16197:16405   */\n      jump(tag_298)\n    tag_300:\n        /* \"#utility.yul\":16433:16439   */\n      dup7\n        /* \"#utility.yul\":16424:16431   */\n      dup4\n        /* \"#utility.yul\":16421:16440   */\n      lt\n        /* \"#utility.yul\":16418:16597   */\n      iszero\n      tag_301\n      jumpi\n        /* \"#utility.yul\":16491:16500   */\n      dup5\n        /* \"#utility.yul\":16486:16489   */\n      dup10\n        /* \"#utility.yul\":16482:16501   */\n      add\n        /* \"#utility.yul\":16476:16502   */\n      mload\n        /* \"#utility.yul\":16534:16582   */\n      tag_302\n        /* \"#utility.yul\":16576:16580   */\n      0x1f\n        /* \"#utility.yul\":16568:16574   */\n      dup10\n        /* \"#utility.yul\":16564:16581   */\n      and\n        /* \"#utility.yul\":16553:16562   */\n      dup3\n        /* \"#utility.yul\":16534:16582   */\n      tag_132\n      jump\t// in\n    tag_302:\n        /* \"#utility.yul\":16526:16532   */\n      dup4\n        /* \"#utility.yul\":16519:16583   */\n      sstore\n        /* \"#utility.yul\":16441:16597   */\n      pop\n        /* \"#utility.yul\":16418:16597   */\n    tag_301:\n        /* \"#utility.yul\":16643:16644   */\n      0x01\n        /* \"#utility.yul\":16639:16640   */\n      0x02\n        /* \"#utility.yul\":16631:16637   */\n      dup9\n        /* \"#utility.yul\":16627:16641   */\n      mul\n        /* \"#utility.yul\":16623:16645   */\n      add\n        /* \"#utility.yul\":16617:16621   */\n      dup9\n        /* \"#utility.yul\":16610:16646   */\n      sstore\n        /* \"#utility.yul\":16045:16656   */\n      pop\n      pop\n      pop\n        /* \"#utility.yul\":16008:16895   */\n    tag_293:\n      pop\n        /* \"#utility.yul\":15598:16901   */\n      pop\n      pop\n      pop\n        /* \"#utility.yul\":15506:16901   */\n      pop\n      pop\n      jump\t// out\n\n    auxdata: 0xa2646970667358221220d8d00747541fdf91328585655a975e0c58889aad76bbbd5e130ade1248bfa9f064736f6c634300081a0033\n}\n",
				"bytecode": {
					"linkReferences": {},
					"object": "6080604052348015600e575f80fd5b50335f806101000a81548173ffffffffffffffffffffffffffffffffffffffff021916908373ffffffffffffffffffffffffffffffffffffffff1602179055506110f68061005b5f395ff3fe608060405260043610610049575f3560e01c80633ccfd60b1461004d57806373d4a13a146100635780638da5cb5b14610094578063c1cfb99a146100be578063d076f50b146100e8575b5f80fd5b348015610058575f80fd5b50610061610104565b005b34801561006e575f80fd5b5061007761023d565b60405161008b989796959493929190610891565b60405180910390f35b34801561009f575f80fd5b506100a86105c1565b6040516100b59190610957565b60405180910390f35b3480156100c9575f80fd5b506100d26105e4565b6040516100df9190610988565b60405180910390f35b61010260048036038101906100fd9190610b08565b6105eb565b005b5f8054906101000a900473ffffffffffffffffffffffffffffffffffffffff1673ffffffffffffffffffffffffffffffffffffffff163373ffffffffffffffffffffffffffffffffffffffff1614610191576040517f08c379a000000000000000000000000000000000000000000000000000000000815260040161018890610cbd565b60405180910390fd5b5f4790505f81116101d7576040517f08c379a00000000000000000000000000000000000000000000000000000000081526004016101ce90610d4b565b60405180910390fd5b5f8054906101000a900473ffffffffffffffffffffffffffffffffffffffff1673ffffffffffffffffffffffffffffffffffffffff166108fc8290811502906040515f60405180830381858888f19350505050158015610239573d5f803e3d5ffd5b5050565b6001805f01805461024d90610d96565b80601f016020809104026020016040519081016040528092919081815260200182805461027990610d96565b80156102c45780601f1061029b576101008083540402835291602001916102c4565b820191905f5260205f20905b8154815290600101906020018083116102a757829003601f168201915b5050505050908060010180546102d990610d96565b80601f016020809104026020016040519081016040528092919081815260200182805461030590610d96565b80156103505780601f1061032757610100808354040283529160200191610350565b820191905f5260205f20905b81548152906001019060200180831161033357829003601f168201915b50505050509080600201805461036590610d96565b80601f016020809104026020016040519081016040528092919081815260200182805461039190610d96565b80156103dc5780601f106103b3576101008083540402835291602001916103dc565b820191905f5260205f20905b8154815290600101906020018083116103bf57829003601f168201915b5050505050908060030180546103f190610d96565b80601f016020809104026020016040519081016040528092919081815260200182805461041d90610d96565b80156104685780601f1061043f57610100808354040283529160200191610468565b820191905f5260205f20905b81548152906001019060200180831161044b57829003601f168201915b50505050509080600401805461047d90610d96565b80601f01602080910402602001604051908101604052809291908181526020018280546104a990610d96565b80156104f45780601f106104cb576101008083540402835291602001916104f4565b820191905f5260205f20905b8154815290600101906020018083116104d757829003601f168201915b50505050509080600501805461050990610d96565b80601f016020809104026020016040519081016040528092919081815260200182805461053590610d96565b80156105805780601f1061055757610100808354040283529160200191610580565b820191905f5260205f20905b81548152906001019060200180831161056357829003601f168201915b505050505090806006015f9054906101000a90045f0b908060060160019054906101000a900473ffffffffffffffffffffffffffffffffffffffff16905088565b5f8054906101000a900473ffffffffffffffffffffffffffffffffffffffff1681565b5f47905090565b67016345785d8a000080341015610637576040517f08c379a000000000000000000000000000000000000000000000000000000000815260040161062e90610e36565b60405180910390fd5b604051806101000160405280898152602001888152602001878152602001868152602001858152602001848152602001835f0b81526020013373ffffffffffffffffffffffffffffffffffffffff1681525060015f820151815f01908161069e9190610ff1565b5060208201518160010190816106b49190610ff1565b5060408201518160020190816106ca9190610ff1565b5060608201518160030190816106e09190610ff1565b5060808201518160040190816106f69190610ff1565b5060a082015181600501908161070c9190610ff1565b5060c0820151816006015f6101000a81548160ff02191690835f0b60ff16021790555060e08201518160060160016101000a81548173ffffffffffffffffffffffffffffffffffffffff021916908373ffffffffffffffffffffffffffffffffffffffff1602179055509050507f1bf9c9853026c8e484b64b006e5b1d67e66ec7934fcafdeef46a7c657b93cade88888888888888336040516107b6989796959493929190610891565b60405180910390a15050505050505050565b5f81519050919050565b5f82825260208201905092915050565b8281835e5f83830152505050565b5f601f19601f8301169050919050565b5f61080a826107c8565b61081481856107d2565b93506108248185602086016107e2565b61082d816107f0565b840191505092915050565b5f815f0b9050919050565b61084c81610838565b82525050565b5f73ffffffffffffffffffffffffffffffffffffffff82169050919050565b5f61087b82610852565b9050919050565b61088b81610871565b82525050565b5f610100820190508181035f8301526108aa818b610800565b905081810360208301526108be818a610800565b905081810360408301526108d28189610800565b905081810360608301526108e68188610800565b905081810360808301526108fa8187610800565b905081810360a083015261090e8186610800565b905061091d60c0830185610843565b61092a60e0830184610882565b9998505050505050505050565b5f61094182610852565b9050919050565b61095181610937565b82525050565b5f60208201905061096a5f830184610948565b92915050565b5f819050919050565b61098281610970565b82525050565b5f60208201905061099b5f830184610979565b92915050565b5f604051905090565b5f80fd5b5f80fd5b5f80fd5b5f80fd5b7f4e487b71000000000000000000000000000000000000000000000000000000005f52604160045260245ffd5b6109f0826107f0565b810181811067ffffffffffffffff82111715610a0f57610a0e6109ba565b5b80604052505050565b5f610a216109a1565b9050610a2d82826109e7565b919050565b5f67ffffffffffffffff821115610a4c57610a4b6109ba565b5b610a55826107f0565b9050602081019050919050565b828183375f83830152505050565b5f610a82610a7d84610a32565b610a18565b905082815260208101848484011115610a9e57610a9d6109b6565b5b610aa9848285610a62565b509392505050565b5f82601f830112610ac557610ac46109b2565b5b8135610ad5848260208601610a70565b91505092915050565b610ae781610838565b8114610af1575f80fd5b50565b5f81359050610b0281610ade565b92915050565b5f805f805f805f60e0888a031215610b2357610b226109aa565b5b5f88013567ffffffffffffffff811115610b4057610b3f6109ae565b5b610b4c8a828b01610ab1565b975050602088013567ffffffffffffffff811115610b6d57610b6c6109ae565b5b610b798a828b01610ab1565b965050604088013567ffffffffffffffff811115610b9a57610b996109ae565b5b610ba68a828b01610ab1565b955050606088013567ffffffffffffffff811115610bc757610bc66109ae565b5b610bd38a828b01610ab1565b945050608088013567ffffffffffffffff811115610bf457610bf36109ae565b5b610c008a828b01610ab1565b93505060a088013567ffffffffffffffff811115610c2157610c206109ae565b5b610c2d8a828b01610ab1565b92505060c0610c3e8a828b01610af4565b91505092959891949750929550565b7f4f6e6c7920746865206f776e65722063616e20776974686472617720746865205f8201527f66756e6473000000000000000000000000000000000000000000000000000000602082015250565b5f610ca76025836107d2565b9150610cb282610c4d565b604082019050919050565b5f6020820190508181035f830152610cd481610c9b565b9050919050565b7f546865726520617265206e6f2066756e647320696e2074686520636f6e7472615f8201527f637420746f207769746864726177000000000000000000000000000000000000602082015250565b5f610d35602e836107d2565b9150610d4082610cdb565b604082019050919050565b5f6020820190508181035f830152610d6281610d29565b9050919050565b7f4e487b71000000000000000000000000000000000000000000000000000000005f52602260045260245ffd5b5f6002820490506001821680610dad57607f821691505b602082108103610dc057610dbf610d69565b5b50919050565b7f4d697373696e67204176617820746f20657865637574652074686520636f6e745f8201527f7261637400000000000000000000000000000000000000000000000000000000602082015250565b5f610e206024836107d2565b9150610e2b82610dc6565b604082019050919050565b5f6020820190508181035f830152610e4d81610e14565b9050919050565b5f819050815f5260205f209050919050565b5f6020601f8301049050919050565b5f82821b905092915050565b5f60088302610eb07fffffffffffffffffffffffffffffffffffffffffffffffffffffffffffffffff82610e75565b610eba8683610e75565b95508019841693508086168417925050509392505050565b5f819050919050565b5f610ef5610ef0610eeb84610970565b610ed2565b610970565b9050919050565b5f819050919050565b610f0e83610edb565b610f22610f1a82610efc565b848454610e81565b825550505050565b5f90565b610f36610f2a565b610f41818484610f05565b505050565b5b81811015610f6457610f595f82610f2e565b600181019050610f47565b5050565b601f821115610fa957610f7a81610e54565b610f8384610e66565b81016020851015610f92578190505b610fa6610f9e85610e66565b830182610f46565b50505b505050565b5f82821c905092915050565b5f610fc95f1984600802610fae565b1980831691505092915050565b5f610fe18383610fba565b9150826002028217905092915050565b610ffa826107c8565b67ffffffffffffffff811115611013576110126109ba565b5b61101d8254610d96565b611028828285610f68565b5f60209050601f831160018114611059575f8415611047578287015190505b6110518582610fd6565b8655506110b8565b601f19841661106786610e54565b5f5b8281101561108e57848901518255600182019150602085019450602081019050611069565b868310156110ab57848901516110a7601f891682610fba565b8355505b6001600288020188555050505b50505050505056fea2646970667358221220d8d00747541fdf91328585655a975e0c58889aad76bbbd5e130ade1248bfa9f064736f6c634300081a0033",
					"opcodes": "PUSH1 0x80 PUSH1 0x40 MSTORE CALLVALUE DUP1 ISZERO PUSH1 0xE JUMPI PUSH0 DUP1 REVERT JUMPDEST POP CALLER PUSH0 DUP1 PUSH2 0x100 EXP DUP2 SLOAD DUP2 PUSH20 0xFFFFFFFFFFFFFFFFFFFFFFFFFFFFFFFFFFFFFFFF MUL NOT AND SWAP1 DUP4 PUSH20 0xFFFFFFFFFFFFFFFFFFFFFFFFFFFFFFFFFFFFFFFF AND MUL OR SWAP1 SSTORE POP PUSH2 0x10F6 DUP1 PUSH2 0x5B PUSH0 CODECOPY PUSH0 RETURN INVALID PUSH1 0x80 PUSH1 0x40 MSTORE PUSH1 0x4 CALLDATASIZE LT PUSH2 0x49 JUMPI PUSH0 CALLDATALOAD PUSH1 0xE0 SHR DUP1 PUSH4 0x3CCFD60B EQ PUSH2 0x4D JUMPI DUP1 PUSH4 0x73D4A13A EQ PUSH2 0x63 JUMPI DUP1 PUSH4 0x8DA5CB5B EQ PUSH2 0x94 JUMPI DUP1 PUSH4 0xC1CFB99A EQ PUSH2 0xBE JUMPI DUP1 PUSH4 0xD076F50B EQ PUSH2 0xE8 JUMPI JUMPDEST PUSH0 DUP1 REVERT JUMPDEST CALLVALUE DUP1 ISZERO PUSH2 0x58 JUMPI PUSH0 DUP1 REVERT JUMPDEST POP PUSH2 0x61 PUSH2 0x104 JUMP JUMPDEST STOP JUMPDEST CALLVALUE DUP1 ISZERO PUSH2 0x6E JUMPI PUSH0 DUP1 REVERT JUMPDEST POP PUSH2 0x77 PUSH2 0x23D JUMP JUMPDEST PUSH1 0x40 MLOAD PUSH2 0x8B SWAP9 SWAP8 SWAP7 SWAP6 SWAP5 SWAP4 SWAP3 SWAP2 SWAP1 PUSH2 0x891 JUMP JUMPDEST PUSH1 0x40 MLOAD DUP1 SWAP2 SUB SWAP1 RETURN JUMPDEST CALLVALUE DUP1 ISZERO PUSH2 0x9F JUMPI PUSH0 DUP1 REVERT JUMPDEST POP PUSH2 0xA8 PUSH2 0x5C1 JUMP JUMPDEST PUSH1 0x40 MLOAD PUSH2 0xB5 SWAP2 SWAP1 PUSH2 0x957 JUMP JUMPDEST PUSH1 0x40 MLOAD DUP1 SWAP2 SUB SWAP1 RETURN JUMPDEST CALLVALUE DUP1 ISZERO PUSH2 0xC9 JUMPI PUSH0 DUP1 REVERT JUMPDEST POP PUSH2 0xD2 PUSH2 0x5E4 JUMP JUMPDEST PUSH1 0x40 MLOAD PUSH2 0xDF SWAP2 SWAP1 PUSH2 0x988 JUMP JUMPDEST PUSH1 0x40 MLOAD DUP1 SWAP2 SUB SWAP1 RETURN JUMPDEST PUSH2 0x102 PUSH1 0x4 DUP1 CALLDATASIZE SUB DUP2 ADD SWAP1 PUSH2 0xFD SWAP2 SWAP1 PUSH2 0xB08 JUMP JUMPDEST PUSH2 0x5EB JUMP JUMPDEST STOP JUMPDEST PUSH0 DUP1 SLOAD SWAP1 PUSH2 0x100 EXP SWAP1 DIV PUSH20 0xFFFFFFFFFFFFFFFFFFFFFFFFFFFFFFFFFFFFFFFF AND PUSH20 0xFFFFFFFFFFFFFFFFFFFFFFFFFFFFFFFFFFFFFFFF AND CALLER PUSH20 0xFFFFFFFFFFFFFFFFFFFFFFFFFFFFFFFFFFFFFFFF AND EQ PUSH2 0x191 JUMPI PUSH1 0x40 MLOAD PUSH32 0x8C379A000000000000000000000000000000000000000000000000000000000 DUP2 MSTORE PUSH1 0x4 ADD PUSH2 0x188 SWAP1 PUSH2 0xCBD JUMP JUMPDEST PUSH1 0x40 MLOAD DUP1 SWAP2 SUB SWAP1 REVERT JUMPDEST PUSH0 SELFBALANCE SWAP1 POP PUSH0 DUP2 GT PUSH2 0x1D7 JUMPI PUSH1 0x40 MLOAD PUSH32 0x8C379A000000000000000000000000000000000000000000000000000000000 DUP2 MSTORE PUSH1 0x4 ADD PUSH2 0x1CE SWAP1 PUSH2 0xD4B JUMP JUMPDEST PUSH1 0x40 MLOAD DUP1 SWAP2 SUB SWAP1 REVERT JUMPDEST PUSH0 DUP1 SLOAD SWAP1 PUSH2 0x100 EXP SWAP1 DIV PUSH20 0xFFFFFFFFFFFFFFFFFFFFFFFFFFFFFFFFFFFFFFFF AND PUSH20 0xFFFFFFFFFFFFFFFFFFFFFFFFFFFFFFFFFFFFFFFF AND PUSH2 0x8FC DUP3 SWAP1 DUP2 ISZERO MUL SWAP1 PUSH1 0x40 MLOAD PUSH0 PUSH1 0x40 MLOAD DUP1 DUP4 SUB DUP2 DUP6 DUP9 DUP9 CALL SWAP4 POP POP POP POP ISZERO DUP1 ISZERO PUSH2 0x239 JUMPI RETURNDATASIZE PUSH0 DUP1 RETURNDATACOPY RETURNDATASIZE PUSH0 REVERT JUMPDEST POP POP JUMP JUMPDEST PUSH1 0x1 DUP1 PUSH0 ADD DUP1 SLOAD PUSH2 0x24D SWAP1 PUSH2 0xD96 JUMP JUMPDEST DUP1 PUSH1 0x1F ADD PUSH1 0x20 DUP1 SWAP2 DIV MUL PUSH1 0x20 ADD PUSH1 0x40 MLOAD SWAP1 DUP2 ADD PUSH1 0x40 MSTORE DUP1 SWAP3 SWAP2 SWAP1 DUP2 DUP2 MSTORE PUSH1 0x20 ADD DUP3 DUP1 SLOAD PUSH2 0x279 SWAP1 PUSH2 0xD96 JUMP JUMPDEST DUP1 ISZERO PUSH2 0x2C4 JUMPI DUP1 PUSH1 0x1F LT PUSH2 0x29B JUMPI PUSH2 0x100 DUP1 DUP4 SLOAD DIV MUL DUP4 MSTORE SWAP2 PUSH1 0x20 ADD SWAP2 PUSH2 0x2C4 JUMP JUMPDEST DUP3 ADD SWAP2 SWAP1 PUSH0 MSTORE PUSH1 0x20 PUSH0 KECCAK256 SWAP1 JUMPDEST DUP2 SLOAD DUP2 MSTORE SWAP1 PUSH1 0x1 ADD SWAP1 PUSH1 0x20 ADD DUP1 DUP4 GT PUSH2 0x2A7 JUMPI DUP3 SWAP1 SUB PUSH1 0x1F AND DUP3 ADD SWAP2 JUMPDEST POP POP POP POP POP SWAP1 DUP1 PUSH1 0x1 ADD DUP1 SLOAD PUSH2 0x2D9 SWAP1 PUSH2 0xD96 JUMP JUMPDEST DUP1 PUSH1 0x1F ADD PUSH1 0x20 DUP1 SWAP2 DIV MUL PUSH1 0x20 ADD PUSH1 0x40 MLOAD SWAP1 DUP2 ADD PUSH1 0x40 MSTORE DUP1 SWAP3 SWAP2 SWAP1 DUP2 DUP2 MSTORE PUSH1 0x20 ADD DUP3 DUP1 SLOAD PUSH2 0x305 SWAP1 PUSH2 0xD96 JUMP JUMPDEST DUP1 ISZERO PUSH2 0x350 JUMPI DUP1 PUSH1 0x1F LT PUSH2 0x327 JUMPI PUSH2 0x100 DUP1 DUP4 SLOAD DIV MUL DUP4 MSTORE SWAP2 PUSH1 0x20 ADD SWAP2 PUSH2 0x350 JUMP JUMPDEST DUP3 ADD SWAP2 SWAP1 PUSH0 MSTORE PUSH1 0x20 PUSH0 KECCAK256 SWAP1 JUMPDEST DUP2 SLOAD DUP2 MSTORE SWAP1 PUSH1 0x1 ADD SWAP1 PUSH1 0x20 ADD DUP1 DUP4 GT PUSH2 0x333 JUMPI DUP3 SWAP1 SUB PUSH1 0x1F AND DUP3 ADD SWAP2 JUMPDEST POP POP POP POP POP SWAP1 DUP1 PUSH1 0x2 ADD DUP1 SLOAD PUSH2 0x365 SWAP1 PUSH2 0xD96 JUMP JUMPDEST DUP1 PUSH1 0x1F ADD PUSH1 0x20 DUP1 SWAP2 DIV MUL PUSH1 0x20 ADD PUSH1 0x40 MLOAD SWAP1 DUP2 ADD PUSH1 0x40 MSTORE DUP1 SWAP3 SWAP2 SWAP1 DUP2 DUP2 MSTORE PUSH1 0x20 ADD DUP3 DUP1 SLOAD PUSH2 0x391 SWAP1 PUSH2 0xD96 JUMP JUMPDEST DUP1 ISZERO PUSH2 0x3DC JUMPI DUP1 PUSH1 0x1F LT PUSH2 0x3B3 JUMPI PUSH2 0x100 DUP1 DUP4 SLOAD DIV MUL DUP4 MSTORE SWAP2 PUSH1 0x20 ADD SWAP2 PUSH2 0x3DC JUMP JUMPDEST DUP3 ADD SWAP2 SWAP1 PUSH0 MSTORE PUSH1 0x20 PUSH0 KECCAK256 SWAP1 JUMPDEST DUP2 SLOAD DUP2 MSTORE SWAP1 PUSH1 0x1 ADD SWAP1 PUSH1 0x20 ADD DUP1 DUP4 GT PUSH2 0x3BF JUMPI DUP3 SWAP1 SUB PUSH1 0x1F AND DUP3 ADD SWAP2 JUMPDEST POP POP POP POP POP SWAP1 DUP1 PUSH1 0x3 ADD DUP1 SLOAD PUSH2 0x3F1 SWAP1 PUSH2 0xD96 JUMP JUMPDEST DUP1 PUSH1 0x1F ADD PUSH1 0x20 DUP1 SWAP2 DIV MUL PUSH1 0x20 ADD PUSH1 0x40 MLOAD SWAP1 DUP2 ADD PUSH1 0x40 MSTORE DUP1 SWAP3 SWAP2 SWAP1 DUP2 DUP2 MSTORE PUSH1 0x20 ADD DUP3 DUP1 SLOAD PUSH2 0x41D SWAP1 PUSH2 0xD96 JUMP JUMPDEST DUP1 ISZERO PUSH2 0x468 JUMPI DUP1 PUSH1 0x1F LT PUSH2 0x43F JUMPI PUSH2 0x100 DUP1 DUP4 SLOAD DIV MUL DUP4 MSTORE SWAP2 PUSH1 0x20 ADD SWAP2 PUSH2 0x468 JUMP JUMPDEST DUP3 ADD SWAP2 SWAP1 PUSH0 MSTORE PUSH1 0x20 PUSH0 KECCAK256 SWAP1 JUMPDEST DUP2 SLOAD DUP2 MSTORE SWAP1 PUSH1 0x1 ADD SWAP1 PUSH1 0x20 ADD DUP1 DUP4 GT PUSH2 0x44B JUMPI DUP3 SWAP1 SUB PUSH1 0x1F AND DUP3 ADD SWAP2 JUMPDEST POP POP POP POP POP SWAP1 DUP1 PUSH1 0x4 ADD DUP1 SLOAD PUSH2 0x47D SWAP1 PUSH2 0xD96 JUMP JUMPDEST DUP1 PUSH1 0x1F ADD PUSH1 0x20 DUP1 SWAP2 DIV MUL PUSH1 0x20 ADD PUSH1 0x40 MLOAD SWAP1 DUP2 ADD PUSH1 0x40 MSTORE DUP1 SWAP3 SWAP2 SWAP1 DUP2 DUP2 MSTORE PUSH1 0x20 ADD DUP3 DUP1 SLOAD PUSH2 0x4A9 SWAP1 PUSH2 0xD96 JUMP JUMPDEST DUP1 ISZERO PUSH2 0x4F4 JUMPI DUP1 PUSH1 0x1F LT PUSH2 0x4CB JUMPI PUSH2 0x100 DUP1 DUP4 SLOAD DIV MUL DUP4 MSTORE SWAP2 PUSH1 0x20 ADD SWAP2 PUSH2 0x4F4 JUMP JUMPDEST DUP3 ADD SWAP2 SWAP1 PUSH0 MSTORE PUSH1 0x20 PUSH0 KECCAK256 SWAP1 JUMPDEST DUP2 SLOAD DUP2 MSTORE SWAP1 PUSH1 0x1 ADD SWAP1 PUSH1 0x20 ADD DUP1 DUP4 GT PUSH2 0x4D7 JUMPI DUP3 SWAP1 SUB PUSH1 0x1F AND DUP3 ADD SWAP2 JUMPDEST POP POP POP POP POP SWAP1 DUP1 PUSH1 0x5 ADD DUP1 SLOAD PUSH2 0x509 SWAP1 PUSH2 0xD96 JUMP JUMPDEST DUP1 PUSH1 0x1F ADD PUSH1 0x20 DUP1 SWAP2 DIV MUL PUSH1 0x20 ADD PUSH1 0x40 MLOAD SWAP1 DUP2 ADD PUSH1 0x40 MSTORE DUP1 SWAP3 SWAP2 SWAP1 DUP2 DUP2 MSTORE PUSH1 0x20 ADD DUP3 DUP1 SLOAD PUSH2 0x535 SWAP1 PUSH2 0xD96 JUMP JUMPDEST DUP1 ISZERO PUSH2 0x580 JUMPI DUP1 PUSH1 0x1F LT PUSH2 0x557 JUMPI PUSH2 0x100 DUP1 DUP4 SLOAD DIV MUL DUP4 MSTORE SWAP2 PUSH1 0x20 ADD SWAP2 PUSH2 0x580 JUMP JUMPDEST DUP3 ADD SWAP2 SWAP1 PUSH0 MSTORE PUSH1 0x20 PUSH0 KECCAK256 SWAP1 JUMPDEST DUP2 SLOAD DUP2 MSTORE SWAP1 PUSH1 0x1 ADD SWAP1 PUSH1 0x20 ADD DUP1 DUP4 GT PUSH2 0x563 JUMPI DUP3 SWAP1 SUB PUSH1 0x1F AND DUP3 ADD SWAP2 JUMPDEST POP POP POP POP POP SWAP1 DUP1 PUSH1 0x6 ADD PUSH0 SWAP1 SLOAD SWAP1 PUSH2 0x100 EXP SWAP1 DIV PUSH0 SIGNEXTEND SWAP1 DUP1 PUSH1 0x6 ADD PUSH1 0x1 SWAP1 SLOAD SWAP1 PUSH2 0x100 EXP SWAP1 DIV PUSH20 0xFFFFFFFFFFFFFFFFFFFFFFFFFFFFFFFFFFFFFFFF AND SWAP1 POP DUP9 JUMP JUMPDEST PUSH0 DUP1 SLOAD SWAP1 PUSH2 0x100 EXP SWAP1 DIV PUSH20 0xFFFFFFFFFFFFFFFFFFFFFFFFFFFFFFFFFFFFFFFF AND DUP2 JUMP JUMPDEST PUSH0 SELFBALANCE SWAP1 POP SWAP1 JUMP JUMPDEST PUSH8 0x16345785D8A0000 DUP1 CALLVALUE LT ISZERO PUSH2 0x637 JUMPI PUSH1 0x40 MLOAD PUSH32 0x8C379A000000000000000000000000000000000000000000000000000000000 DUP2 MSTORE PUSH1 0x4 ADD PUSH2 0x62E SWAP1 PUSH2 0xE36 JUMP JUMPDEST PUSH1 0x40 MLOAD DUP1 SWAP2 SUB SWAP1 REVERT JUMPDEST PUSH1 0x40 MLOAD DUP1 PUSH2 0x100 ADD PUSH1 0x40 MSTORE DUP1 DUP10 DUP2 MSTORE PUSH1 0x20 ADD DUP9 DUP2 MSTORE PUSH1 0x20 ADD DUP8 DUP2 MSTORE PUSH1 0x20 ADD DUP7 DUP2 MSTORE PUSH1 0x20 ADD DUP6 DUP2 MSTORE PUSH1 0x20 ADD DUP5 DUP2 MSTORE PUSH1 0x20 ADD DUP4 PUSH0 SIGNEXTEND DUP2 MSTORE PUSH1 0x20 ADD CALLER PUSH20 0xFFFFFFFFFFFFFFFFFFFFFFFFFFFFFFFFFFFFFFFF AND DUP2 MSTORE POP PUSH1 0x1 PUSH0 DUP3 ADD MLOAD DUP2 PUSH0 ADD SWAP1 DUP2 PUSH2 0x69E SWAP2 SWAP1 PUSH2 0xFF1 JUMP JUMPDEST POP PUSH1 0x20 DUP3 ADD MLOAD DUP2 PUSH1 0x1 ADD SWAP1 DUP2 PUSH2 0x6B4 SWAP2 SWAP1 PUSH2 0xFF1 JUMP JUMPDEST POP PUSH1 0x40 DUP3 ADD MLOAD DUP2 PUSH1 0x2 ADD SWAP1 DUP2 PUSH2 0x6CA SWAP2 SWAP1 PUSH2 0xFF1 JUMP JUMPDEST POP PUSH1 0x60 DUP3 ADD MLOAD DUP2 PUSH1 0x3 ADD SWAP1 DUP2 PUSH2 0x6E0 SWAP2 SWAP1 PUSH2 0xFF1 JUMP JUMPDEST POP PUSH1 0x80 DUP3 ADD MLOAD DUP2 PUSH1 0x4 ADD SWAP1 DUP2 PUSH2 0x6F6 SWAP2 SWAP1 PUSH2 0xFF1 JUMP JUMPDEST POP PUSH1 0xA0 DUP3 ADD MLOAD DUP2 PUSH1 0x5 ADD SWAP1 DUP2 PUSH2 0x70C SWAP2 SWAP1 PUSH2 0xFF1 JUMP JUMPDEST POP PUSH1 0xC0 DUP3 ADD MLOAD DUP2 PUSH1 0x6 ADD PUSH0 PUSH2 0x100 EXP DUP2 SLOAD DUP2 PUSH1 0xFF MUL NOT AND SWAP1 DUP4 PUSH0 SIGNEXTEND PUSH1 0xFF AND MUL OR SWAP1 SSTORE POP PUSH1 0xE0 DUP3 ADD MLOAD DUP2 PUSH1 0x6 ADD PUSH1 0x1 PUSH2 0x100 EXP DUP2 SLOAD DUP2 PUSH20 0xFFFFFFFFFFFFFFFFFFFFFFFFFFFFFFFFFFFFFFFF MUL NOT AND SWAP1 DUP4 PUSH20 0xFFFFFFFFFFFFFFFFFFFFFFFFFFFFFFFFFFFFFFFF AND MUL OR SWAP1 SSTORE POP SWAP1 POP POP PUSH32 0x1BF9C9853026C8E484B64B006E5B1D67E66EC7934FCAFDEEF46A7C657B93CADE DUP9 DUP9 DUP9 DUP9 DUP9 DUP9 DUP9 CALLER PUSH1 0x40 MLOAD PUSH2 0x7B6 SWAP9 SWAP8 SWAP7 SWAP6 SWAP5 SWAP4 SWAP3 SWAP2 SWAP1 PUSH2 0x891 JUMP JUMPDEST PUSH1 0x40 MLOAD DUP1 SWAP2 SUB SWAP1 LOG1 POP POP POP POP POP POP POP POP JUMP JUMPDEST PUSH0 DUP2 MLOAD SWAP1 POP SWAP2 SWAP1 POP JUMP JUMPDEST PUSH0 DUP3 DUP3 MSTORE PUSH1 0x20 DUP3 ADD SWAP1 POP SWAP3 SWAP2 POP POP JUMP JUMPDEST DUP3 DUP2 DUP4 MCOPY PUSH0 DUP4 DUP4 ADD MSTORE POP POP POP JUMP JUMPDEST PUSH0 PUSH1 0x1F NOT PUSH1 0x1F DUP4 ADD AND SWAP1 POP SWAP2 SWAP1 POP JUMP JUMPDEST PUSH0 PUSH2 0x80A DUP3 PUSH2 0x7C8 JUMP JUMPDEST PUSH2 0x814 DUP2 DUP6 PUSH2 0x7D2 JUMP JUMPDEST SWAP4 POP PUSH2 0x824 DUP2 DUP6 PUSH1 0x20 DUP7 ADD PUSH2 0x7E2 JUMP JUMPDEST PUSH2 0x82D DUP2 PUSH2 0x7F0 JUMP JUMPDEST DUP5 ADD SWAP2 POP POP SWAP3 SWAP2 POP POP JUMP JUMPDEST PUSH0 DUP2 PUSH0 SIGNEXTEND SWAP1 POP SWAP2 SWAP1 POP JUMP JUMPDEST PUSH2 0x84C DUP2 PUSH2 0x838 JUMP JUMPDEST DUP3 MSTORE POP POP JUMP JUMPDEST PUSH0 PUSH20 0xFFFFFFFFFFFFFFFFFFFFFFFFFFFFFFFFFFFFFFFF DUP3 AND SWAP1 POP SWAP2 SWAP1 POP JUMP JUMPDEST PUSH0 PUSH2 0x87B DUP3 PUSH2 0x852 JUMP JUMPDEST SWAP1 POP SWAP2 SWAP1 POP JUMP JUMPDEST PUSH2 0x88B DUP2 PUSH2 0x871 JUMP JUMPDEST DUP3 MSTORE POP POP JUMP JUMPDEST PUSH0 PUSH2 0x100 DUP3 ADD SWAP1 POP DUP2 DUP2 SUB PUSH0 DUP4 ADD MSTORE PUSH2 0x8AA DUP2 DUP12 PUSH2 0x800 JUMP JUMPDEST SWAP1 POP DUP2 DUP2 SUB PUSH1 0x20 DUP4 ADD MSTORE PUSH2 0x8BE DUP2 DUP11 PUSH2 0x800 JUMP JUMPDEST SWAP1 POP DUP2 DUP2 SUB PUSH1 0x40 DUP4 ADD MSTORE PUSH2 0x8D2 DUP2 DUP10 PUSH2 0x800 JUMP JUMPDEST SWAP1 POP DUP2 DUP2 SUB PUSH1 0x60 DUP4 ADD MSTORE PUSH2 0x8E6 DUP2 DUP9 PUSH2 0x800 JUMP JUMPDEST SWAP1 POP DUP2 DUP2 SUB PUSH1 0x80 DUP4 ADD MSTORE PUSH2 0x8FA DUP2 DUP8 PUSH2 0x800 JUMP JUMPDEST SWAP1 POP DUP2 DUP2 SUB PUSH1 0xA0 DUP4 ADD MSTORE PUSH2 0x90E DUP2 DUP7 PUSH2 0x800 JUMP JUMPDEST SWAP1 POP PUSH2 0x91D PUSH1 0xC0 DUP4 ADD DUP6 PUSH2 0x843 JUMP JUMPDEST PUSH2 0x92A PUSH1 0xE0 DUP4 ADD DUP5 PUSH2 0x882 JUMP JUMPDEST SWAP10 SWAP9 POP POP POP POP POP POP POP POP POP JUMP JUMPDEST PUSH0 PUSH2 0x941 DUP3 PUSH2 0x852 JUMP JUMPDEST SWAP1 POP SWAP2 SWAP1 POP JUMP JUMPDEST PUSH2 0x951 DUP2 PUSH2 0x937 JUMP JUMPDEST DUP3 MSTORE POP POP JUMP JUMPDEST PUSH0 PUSH1 0x20 DUP3 ADD SWAP1 POP PUSH2 0x96A PUSH0 DUP4 ADD DUP5 PUSH2 0x948 JUMP JUMPDEST SWAP3 SWAP2 POP POP JUMP JUMPDEST PUSH0 DUP2 SWAP1 POP SWAP2 SWAP1 POP JUMP JUMPDEST PUSH2 0x982 DUP2 PUSH2 0x970 JUMP JUMPDEST DUP3 MSTORE POP POP JUMP JUMPDEST PUSH0 PUSH1 0x20 DUP3 ADD SWAP1 POP PUSH2 0x99B PUSH0 DUP4 ADD DUP5 PUSH2 0x979 JUMP JUMPDEST SWAP3 SWAP2 POP POP JUMP JUMPDEST PUSH0 PUSH1 0x40 MLOAD SWAP1 POP SWAP1 JUMP JUMPDEST PUSH0 DUP1 REVERT JUMPDEST PUSH0 DUP1 REVERT JUMPDEST PUSH0 DUP1 REVERT JUMPDEST PUSH0 DUP1 REVERT JUMPDEST PUSH32 0x4E487B7100000000000000000000000000000000000000000000000000000000 PUSH0 MSTORE PUSH1 0x41 PUSH1 0x4 MSTORE PUSH1 0x24 PUSH0 REVERT JUMPDEST PUSH2 0x9F0 DUP3 PUSH2 0x7F0 JUMP JUMPDEST DUP2 ADD DUP2 DUP2 LT PUSH8 0xFFFFFFFFFFFFFFFF DUP3 GT OR ISZERO PUSH2 0xA0F JUMPI PUSH2 0xA0E PUSH2 0x9BA JUMP JUMPDEST JUMPDEST DUP1 PUSH1 0x40 MSTORE POP POP POP JUMP JUMPDEST PUSH0 PUSH2 0xA21 PUSH2 0x9A1 JUMP JUMPDEST SWAP1 POP PUSH2 0xA2D DUP3 DUP3 PUSH2 0x9E7 JUMP JUMPDEST SWAP2 SWAP1 POP JUMP JUMPDEST PUSH0 PUSH8 0xFFFFFFFFFFFFFFFF DUP3 GT ISZERO PUSH2 0xA4C JUMPI PUSH2 0xA4B PUSH2 0x9BA JUMP JUMPDEST JUMPDEST PUSH2 0xA55 DUP3 PUSH2 0x7F0 JUMP JUMPDEST SWAP1 POP PUSH1 0x20 DUP2 ADD SWAP1 POP SWAP2 SWAP1 POP JUMP JUMPDEST DUP3 DUP2 DUP4 CALLDATACOPY PUSH0 DUP4 DUP4 ADD MSTORE POP POP POP JUMP JUMPDEST PUSH0 PUSH2 0xA82 PUSH2 0xA7D DUP5 PUSH2 0xA32 JUMP JUMPDEST PUSH2 0xA18 JUMP JUMPDEST SWAP1 POP DUP3 DUP2 MSTORE PUSH1 0x20 DUP2 ADD DUP5 DUP5 DUP5 ADD GT ISZERO PUSH2 0xA9E JUMPI PUSH2 0xA9D PUSH2 0x9B6 JUMP JUMPDEST JUMPDEST PUSH2 0xAA9 DUP5 DUP3 DUP6 PUSH2 0xA62 JUMP JUMPDEST POP SWAP4 SWAP3 POP POP POP JUMP JUMPDEST PUSH0 DUP3 PUSH1 0x1F DUP4 ADD SLT PUSH2 0xAC5 JUMPI PUSH2 0xAC4 PUSH2 0x9B2 JUMP JUMPDEST JUMPDEST DUP2 CALLDATALOAD PUSH2 0xAD5 DUP5 DUP3 PUSH1 0x20 DUP7 ADD PUSH2 0xA70 JUMP JUMPDEST SWAP2 POP POP SWAP3 SWAP2 POP POP JUMP JUMPDEST PUSH2 0xAE7 DUP2 PUSH2 0x838 JUMP JUMPDEST DUP2 EQ PUSH2 0xAF1 JUMPI PUSH0 DUP1 REVERT JUMPDEST POP JUMP JUMPDEST PUSH0 DUP2 CALLDATALOAD SWAP1 POP PUSH2 0xB02 DUP2 PUSH2 0xADE JUMP JUMPDEST SWAP3 SWAP2 POP POP JUMP JUMPDEST PUSH0 DUP1 PUSH0 DUP1 PUSH0 DUP1 PUSH0 PUSH1 0xE0 DUP9 DUP11 SUB SLT ISZERO PUSH2 0xB23 JUMPI PUSH2 0xB22 PUSH2 0x9AA JUMP JUMPDEST JUMPDEST PUSH0 DUP9 ADD CALLDATALOAD PUSH8 0xFFFFFFFFFFFFFFFF DUP2 GT ISZERO PUSH2 0xB40 JUMPI PUSH2 0xB3F PUSH2 0x9AE JUMP JUMPDEST JUMPDEST PUSH2 0xB4C DUP11 DUP3 DUP12 ADD PUSH2 0xAB1 JUMP JUMPDEST SWAP8 POP POP PUSH1 0x20 DUP9 ADD CALLDATALOAD PUSH8 0xFFFFFFFFFFFFFFFF DUP2 GT ISZERO PUSH2 0xB6D JUMPI PUSH2 0xB6C PUSH2 0x9AE JUMP JUMPDEST JUMPDEST PUSH2 0xB79 DUP11 DUP3 DUP12 ADD PUSH2 0xAB1 JUMP JUMPDEST SWAP7 POP POP PUSH1 0x40 DUP9 ADD CALLDATALOAD PUSH8 0xFFFFFFFFFFFFFFFF DUP2 GT ISZERO PUSH2 0xB9A JUMPI PUSH2 0xB99 PUSH2 0x9AE JUMP JUMPDEST JUMPDEST PUSH2 0xBA6 DUP11 DUP3 DUP12 ADD PUSH2 0xAB1 JUMP JUMPDEST SWAP6 POP POP PUSH1 0x60 DUP9 ADD CALLDATALOAD PUSH8 0xFFFFFFFFFFFFFFFF DUP2 GT ISZERO PUSH2 0xBC7 JUMPI PUSH2 0xBC6 PUSH2 0x9AE JUMP JUMPDEST JUMPDEST PUSH2 0xBD3 DUP11 DUP3 DUP12 ADD PUSH2 0xAB1 JUMP JUMPDEST SWAP5 POP POP PUSH1 0x80 DUP9 ADD CALLDATALOAD PUSH8 0xFFFFFFFFFFFFFFFF DUP2 GT ISZERO PUSH2 0xBF4 JUMPI PUSH2 0xBF3 PUSH2 0x9AE JUMP JUMPDEST JUMPDEST PUSH2 0xC00 DUP11 DUP3 DUP12 ADD PUSH2 0xAB1 JUMP JUMPDEST SWAP4 POP POP PUSH1 0xA0 DUP9 ADD CALLDATALOAD PUSH8 0xFFFFFFFFFFFFFFFF DUP2 GT ISZERO PUSH2 0xC21 JUMPI PUSH2 0xC20 PUSH2 0x9AE JUMP JUMPDEST JUMPDEST PUSH2 0xC2D DUP11 DUP3 DUP12 ADD PUSH2 0xAB1 JUMP JUMPDEST SWAP3 POP POP PUSH1 0xC0 PUSH2 0xC3E DUP11 DUP3 DUP12 ADD PUSH2 0xAF4 JUMP JUMPDEST SWAP2 POP POP SWAP3 SWAP6 SWAP9 SWAP2 SWAP5 SWAP8 POP SWAP3 SWAP6 POP JUMP JUMPDEST PUSH32 0x4F6E6C7920746865206F776E65722063616E2077697468647261772074686520 PUSH0 DUP3 ADD MSTORE PUSH32 0x66756E6473000000000000000000000000000000000000000000000000000000 PUSH1 0x20 DUP3 ADD MSTORE POP JUMP JUMPDEST PUSH0 PUSH2 0xCA7 PUSH1 0x25 DUP4 PUSH2 0x7D2 JUMP JUMPDEST SWAP2 POP PUSH2 0xCB2 DUP3 PUSH2 0xC4D JUMP JUMPDEST PUSH1 0x40 DUP3 ADD SWAP1 POP SWAP2 SWAP1 POP JUMP JUMPDEST PUSH0 PUSH1 0x20 DUP3 ADD SWAP1 POP DUP2 DUP2 SUB PUSH0 DUP4 ADD MSTORE PUSH2 0xCD4 DUP2 PUSH2 0xC9B JUMP JUMPDEST SWAP1 POP SWAP2 SWAP1 POP JUMP JUMPDEST PUSH32 0x546865726520617265206E6F2066756E647320696E2074686520636F6E747261 PUSH0 DUP3 ADD MSTORE PUSH32 0x637420746F207769746864726177000000000000000000000000000000000000 PUSH1 0x20 DUP3 ADD MSTORE POP JUMP JUMPDEST PUSH0 PUSH2 0xD35 PUSH1 0x2E DUP4 PUSH2 0x7D2 JUMP JUMPDEST SWAP2 POP PUSH2 0xD40 DUP3 PUSH2 0xCDB JUMP JUMPDEST PUSH1 0x40 DUP3 ADD SWAP1 POP SWAP2 SWAP1 POP JUMP JUMPDEST PUSH0 PUSH1 0x20 DUP3 ADD SWAP1 POP DUP2 DUP2 SUB PUSH0 DUP4 ADD MSTORE PUSH2 0xD62 DUP2 PUSH2 0xD29 JUMP JUMPDEST SWAP1 POP SWAP2 SWAP1 POP JUMP JUMPDEST PUSH32 0x4E487B7100000000000000000000000000000000000000000000000000000000 PUSH0 MSTORE PUSH1 0x22 PUSH1 0x4 MSTORE PUSH1 0x24 PUSH0 REVERT JUMPDEST PUSH0 PUSH1 0x2 DUP3 DIV SWAP1 POP PUSH1 0x1 DUP3 AND DUP1 PUSH2 0xDAD JUMPI PUSH1 0x7F DUP3 AND SWAP2 POP JUMPDEST PUSH1 0x20 DUP3 LT DUP2 SUB PUSH2 0xDC0 JUMPI PUSH2 0xDBF PUSH2 0xD69 JUMP JUMPDEST JUMPDEST POP SWAP2 SWAP1 POP JUMP JUMPDEST PUSH32 0x4D697373696E67204176617820746F20657865637574652074686520636F6E74 PUSH0 DUP3 ADD MSTORE PUSH32 0x7261637400000000000000000000000000000000000000000000000000000000 PUSH1 0x20 DUP3 ADD MSTORE POP JUMP JUMPDEST PUSH0 PUSH2 0xE20 PUSH1 0x24 DUP4 PUSH2 0x7D2 JUMP JUMPDEST SWAP2 POP PUSH2 0xE2B DUP3 PUSH2 0xDC6 JUMP JUMPDEST PUSH1 0x40 DUP3 ADD SWAP1 POP SWAP2 SWAP1 POP JUMP JUMPDEST PUSH0 PUSH1 0x20 DUP3 ADD SWAP1 POP DUP2 DUP2 SUB PUSH0 DUP4 ADD MSTORE PUSH2 0xE4D DUP2 PUSH2 0xE14 JUMP JUMPDEST SWAP1 POP SWAP2 SWAP1 POP JUMP JUMPDEST PUSH0 DUP2 SWAP1 POP DUP2 PUSH0 MSTORE PUSH1 0x20 PUSH0 KECCAK256 SWAP1 POP SWAP2 SWAP1 POP JUMP JUMPDEST PUSH0 PUSH1 0x20 PUSH1 0x1F DUP4 ADD DIV SWAP1 POP SWAP2 SWAP1 POP JUMP JUMPDEST PUSH0 DUP3 DUP3 SHL SWAP1 POP SWAP3 SWAP2 POP POP JUMP JUMPDEST PUSH0 PUSH1 0x8 DUP4 MUL PUSH2 0xEB0 PUSH32 0xFFFFFFFFFFFFFFFFFFFFFFFFFFFFFFFFFFFFFFFFFFFFFFFFFFFFFFFFFFFFFFFF DUP3 PUSH2 0xE75 JUMP JUMPDEST PUSH2 0xEBA DUP7 DUP4 PUSH2 0xE75 JUMP JUMPDEST SWAP6 POP DUP1 NOT DUP5 AND SWAP4 POP DUP1 DUP7 AND DUP5 OR SWAP3 POP POP POP SWAP4 SWAP3 POP POP POP JUMP JUMPDEST PUSH0 DUP2 SWAP1 POP SWAP2 SWAP1 POP JUMP JUMPDEST PUSH0 PUSH2 0xEF5 PUSH2 0xEF0 PUSH2 0xEEB DUP5 PUSH2 0x970 JUMP JUMPDEST PUSH2 0xED2 JUMP JUMPDEST PUSH2 0x970 JUMP JUMPDEST SWAP1 POP SWAP2 SWAP1 POP JUMP JUMPDEST PUSH0 DUP2 SWAP1 POP SWAP2 SWAP1 POP JUMP JUMPDEST PUSH2 0xF0E DUP4 PUSH2 0xEDB JUMP JUMPDEST PUSH2 0xF22 PUSH2 0xF1A DUP3 PUSH2 0xEFC JUMP JUMPDEST DUP5 DUP5 SLOAD PUSH2 0xE81 JUMP JUMPDEST DUP3 SSTORE POP POP POP POP JUMP JUMPDEST PUSH0 SWAP1 JUMP JUMPDEST PUSH2 0xF36 PUSH2 0xF2A JUMP JUMPDEST PUSH2 0xF41 DUP2 DUP5 DUP5 PUSH2 0xF05 JUMP JUMPDEST POP POP POP JUMP JUMPDEST JUMPDEST DUP2 DUP2 LT ISZERO PUSH2 0xF64 JUMPI PUSH2 0xF59 PUSH0 DUP3 PUSH2 0xF2E JUMP JUMPDEST PUSH1 0x1 DUP2 ADD SWAP1 POP PUSH2 0xF47 JUMP JUMPDEST POP POP JUMP JUMPDEST PUSH1 0x1F DUP3 GT ISZERO PUSH2 0xFA9 JUMPI PUSH2 0xF7A DUP2 PUSH2 0xE54 JUMP JUMPDEST PUSH2 0xF83 DUP5 PUSH2 0xE66 JUMP JUMPDEST DUP2 ADD PUSH1 0x20 DUP6 LT ISZERO PUSH2 0xF92 JUMPI DUP2 SWAP1 POP JUMPDEST PUSH2 0xFA6 PUSH2 0xF9E DUP6 PUSH2 0xE66 JUMP JUMPDEST DUP4 ADD DUP3 PUSH2 0xF46 JUMP JUMPDEST POP POP JUMPDEST POP POP POP JUMP JUMPDEST PUSH0 DUP3 DUP3 SHR SWAP1 POP SWAP3 SWAP2 POP POP JUMP JUMPDEST PUSH0 PUSH2 0xFC9 PUSH0 NOT DUP5 PUSH1 0x8 MUL PUSH2 0xFAE JUMP JUMPDEST NOT DUP1 DUP4 AND SWAP2 POP POP SWAP3 SWAP2 POP POP JUMP JUMPDEST PUSH0 PUSH2 0xFE1 DUP4 DUP4 PUSH2 0xFBA JUMP JUMPDEST SWAP2 POP DUP3 PUSH1 0x2 MUL DUP3 OR SWAP1 POP SWAP3 SWAP2 POP POP JUMP JUMPDEST PUSH2 0xFFA DUP3 PUSH2 0x7C8 JUMP JUMPDEST PUSH8 0xFFFFFFFFFFFFFFFF DUP2 GT ISZERO PUSH2 0x1013 JUMPI PUSH2 0x1012 PUSH2 0x9BA JUMP JUMPDEST JUMPDEST PUSH2 0x101D DUP3 SLOAD PUSH2 0xD96 JUMP JUMPDEST PUSH2 0x1028 DUP3 DUP3 DUP6 PUSH2 0xF68 JUMP JUMPDEST PUSH0 PUSH1 0x20 SWAP1 POP PUSH1 0x1F DUP4 GT PUSH1 0x1 DUP2 EQ PUSH2 0x1059 JUMPI PUSH0 DUP5 ISZERO PUSH2 0x1047 JUMPI DUP3 DUP8 ADD MLOAD SWAP1 POP JUMPDEST PUSH2 0x1051 DUP6 DUP3 PUSH2 0xFD6 JUMP JUMPDEST DUP7 SSTORE POP PUSH2 0x10B8 JUMP JUMPDEST PUSH1 0x1F NOT DUP5 AND PUSH2 0x1067 DUP7 PUSH2 0xE54 JUMP JUMPDEST PUSH0 JUMPDEST DUP3 DUP2 LT ISZERO PUSH2 0x108E JUMPI DUP5 DUP10 ADD MLOAD DUP3 SSTORE PUSH1 0x1 DUP3 ADD SWAP2 POP PUSH1 0x20 DUP6 ADD SWAP5 POP PUSH1 0x20 DUP2 ADD SWAP1 POP PUSH2 0x1069 JUMP JUMPDEST DUP7 DUP4 LT ISZERO PUSH2 0x10AB JUMPI DUP5 DUP10 ADD MLOAD PUSH2 0x10A7 PUSH1 0x1F DUP10 AND DUP3 PUSH2 0xFBA JUMP JUMPDEST DUP4 SSTORE POP JUMPDEST PUSH1 0x1 PUSH1 0x2 DUP9 MUL ADD DUP9 SSTORE POP POP POP JUMPDEST POP POP POP POP POP POP JUMP INVALID LOG2 PUSH5 0x6970667358 0x22 SLT KECCAK256 0xD8 0xD0 SMOD SELFBALANCE SLOAD 0x1F 0xDF SWAP2 ORIGIN DUP6 DUP6 PUSH6 0x5A975E0C5888 SWAP11 0xAD PUSH23 0xBBBD5E130ADE1248BFA9F064736F6C634300081A003300 "
				},
				"gasEstimates": {
					"creation": {
						"codeDepositCost": "868400",
						"executionCost": "25166",
						"totalCost": "893566"
					},
					"external": {
						"data()": "infinite",
						"get_balance()": "378",
						"owner()": "2527",
						"push_Data(string,string,string,string,string,string,int8)": "infinite",
						"withdraw()": "infinite"
					}
				},
				"methodIdentifiers": {
					"data()": "73d4a13a",
					"get_balance()": "c1cfb99a",
					"owner()": "8da5cb5b",
					"push_Data(string,string,string,string,string,string,int8)": "d076f50b",
					"withdraw()": "3ccfd60b"
				}
			},
			"storageLayout": {
				"storage": [
					{
						"astId": 3,
						"contract": "tc_avax.sol:tc_avax",
						"label": "owner",
						"offset": 0,
						"slot": "0",
						"type": "t_address_payable"
					},
					{
						"astId": 23,
						"contract": "tc_avax.sol:tc_avax",
						"label": "data",
						"offset": 0,
						"slot": "1",
						"type": "t_struct(Data)20_storage"
					}
				],
				"types": {
					"t_address": {
						"encoding": "inplace",
						"label": "address",
						"numberOfBytes": "20"
					},
					"t_address_payable": {
						"encoding": "inplace",
						"label": "address payable",
						"numberOfBytes": "20"
					},
					"t_int8": {
						"encoding": "inplace",
						"label": "int8",
						"numberOfBytes": "1"
					},
					"t_string_storage": {
						"encoding": "bytes",
						"label": "string",
						"numberOfBytes": "32"
					},
					"t_struct(Data)20_storage": {
						"encoding": "inplace",
						"label": "struct tc_avax.Data",
						"members": [
							{
								"astId": 5,
								"contract": "tc_avax.sol:tc_avax",
								"label": "date",
								"offset": 0,
								"slot": "0",
								"type": "t_string_storage"
							},
							{
								"astId": 7,
								"contract": "tc_avax.sol:tc_avax",
								"label": "delivery_date",
								"offset": 0,
								"slot": "1",
								"type": "t_string_storage"
							},
							{
								"astId": 9,
								"contract": "tc_avax.sol:tc_avax",
								"label": "product",
								"offset": 0,
								"slot": "2",
								"type": "t_string_storage"
							},
							{
								"astId": 11,
								"contract": "tc_avax.sol:tc_avax",
								"label": "price",
								"offset": 0,
								"slot": "3",
								"type": "t_string_storage"
							},
							{
								"astId": 13,
								"contract": "tc_avax.sol:tc_avax",
								"label": "code",
								"offset": 0,
								"slot": "4",
								"type": "t_string_storage"
							},
							{
								"astId": 15,
								"contract": "tc_avax.sol:tc_avax",
								"label": "cel_number",
								"offset": 0,
								"slot": "5",
								"type": "t_string_storage"
							},
							{
								"astId": 17,
								"contract": "tc_avax.sol:tc_avax",
								"label": "status",
								"offset": 0,
								"slot": "6",
								"type": "t_int8"
							},
							{
								"astId": 19,
								"contract": "tc_avax.sol:tc_avax",
								"label": "wallet",
								"offset": 1,
								"slot": "6",
								"type": "t_address"
							}
						],
						"numberOfBytes": "224"
					}
				}
			},
			"userdoc": {
				"kind": "user",
				"methods": {},
				"version": 1
			}
		}
	}
}